S12340003B3939C6013939393939393939393939393939C60139C60139393939393939397B
S1234020393939C60139393939C601393939393939393939C60139393939C6013939393908
S1234040393939C6013939393939393939393939393939393939393939393939C601393992
S12340603939398E1B00BF1602BD86CB4C7F39398E2F40BF1602BD86CB5427387C1603BDDF
S123408086CB5ED1387C1603BD86CB4C7F397C1603BDBA987C16037ECA7D8E2EC0BF16026C
S12340A0BD86CB624A37398E0900BF1602BD86CB422538398E2E80BF1602BD86CB422538BE
S12340C07C1603BD86CB7ED93C7C16037ED2C08E2DC0BF1602BD86CB472937398E2D80BFC7
S12340E016027ED8A58E2D40BF16027EA8128E2CC0BF1602BD86CB5AE1377C16037EBD1CE2
S12341008E2C00BF1602BD86CB44CB377C1603BD86CB6A7A367C1603BD86CB4FC935398E42
S12341202B40BF1602BD86CB5AA7387C1603BD86CB5A8A3A398E2B00BF1602BD86CB56CA3A
S1234140367C1603BD86CB5AB0367C1603BD86CB5E6A367C1603BD86CB6223367C1603BDF1
S123416086CB65C7367C1603BD86CB424C38398E2A80BF1602BD86CB4BE8387C1603BD8686
S1234180CB591C38398E2A40BF1602BD86CB596037398E29C0BF16027ED8E58E2940BF160F
S12341A002BD86CB48D6397C1603BD86CB5045397C1603BD8D727C1603BDB6807C1603BDF8
S12341C0C70D7C16037EC7B48E2880BF1602BD86CB67FF37398E2840BF1602BD86CB602528
S12341E034398E2780BF16027ED3178E2700BF1602BD86CB7F723C7C1603BD93807C160319
S1234200BDBEB47C16037ECA848E2680BF1602BD86CB6B1837398E2600BF1602BD86CB6AFB
S12342205C367C1603BD86CB4B9B38398E2580BF1602BD86CB584E387C1603BD86CB5C56A3
S123424038398E2540BF1602BD86CB67243A398E2500BF1602BD86CB6AA9367C16037EB26D
S12342605C8E2400BF16027ED5928E23C0BF16027EDBD98E2300BF1602BD86CB64FB353993
S12342808E22C0BF1602BD86CB4C7F397C1603BD86CB78943C7C1603BDB0927C1603BDB040
S12342A0B77C1603BDB0DC7C1603BDB1017C1603BDB1267C1603BDB1487C1603BDB2D37C9A
S12342C016037EB3AA8E2240BF1602BD86CB70DB37398E21C0BF1602BD86CB456B387C1688
S12342E003BD86CB5D4A387C1603BD86CB5A7C3A7C16037E9E5A8E2180BF1602BD86CB7C7C
S12343001D3C5D2702C601398E2100BF1602BD86CB5D3A387C16037E98BA8E2040BF16022D
S1234320BD86CB4B9E38398E1FC0BF16027EC8C58E1F80BF1602BD86CB4C83377C1603BD58
S123434086CB5723377C1603BD86CB5842377C1603BD86CB7628377C1603BD86CB4CAD3699
S12343607C1603BD86CB5288367C1603BD86CB5720367C1603BD86CB5AE8367C1603BD8643
S1234380CB5EA2367C1603BD86CB625B367C1603BD86CB65FF367C1603BD86CB695E367C29
S12343A01603BD86CB6AC4367C1603BD86CB503B357C1603BD86CB6525357C1603BD86CB06
S12343C047D5347C1603BD86CB4F7A397C16037EC8378E1F00BF16027EB2C18E1E40BF169C
S12343E002BD86CB5C0F387C1603BD86CB6A13387C1603BD86CB4038397C1603BD86CB4C6B
S12344007F397C1603BD86CB4F7B397C16037EBEA08E1E00BF1602BD86CB582B377C1603E9
S1234420BD86CB5C87387C1603BD86CB6A25387C1603BD86CB7FB13C7C1603BD86CB5041A2
S123444039398E1DC0BF1602BD86CB5765387C1603BD86CB5EEF387C16037ECB3C8E1D8035
S1234460BF16027EDA098E1D40BF1602BD86CB41D1347C1603BD86CB475334398E1CC0BF17
S12344801602BD86CB441D38398E1C80BF16027ED51E8E1C00BF1602BD86CB47C934398E14
S12344A01BC0BF16027ED2E68E1B80BF1602BD86CB5850385D2702C601398E1B40BF1602DC
S12344C07EDCD88E1A00BF1602BD86CB650A35398E1980BF1602BD86CB5C9E387C1603BDAC
S12344E086CB7D373C7C1603BD9B5D7C16037EAEB38E1900BF1602BD86CB4C73377C1603A2
S1234500BD86CB5713377C1603BD86CB7618377C1603BD86CB4C9D367C1603BD86CB527851
S1234520367C1603BD86CB56F2367C1603BD86CB5AC9367C1603BD86CB5E83367C1603BD18
S123454086CB623C367C1603BD86CB65E0367C1603BD86CB6A99367C1603BD86CB651535E6
S12345607C1603BD86CB47B9347C1603BD86CB6C6C387C1603BD86CB48D6397C1603BD86DB
S1234580CB78943C7C1603BD8DB67C1603BD91D57C1603BD96BF7C1603BDB0927C1603BD2A
S12345A0B0B77C1603BDB0DC7C1603BDB1017C1603BDB1267C1603BDCE5D7C16037ED7948A
S12345C08E18C0BF1602BD86CB6A2638398E0E40BF1602BD86CB6A2638398E1800BF16024C
S12345E0BD86CB5D78387C1603BD86CB64AA38398E17C0BF1602BD86CB474836398E16C0CE
S1234600BF1602BD86CB46E637398E1640BF1602BD86CB4C6D377C1603BD86CB570D377CA2
S12346201603BD86CB7612377C1603BD86CB4C97367C1603BD86CB5272367C1603BD86CB94
S1234640571A367C1603BD86CB5AE2367C1603BD86CB5E9C367C1603BD86CB6255367C16A5
S123466003BD86CB65F9367C1603BD86CB6ABE367C1603BD86CB650F357C1603BD86CB475A
S1234680CF347C16037E9B808E15C0BF1602BD86CB577438398E1580BF16027EB2528E1443
S12346A080BF1602BD86CB64F635398E1400BF1602BD86CB441338398E13C0BF1602BD86FF
S12346C0CB4285387C1603BD86CB54BB387C1603BD86CB64AB387C1603BD86CB6A27387C50
S12346E01603BD86CB5B00397C1603BDB67A7C1603BDB6CC7C16037EC8318E1380BF1602A1
S12347007EC8AE8E1300BF1602BD86CB4200385D2601397C1603BD86CB5988385D27F3C6EB
S123472001398E12C0BF1602BD86CB441838398E1280BF1602BD86CB5CAE387C1603BD860A
S1234740CB6A1B387C1603BD86CB6C8D387C1603BD86CB77E53C398E1240BF1602BD86CBC0
S12347606BF6387C1603BD86CB7C9D3C398E11C0BF1602BD86CB570737398E1100BF1602E3
S1234780BD86CB6A3636398E1080BF16027ED2B98E1040BF16027ED8B18E0FC0BF1602BD4D
S12347A086CB4002377C1603BD86CB4CA3377C1603BD86CB5743377C1603BD86CB588D372F
S12347C07C1603BD86CB5AC7377C1603BD86CB64BF377C1603BD86CB65B0377C1603BD8616
S12347E0CB67FC377C1603BD86CB6ABB377C1603BD86CB6EEC377C1603BD86CB705B377CFC
S12348001603BD86CB764B377C1603BD86CB4C8E367C1603BD86CB52B3367C1603BD86CB41
S1234820575E367C1603BD86CB5B14367C1603BD86CB5ECE367C1603BD86CB6287367C16E8
S123484003BD86CB662B367C1603BD86CB69AC367C1603BD86CB4B36357C1603BD86CB543E
S1234860FB357C1603BD86CB6389357C1603BD86CB4011347C1603BD86CB48C1347C1603A3
S1234880BD86CB5DB6347C1603BD86CB5D07387C1603BD86CB6A17387C1603BD86CB6C5EB7
S12348A0387C1603BD86CB4031397C1603BDD6467C16037EDED08E0F80BF16027ED9358E32
S12348C00F40BF1602BD86CB526C36398E0F00BF1602BD86CB5AC9395D2702C601398E0E73
S12348E0C0BF1602BD86CB462F377C1603BD86CB4C91377C1603BD86CB5731377C1603BDF8
S123490086CB5AD4377C1603BD86CB64BF377C1603BD86CB65B0377C1603BD86CB6AB037FD
S12349207C1603BD86CB6ED3377C1603BD86CB7064377C1603BD86CB7636377C1603BD864C
S1234940CB4897367C1603BD86CB52A1367C1603BD86CB6863367C1603BD86CB6A26367C1E
S12349601603BD86CB54ED357C1603BD86CB401D347C1603BD86CB47EE347C1603BD86CBB3
S12349805DC7347C1603BD86CB4BE8387C1603BD86CB5B00387C1603BD86CB5E72387C163A
S12349A003BD86CB6C65387C1603BD86CB7FB13C7C1603BD86CB405D397C1603BD86CB4866
S12349C0D6397C1603BD86CB4C7F397C1603BD86CB4F3D397C1603BD86CB78993C7C160330
S12349E0BD91D57C1603BDAE7E7C1603BDB08B7C1603BDB0B07C1603BDB0D57C1603BDB0FA
S1234A00FA7C1603BDB11F7C1603BDCE5D7C1603BDD36A7C16037EDEA48E0E80BF1602BD25
S1234A2086CB63B0387C1603BD86CB6A26387C1603BDA8677C1603BDB24B7C1603BDB2D3E4
S1234A407C16037EBEA0CC0040FD1602BDB0927C1603BDB0B77C1603BDB0DC7C1603BDB127
S1234A60017C1603BDB1267C1603BDB1487C1603BDB24B7C1603BDB2D37C16037EB3AA8E99
S1234A800E00BF1602BD86CB625335398E0DC0BF1602BD86CB69E837398E0D00BF1602BDCC
S1234AA086CB4C9136398E0CC0BF1602BD86CB59EE38398E0C80BF1602BD86CB46A3373906
S1234AC08E0BC0BF1602BD86CB440E38398E0B80BF1602BD86CB698337398E0B00BF160207
S1234AE0BD86CB650535398E0AC0BF16027EB2B18E0A80BF1602BD86CB55CF37398E0A4053
S1234B00BF1602BD86CB6A8936398E09C0BF1602BD86CB5C5A38398E0940BF1602BD86CB2B
S1234B206A41367C1603BD86CB4480387C1603BD86CB4BE8387C1603BD86CB5984387C1699
S1234B4003BD86CB5C19387C1603BD86CB5E79387C1603BD86CB63B8387C1603BD86CB4CFC
S1234B607F397C1603BD8DB67C1603BDA9AB7C1603BDB1D07C16037EBE968E0880BF160217
S1234B80BD86CB672237398E02C0BF1602BD86CB4399377C1603BD86CB6A6B367C1603BDC2
S1234BA086CB4FC935398E0780BF1602BD86CB4399377C1603BD86CB6A6B367C1603BD8687
S1234BC0CB4FC9357C1603BD86CB4001387C1603BD86CB4193387C1603BD86CB44A1387CB2
S1234BE01603BD86CB450E387C1603BD86CB4B90387C1603BD86CB6ECF387C1603BD86CB8E
S1234C007EBB3C7C1603BD86CB5A9D3A398E0700BF1602BD86CB5B9038398E0640BF16028D
S1234C20BD86CB5B2C38398E0580BF1602BD86CB5D8E385D2702C601398E0500BF1602BDA2
S1234C4086CB44CB377C1603BD86CB6A7A367C1603BD86CB4FC9357C1603BD86CB400138F0
S1234C607C1603BD86CB41B0387C1603BD86CB448E387C1603BD86CB44FA387C1603BD86C6
S1234C80CB4B90387C1603BD86CB5C2F387C1603BD86CB6ECF387C1603BD86CB7ECA3C7C11
S1234CA01603BD86CB5AAB3A398E04C0BF1602BD86CB5A5938398E0400BF1602BD86CB7D02
S1234CC0DF377C1603BD86CB6A5C36398E03C0BF1602BD86CB4225387C1603BD86CB7EE804
S1234CE03C7C16037ED2C08E0300BF16027ED3008E0280BF1602BD86CB7EB53C7C1603BD60
S1234D0086CB78933C398E0240BF1602BD86CB629C357C1603BD86CB41D938398E0200BF59
S1234D201602BD86CB5B04387C16037E9DE68E01C0BF1602BD86CB553535398E0180BF160C
S1234D4002BD86CB5A0B38398E0140BF1602BD86CB5ABD38398E0100BF1602BD86CB704009
S1234D60377C1603BD86CB41EC387C1603BD86CB4BB9387C1603BD86CB584F387C1603BD3D
S1234D8086CB4F3339398E00C0BF1602BD86CB44F6387C1603BD86CB46F7387C1603BD8635
S1234DA0CB4C11387C1603BD86CB55EB387C1603BD86CB5C19387C1603BD86CB69C7387C9D
S1234DC01603BD86CB6C1F387C1603BD86CB6C58387C1603BD86CB48D0397C1603BD86CBAF
S1234DE0502B397C1603BD86CB788F3C7C1603BD904D7C1603BD91657C1603BD91C07C1669
S1234E0003BD93977C1603BD9B637C1603BDA9BC7C1603BDAE697C1603BDB0827C1603BD5E
S1234E20B0A77C1603BDB0CC7C1603BDB0F17C1603BDB1167C1603BDB1457C1603BDB1539F
S1224E407C1603BDB2CA7C1603BDB3AA7C16037ECE5DCC0000FD1602BD86CB65003539D2
S9030000FC
