S1234000388E4009C61C7EB048327FC603E7E4C604BD9034C64BBDCD0E5D2712C649BDCDCD
S12340200E5D270A6AE426E7BD86CB43083B7E8F8DFB0F12C1EF221CC105230C7F0F127F39
S12340400CABC601F70F1339F70F127F0CABC601F70F1339C605F70F127F0CABC601F70F3F
S12340601339327FE7E4272F7F0F13C60FBD90347D0F132622C60FBD90347D0F132618C647
S12340800FBD90347D0F13260EC60FBD90347D0F1326046AE426D4326139BD4062C6017EE2
S12340A04031C63CBD903420F9C606BD90347F0F12F60F124F58491F01AD9941CDF60F1270
S12340C0C10126F0BD86CB41853BF60F1220E58E0000BDC7695F7E409AF61828C101270187
S12340E0398E18F3BD573DC6037E409AF61853C10127045F7E409ABD6976C603BD4062BDF2
S12341006946C603BD4062BD6916C603BD40625F7E409A7D181E2708BD6A9BC603BD4062DD
S12341205F7E409ABD86CB46EB39BDBA5DC6037E409A327E8E002EAFE4BDB869AEE4BD919A
S12341404BBDBA39C604BD9034ECE4C30002EDE41083003C26E38E56C2BDB8AAC6033262B5
S12341607E409ABDB8CCBD86CB4BFC39BDBA5DF6182AC1012705C6057E409AC6787E409A61
S1234180C61DBD8E408C00002701398E41C5C61D7E8DEF327FBD95A0E7E4C1012703326162
S12341A039BD41807D0F1326F5E6E432617E4031BD95A0C101270139BD41807D0F1326F7EF
S11C41C0C6FF7E4031C61EBD90197E8F8D41634124411340EC40D940CF99
S12341D98E4269BD94345D2605C6047EC2F1C6047EC36A8E4269BD957AC6078E42697E94EF
S12341F99C8E42697E941BC61BBD8F4B5D26108E4269BD941BD709C601D7080D09270AC65D
S123421917BD972CBD58A10F08D60839F60F67C1012301398E4269BD941B5D27F68ECEA35D
S1234239AFE38E01A4C61BBDCE8D3262398E42697E956A8E42697E956A0D1F2701398E420D
S1234259697E94CFC605BDC028C606BD903420F4931B931B931BCEBF00000000001E03036B
S10542790F141C
S123427B7F18EB7F18ED7F18EC398E444E7EBB6D3420108E3FFDC6B4E7A47F18EB7F18ED5E
S123429B8E444EBDB7596FA435A03420108E3FFDC6B4E7A47F18EC7F18EB7F18ED8E444E4E
S12342BBBDB7596FA435A08E444EBDB7A47D18EC260139C6B4F73FFD7A18EC8E444EBDB752
S12342DB597F3FFD398E444EBDB7A4C6017D18492605F618EC260139C601397D002027014B
S12342FB39C6057E97B2F618ECF11848250139C6B4F73FFD7C18EC8E444EBDB7597F3FFD55
S123431B7E42F6327CE7E48E444EBDB7A4F618ECF1184810240091C6B4F73FFDF618EBEB76
S123433BE4F718EBF6183FD70A2742F618EDEBE4D708D60AD10810220082F61840E761F647
S123435B18ECD709D60A50E762D608D00AD708D609EB61D709D608E763EB62D708DB0AD135
S123437B0A24ECD609F718ECE663F718ED7F3FFDF618EBF1183E2533C6B4F73FFDF618EBEC
S123439BF0183EF718EB7F3FFDBD43018E186EBDB718F618EBF1183E24DEBD86CB45C03BD2
S12343BB8E444E32647EB759326439BD86CB45CD3BBD42F68E444E32647EB759D608F7184A
S12343DBED7E43883440327DE762C61FBD8F4B5D261DE6624FEDE41F01E689183ABD431E99
S12343FBECE45849CE186630CBBDB718BD5D6E326335C0C6037E43DFC6027E43DFC6017E32
S123441B43DF5F7E43DF7D00202606BD42E05D260AC63FBDC0B4C63F7EC0C80D1D260AC6C6
S11F443B3FBDC115C63F7EC0C8C63FBDC0B4C63F7EC1530518EB03000001427BEE
S10618EB000000F6
S1234457F63D61C4022709F63D608E931CBF0BF339F63D61C40226078E932ABF0BF3397FAA
S12344773D608E931CBF0BF3397F0F15CC0000FD0F16C6227E8F4BBD95A0C1012701397CEF
S12344970F158E44E0C6227EB048BD95A0C101270139F60F154F4FC40FDD08FC0F16584986
S12344B75849584958499E083410AAE0EAE0FD0F167F0F151083000027D78E44E0C622BD13
S12244D7B048BD86CB40463B39C605BD90197F0F15CC0000FD0F16C622BD8F4B7E8F8DE7
S12344F67F0F18397D0F18270EF60F1A5AC41FF70F1AC601F70C8F397D0F18270EF60F1AE4
S12345165CC41FF70F1AC601F70C8F398E452FC623BDB05AC6187E9782C61EF70F188E20B9
S123453620BF0F1BBF0F1D7F0F19F70F1AC640BD9034F60F185AD708F70F18C601F70C8F52
S12345560D0826E97E8F8DC63CBD9034C623BD8F4B7F0F183934207D0F182733F60F19D75A
S123457608C102222A4F1F02F60F1ACB024F4FC41F1F01E68946D7E7A90F1BC601F70C8F6E
S1234596D6085CF70F19C1032707C61EF70F1835A035207E455D454E54455220494E495498
S12345B649414C53002531327300252A7300256400327D2005C604BD90347D0020260CC6BE
S12345D623BD8E408C0000102700EE7D0C8F27E5BDB8CC8E42B09F14CC0001DD168E45AC8B
S12345F6BD9B268E48C89F14CC0009DD168E0F1BBD9B26F60F1AD708C1141022005C4FC361
S123461646D734068E45BBAFE3BDAA0E8E4D899F14CC0017DD168E0C56BD9B2632648E39DC
S123463661E684CB80E784E601C87FE7013088108C39F126ECF60F18E7E28E45C4AFE3BD6D
S1234656AA0E8E4B649F148E7E039F168E0C56BD9AF2BDBA5D32637E45CBC620D008E7E41B
S1234676D6084FC346D73406E66234048E45C0AFE3BDAA0E8E4D899F14CC0017DD168E0C38
S123469656BD9B26C60CE065E7678E46D7AFE334048E45C0AFE3BDAA0E8E4D899F14C60CCF
S12346B6E06C585858E76C1F985FCA17DD16326A8E0C56BD9B267E4634C61EBD90347E99D1
S12346D62A4142434445464748494A4B4C4D4E4F505152535455565758595A202A2F2D2BE6
S10446F600BF
S12346F7327FF63FE7E7E4C63CE4E45454E7E4F118EE260653F118EF2719E6E4BD86CB64E0
S12347179F3CC6B4F73FFDE6E4F718EE53F718EF7F3FFD3261394F58491F01AE894826AFF3
S1234737E3BDAA0E32623925732025642C20256C6400256420257320256C6400D708F61874
S123475727C10127203410E66434040A08D6084F58491F01AE894881AFE38E473EAFE3BD54
S1234777AA0E32673934100A08D6084F58491F01AE894881AFE3E66634048E4749AFE3BDCD
S1234797AA0E326739C60FE7E28E07DCC60ABD47533261395553412F43414E414441203171
S12347B7004652414E4345004745524D414E59004652414E43452032304600494E56414C2B
S12347D74944004745524D414E592032004652414E43452033004558504F5254004652410F
S12347F74E4345203400554E49544544204B494E47444F4D004555524F5045005350414985
S12348174E005553412F43414E41444120320047AB47B847BF47C747D247D247D247DA4775
S1234837D247E447ED47F447FD480C481348194A414E2E004645422E004D41522E004150FC
S1234857522E004D4159004A554E2E004A554C2E004155472E005345502E004F43542E006D
S12348774E4F562E004445432E004846484B48504855485A485E48634868486D48724877DB
S1054897487C57
S10518EE0000F4
S1234899327DD70AF61606E7621027005FF60F20D7088E160B0F096A62E66286053DC316FA
S12348B910EDE420063005ACE4270EE684D10826F40C093005ACE426F2D609D708D60AC12C
S12348D9022713C1012714D6094FC3FFFF1F894F5959C401D708D608326339D609D7080DCF
S12348F90927F3D60AD708D6083263390F090F0820CB4D41544348002532620025303258EE
S123491900327AC60CBDB85BBDB8DB8E4B649F148E7E019F168E490BBD9AF27D1606273708
S12349396F626F63E66286053DC3160B34068E4911AFE3BDAA0E8E42B09F14E6674FDD16D8
S12349598E0C56BD9B266C66E667CB06E7673264E662F1160625CF6FE4C6FFE761C60ABDC2
S1234979937058585858E765E16127F1BDB8CCBD86CB5A8739E66534048E4915AFE3BDAA40
S12349990E8E4B649F148E7E169F168E0C56BD9AF2BDBA5DC606BD90346C633263E6E4C1DC
S12349B913223EE665E761E6E4C11326B0F60F20E764BDB8CCBD86CB5A8739E66434048E77
S12349D94915AFE3BDAA0E8E4B649F148E7E169F168E0C56BD9AF2BDBA5DC606BD90343202
S12349F9637D0F1F2608C678BD90347E992ABD86CB40613B20F08E187CBDB718BD4301BDF8
S1234A1969CB39344032777D18232604326935C0C664BD9370E763F61606B618233DE762C0
S1234A397F0F200F0A6F646F656F666F6720020C0AD60AF116062419D60A4FEDE4584958E5
S1234A5949EEE430CBE667E189160B26E26C6420DEE663E162102500766F686D642608C6A2
S1234A7901E768E1652225E668E1652718F60F20D708D608CB10E767C1902225F70F200F91
S1234A990A6F6420ACBD9348C18023E1F60F20D708E766E668E765D608CB10E767C190230D
S1234AB9DBE666F70F20F61606272D8E160B0F085A86053DC31610DD09200A3005DE0934F5
S1234AD940ACE12715E666E18426F00C0820ECE6641027FF8C7E4A780F08D608F70F1FC69D
S11E4AF90FBD9782F60F1F1027FF215AF70F1FBD4A0FF60F1F26F4326935C0DB
S1234B14327D8E0000AF61AE61E6898000D709273C1F10585858D7080F0AD609C401271CD9
S1234B34D608C407F73FF7F63FF7E7E4D6085454544F1F01E6E4E58900A42625D60954D716
S1234B5409270A0C0A0C08D60AC10826CDEC61C30001ED611083000A26ADC60232637E9003
S1234B74343263390D1D27040D1F270139C6008E0CE9BDBFCE5D27F4BD591439F61834C1C8
S1234B94012701397E4B787E4B78F61835C1012701398E4BAEC62A7EB05AC612BD9019BDB9
S1234BB44B787E8F8DC62ABD8F4BC629BD8F4BC6008E0CE97EC04AC616BDCD0E5D26088E15
S1234BD44BEBC6297EB05AC629BD8F4BC6008E0CE97EC0CE7E4BCB5FBD8E72C6F0BD90344E
S1234BF4C6008E0CE9BDC04A7E8F8D7F0F217F0F227F0F23C601F70F257F0F24397F0F2157
S1234C147F0F227F0F23C601F70F257F0F2439327DAFE4F6185CE762BD885C1F10E06250E7
S1234C34BD4D5AAEE4BD4D77C60A32637E4CCE505245535320454E54455200464F52204E68
S1234C5445585420504147450050414745207E007D0F25271E7F0F257C0F23F6185EC101CE
S1234C742712BE0F26BD4D778E4C5DBD4C23C60A7E4CCE39BDB8CC8E42B09F148E400B9F7F
S1234C94168E4C43BD9B028E42B09F148E40159F168E4C4FBD9B02BDBA5D2005C604BD9011
S1234CB434C607BDCCFC5D27F32005C604BD9034C607BDCCFC5D26F320A8327FE7E4200D36
S1234CD4E6E4C17E2615F60F23CB30E7E47D0F2527EEBD4C64E6E4C17E27EBF73FC17F3F87
S1234CF4C21212121212121212C601F73FC2E6E4C10A27207C0F22C10C270BF6185DF10F98
S1234D142127033261397F0F227F0F21C601F70F253261397F0F227C0F21C601BD90342083
S1234D34DA327FE7E46D632709E6E4BD4CCE6A6326F7326139F6185CE7E2C62DBD4D353217
S1234D5461C60A7E4CCE327FE7E4F10F222407C60ABD4CCEE6E4F00F223404C620BD4D35BA
S1234D74326239327EAFE47D0F24260E2024BD4CCEECE4C30001EDE41F01F60F24BD8721F9
S1234D945D26EB326239BD4CCEECE4C30001EDE41F01E68426F03262392530326400346098
S1234DB4327CEE6ABD4D77C60ABD4CCEBD4D49C601E7627E4E2BE66234048E4DADAFE3BDFC
S1234DD4AA0E8E0C56BD4D77C605BD4D5AC63AF70F2430C4BD8733BD4D777F0F243043C662
S1234DF43ABD8733AF6332638C000027213042C63ABD8721E763C61EBD4D5AE66310AEE41B
S1234E14AEA4BD86CB5D183C8E0C56BD4D77C60ABD4CCE33456C62C63A30C4BD87338C0014
S1234E34001026FF91326435E04155444954205245504F5254004D41494E204155444954BA
S1234E5453004541524E494E475320415544495453005354414E44415244204155444954BE
S1234E7453004645415455524520415544495453007F0F217F0F227F0F23C601F70F257F50
S1234E940F248E1925BD54658E4E3DBF0F268E686DAFE38E4E4ABD4DB2C60ABD4CCE8E6903
S1234EB40DAFE38E4E56BD4DB2C60ABD4CCE8E6A5DAFE38E4E66BD4DB2C60ABD4CCE8E6A22
S1234ED4EEAFE38E4E76BD4DB23268C60C7E4CCE327CAFE4F6185C4FED62BD885CEC6234BC
S1174EF410A3E14456BD4D5AAEE4BD4D77C60A32647E4CCE03
S1234F08465245455750432028432920434F505952494748542032303132005448495320AF
S1234F28534F465457415245204953204E4F5400535550504F525445442042592042414CBD
S1234F484C592F57494C4C49414D53005757572E4F44444348414E47452E434F4D2F46528B
S1234F6845455750430044454D4F4C4954494F4E2054494D4500320030005225732E25735C
S1234F880054455354494E472E2E2E00BDB8CC8E42B09F148E40039F168E4F08BD9B028E96
S1234FA842B09F148E400B9F168E4F23BD9B028E42B09F148E40119F168E4F38BD9B028E94
S1234FC842B09F148E40199F168E4F54BD9B02BDBA5DC6B4BD9034BDB8CC8E42B09F148E28
S1234FE801019F168E4F6EBD9B268E4F7EAFE38E4F80AFE38E4F82AFE3BDAA0E8E42B09FC4
S1235008148E7F019F168E0C56BD9AF2BD479C8E42B09F148E01099F168E0C56BD9B268E58
S123502842B09F148E011A9F168E4F89BD9B26BDBA5DC6B4BD903432667D0CD7270AC604BB
S1235048BD90347D0CD726F6BD64077E992ABDBC008E001EAFE35F8E1600BD87D5BD86CBFD
S123506844D03B8E190CBD546532623946524545575043005741524E494E472E2E2E2042D1
S1235088414C4C5920574D5300444F4553204E4F5420535550504F52540054484953205377
S12350A84F46545741524500505245535320454E544552004E4F2057415252414E5459204C
S12350C845584953545300524F4D204D41592043415553452044414D41474500544F20528A
S12350E845414C204D414348494E4500494620594F5520415245205355524520594F55009D
S123510857414E5420544F20434F4E54494E554500505245535320454E54455220545749C2
S1235128434500BE18F08C19752609F618F2C1B9102701B0BDB8CC8E42B09F148E40039F86
S1235148168E5074BD9B028E42B09F148E40099F168E507CBD9B028E42B09F148E400F9F5F
S1235168168E5091BD9B028E42B09F148E40159F168E50A2BD9B028E42B09F148E401B9FE4
S1235188168E50B0BD9B02BDBA5D2005C604BD9034C607BDCCFC5D27F3C607BDCCFC5D2722
S12351A80DC604BD9034C607BDCCFC5D26F3BDB8CC8E42B09F148E40039F168E5074BD9B1F
S12351C8028E42B09F148E40099F168E50BCBD9B028E42B09F148E400F9F168E50CFBD9B44
S12351E8028E42B09F148E40159F168E50E4BD9B028E42B09F148E401B9F168E50B0BD9B03
S123520802BDBA5D2005C604BD9034C607BDCCFC5D27F3C607BDCCFC5D270DC604BD903445
S1235228C607BDCCFC5D26F3BDB8CC8E42B09F148E40039F168E5074BD9B028E42B09F14C1
S12352488E40099F168E50F4BD9B028E42B09F148E400F9F168E5108BD9B028E42B09F1451
S12352688E40159F168E5119BD9B02BDBA5D2005C604BD9034C607BDCCFC5D27F3C607BDA1
S1235288CCFC5D271AC604BD9034C607BDCCFC5D26F3C607BDCCFC5D261AC604BD9034C689
S12352A807BDCCFC5D27F3C607BDCCFC5D270DC604BD9034C607BDCCFC5D26F3BDB8CCBDEB
S12352C8BA5DC63CBD9034C6B4F73FFDC619F718F0C675F718F1C6B9F718F27F3FFDBD501A
S12352E8567EBE0B39464143544F52592053455454494E475300524553544F52454400BDFE
S123530886CB48CC3B5D270139C613BD97D1BDB8CC8E42B09F148E400A9F168E52EDBD9BFF
S1235328028E42B09F148E40149F168E52FEBD9B02BDBA5DBD5056C6F0BD90347EBE0BBDEB
S1235348512BC613BD972CBD4B14BD53077C0CD6C604BD9034BD86CB40703B8E1892BDB7EB
S1075368187E9ECB3E
S10618F0000000F1
S123536CE601D708272CE602D7092726E684C1322220D609C11F221AD608C10C2214E6038B
S123538CC117220E0F08E604C13B2208C601D70820020F08D60839327FE684E7E45454D773
S12353AC08E601D70AE6E4EB02DB08D7090A0AD60A4F1F010C0AD609EB895842D709C60384
S12353CCE4E42608D60AC10222020A090A09CC0007EDE3D6094F1F01BDE38A1F10326339C2
S12353EC7F18F3C601F718F4F718F57F18F67F18F77F0F2839BE18F3BF0F29FC18F5FD0F66
S123540C2BF618F7F70F2D7F0F2E39F60F2E5CC10423047F0F2E39F70F2E39327E8E192FC1
S123542C8C18F82331CC18F8EDE4200DECE4C30005EDE41083192F271DAEE4BD536C5D2679
S123544CEBC6B4F73FFDAEE4CC0000ED81ED816F847F3FFD20D63262393460108E3FFDC6C5
S123546CB4E7A4FE18F3EF81FC18F5ED81F618F7E7846FA435E0D708C6FFF70F2E0D082741
S123548C0139C6B4F73FFDBE0F29BF18F3FC0F2BFD18F5F60F2DF718F77F3FFDF618F6F727
S12354AC3FFAF618F7F73FFB8E18FDBD5465398E57A97EBB6DC6B4F73FFDE603C117231442
S12354CCCBE8E703F63FFACBE8F73FFA6C02E603C11722ECE602D70AE6015AD7088E57D72B
S12354EC3AE684D7090C08EC848403108300022727D60AD109230BC601E702E6015CD70870
S123550CE701D608C10C2306C601E7016C848E57A9BDB7597F3FFD390C0920D5D708F60FE3
S123552C2EC10422244F58491F016E99553A5544556E55815592555B0D0810260082F60FE1
S123554C2AC10123045AF70F2A8E0F297E54C10D082754F60F2DC13A102300765AF70F2D52
S123556C20330D081026005EF60F2BC10123DA5AF70F2B20D40D082735F60F29C162235874
S123558C5AF70F2920C30D08272FF60F2CC116233B5AF70F2CF618F6F73FFAF618F7F73FC3
S12355ACFB8E0F297E54C1F60F2D27E920AEF60F29C1081023FF9220C7F60F2C27D720D1B5
S12355CC7C0F2A7E55557C0F2B7E55555CF70F2C20C35CF70F2D20BD5CF70F297E5555BEB2
S12355EC18008C07D92328C6B4F73FFDF61801CB30F718F3F61802F718F4F61803F718F5EB
S123560CCC0000FD18007F3FFD8E18F3BD54C1C6FFF70F2E39414D00504D0025643A2530FE
S123562C326420257300253032643A25303264003440F61826C101272AE603D708CE562431
S123564CC10B2203CE56213440E604E7E2D6088E582A3AE68434048E5627AFE3BDAA0E32CF
S123566C6635C0E604E7E2E603E7E28E5632AFE3BDAA0E326435C03440327E9F08E6844F2E
S123568C1F0330C907D0DE08E642E7E2E641BD4753326335C02573003440327EAFE4BD53CA
S12356ACA34F58491F01AE89581CAFE38E56A1AFE3BDAA0ECE42B0DF148E40079F168E0C87
S12356CC56BD9B02E6F8044F1F0330C907D0EE64E642E7E2E641BD47538E42B09F14CE40E5
S12356EC10DF168E0C56BD9B02AE65BD563C8E42B09F143349DF168E0C56BD9B02F60F2EC8
S123570C3265C1FF27274F58491F01AE8957CDAFE38E56A1AFE3BDAA0ECE42B0DF148E0109
S123572C019F168E0C56326635407E9B26326235C0327EAFE4BDB8CCAEE4BD56A432627EFF
S123574CBA5D54494D4520414E4420444154450A4E4F54205345540A007D18F3270139C602
S123576C388E574EBD645639C6B4F73FFDF63FFAF718F6F63FFBF718F78E57A9BDB7597F0D
S123578C3FFD8E18F3BD54C1F60F28F118F72709BD86CB4CF03BF618F7F70F28390C18F3ED
S12357AC0500000153EC4D4F4E544800444159005945415200484F5552004D494E555445EF
S12357CC0057B257B857BC57C157C61F1C1F1E1F1E1F1F1E1F1E1F53554E444159004D4F7C
S12357EC4E4441590054554553444159005745444E45534441590054485552534441590036
S123580C4652494441590053415455524441590057E357EA57F157F95803580C58130C0102
S123582C02030405060708090A0B0C0102030405060708090A0B00030306010406020500AB
S105584C03054E
S10818F30000000000EC
S12318F80000000000000000000000000000000000000000000000000000000000000000CC
S11A19180000000000000000000000000000000000000000000000B4
S123584E3939C6008E0CE9BDBFCE5D27050F08D60839C62DBD8E409F081F10405082001FF5
S123586E01DC083410AAE0EAE01F894F5959C401D708C601D008D708D60839F10F6722012D
S123588E39F70F2F8E58ABC62E7EB048FB0F67BD588939BD9C238E0F59BD60DE39327DF6FA
S12358AE0F67E761F60F2FCB02D708E061E762D608CBFED7086D622745E661D108243FC6A4
S12358CE00E7E46A62F60F5DF10F602434BD86CB400D3BC696BD90342005C608BD9034E638
S12358EEE48E0CE9BDBFCE5D26F0F60F676D62270DE1612302E761E661F10F2F25C57E8FE7
S123590E8DBD58A120CD8E594AC62D7EB05AC616BDCD0E5D260139BD6C3F7D0C4627F77D96
S123592E0F3226F2C6018E0CE9BDBFCE5D26E7C60CBD90348E594AC62D7EB05AC616BDCD99
S123594E0E5D2715C602BDC6DFC6B4BD9034C616BDCD0E5D26EE7E8F8DC61EBD903420E481
S119596E7F0C46BD86CB431A3BBD86CB48CC398E0F59BD60DE3923
S12359847F0F3039F60F304FC3FFFF1F894F5959C40139C6018E0CE9BDC04A0D1D271F0D8E
S12359A41F261B7D18382716F60F30F10F672708BD5889C617BD972CBD6CA57F0F3039C624
S12359C4018E0CE9BDC0CE0D1D27040D1F27067D00202711397D183827F5F60F67F70F30A9
S12359E4BD6CA020EAC6167E972C8ECEA3AFE38E012CC62FBDCE8DC611BDCD0E32625D26D0
S1235A04037E59C37E5997327F7D0020263EBD86CB46FA3B6FE4C606BDCCFC5D2715C60332
S1235A24BD90346CE4E6E4C1082716C606BDCCFC5D26EB326139BD86CB46FA3BC606BD9090
S1235A4434C606BDCCFC5D26ED326139BD86CB5B043A326139327F7D0020263EBD86CB4307
S1235A64273B6FE4C605BDCCFC5D2715C603BD90346CE4E6E4C1082716C605BDCCFC5D2643
S1235A84EB326139BD86CB43273BC606BD9034C605BDCCFC5D26ED326139BD86CB5AB93A60
S11C5AA43261397D0020270139BD43018E1870BDB7188E192ABD546539F8
S1235ABDBD95A0C1132720BD95A0C11027317D100827040D1D26187D0F1826087D002026E0
S1235ADD077E9E5ABD456B39BD86CB5A7C3A390D1F26E47D0C4627DFBD86CB78A93C39BDBF
S1235AFD5D4A397F0F3139327FC600E7E40D1F26092019C606BD9034E6E4BDBD785D26F358
S1235B1DC607BD97D1C603BDC2F10F1F3261397D182A2708C611BDCD0E5D2708C62FBD8F15
S1235B3D4B5D270139BD9BC18ECEA3AFE38E012CC61FBDCE8DBD86CB40093BC60ABD972CF7
S1235B5DC603BDC3D28E1894BDB71832627D18502615C63CBD9034C61EBD9034C610BDCC48
S1235B7DFC5D26F37EBE0BBD42C220E6C605BD901920F90D1F261C7C0F31F60F31F11812BF
S1235B9D2721C606BD972CC602BDC36ABD86CB40393B39C600D708C678E7E2D608BDBD524D
S1235BBD326139BDC812C61FBDCFFCC607BD972CC603BDC36AC600D708C678E7E2D608BDAD
S1235BDDBD52C601D71FBD9C23BDBC20BD86CB4A463BC601BD8E83C601BD8F108E188ABD45
S1155BFDB71832618E18967EB718C61EBD90347EC29F63
S104000000FB
S1235C0FF60F32FA182AF70F32397F0F32390D1D26057D00202701398E5C32C6357EB048B4
S1235C2F7E5C1D327FC632E7E4C64BBDCD0E5D2713C606BD90346AE426EFC601F70F32C631
S10A5C4F12BD972C7E8F8D1E
S1235C56BD5FE739F60F67C101230A8E1890BDB718BD600339C636BD8F4B5D27EEBD600353
S1235C7639CC0000FD1930FD1932F61817F7192F39F61815C101270139BE19328C003123AB
S1235C96F7CC0000FD193239CC0000FD1930FD1932F61817F7192F393460327AF61815C18B
S1235CB6012704326635E0F6141D4FF31930FD1930CE1934C60AE7E43161200B3341E6E448
S1235CD6C12927215CE7E430A4BD6B73BE0C90AFE330A4BDAE1D32625D2EE16CC43341E610
S1145CF6E4C12926DF7C193326037C1932326635E061
S123192F000000000000000000000000000000000000000000000000000000000000000094
S108194F00000000008F
S1235D077F141C39BD95A0D709C601D708D609C1102707F60F332605D708D60839C60120FA
S1235D27F77F0F33C610BD97D1C63DBDC0B4C63D7EC0C8BD5D0B5D260139BD86CB400E3BEF
S1235D477E5D28BD5D0B5D260139BD86CB400E3B7E5D28C607F70F33C610BD97B2C63DBD17
S1235D67C115C63D7EC0C8BD5D0B5D2601397E5D5ABD5D0B5D260139BD42E05D27F9BD42E5
S1235D87C27F0F347E5D28C601D708F61837D1082703D60839C601F70F34BD5D5ABD5D0BD2
S1235DA75D2714C63CBD9034BD5D0B5D27EF7A0F33BD5D0B5D26ECC63CBD9034BD5D28F61A
S10A5DC70F34D708D6083998
S104141C00CB
S1235DCE6F026F046F056F066F076F086F09CC0000ED0A6F03393440327ED7089F09860CD4
S1235DEE3D1F0133890F35AE4A2704326235C0D608E7C4F73FF7F63FF7E7419E09AF4AE6F8
S1235E0E05E742E606E746326235C08E0F3C6D842609300C8C0F6C26F55F39C601398E0F14
S1235E2E390F0A0F09E684D708D609DB08D709E61CC103270DE602D1082407D00850DB0A08
S1235E4ED70A300C8C0F6926DCD609F70F65D60AF70F68F60F6AD009C1F02204F70F6639B1
S1235E6E7F0F66397F0F677F0F69397F0F677F0F6B393440C605F70F6A7F0F657F0F667F82
S1235E8E0F677F0F697F0F687F0F6B8E0F3FCE83A80F086F1A6F1B6F1D6F1E6F1F6F19D690
S1235EAE08E716F73FF7F63FF7E717EF84E645E718E646E71C0C08300C334ED608C104260E
S1235ECED235C08E6186C60EBDB048C61E7E903450494E42414C4C204D495353494E470A7F
S1235EEE00BD5E2C7D0F66260139C6388E5EDEBD645639C60BBD8E409F081F10405082003B
S1235F0E1F01DC083410AAE0EAE01F894F5959C401FB0F68393440327CAFE4E604E7056DC2
S1235F2E0227316F626F63E6624F1F01EEE41E01E34A1E01E607BDCD0E5D27026C636C62B6
S1235F4EE662AEE4E10225E1E663EEE4EB43E744326435C06F6320F0327F7F0F69C60EBD52
S1235F6E8E408C000027045F326139F60F66E7E4C616BDCD0E5D27026AE46DE427217C0FBD
S1235F8E6BF60F6BC10323057D0F6526128E6186C60EBDB048BD6CB2C611BD972C20C8C621
S1235FAE0120C53440327EAFE4E60327125AE7036A046A05BD5E2C0D1D260D326235C0C6FC
S1235FCE2C326235407EBA99EEE4AE4AAE02C63BAE06326235407E86EEF60F66270F5AF78D
S1235FEE0F667C0F670D1D27040D1E270139BD86CB40403B39F60F67F10F6625105D270CAE
S123600E5AF70F670D1D27040D1E270B39BD86CB403E3B7A0F6639BD86CB40403BBD86CBF6
S123602E47033B5D27E6F60F67FB0F6026037E9D0FC10126D7BD86CB41353B39327F7D0C45
S123604ED626033261395CE7E4BD8E408C000026F2C60BBD8F4B8E6202E6E4BDB0485F32A3
S123606E617E8E6E6C03E684BD604A393440327DAFE4E6845CE762BD8F4BF61008C1012767
S123608E45AEE4E607D708E604D008D709D608DB09E7076F08E684C1032708F60F67DB09D5
S12360AEF70F67EEE4AE4AE606E746BE000CE662E102270E8E6202BDB0485F326335407EC6
S12360CE8E6E326335C0AEE4E607D7080F0920BD327DAFE4E6845CE762BD8F4BF61008D708
S12360EE08C1012732AEE4E607E10427265CE7076F08E684C10327037C0F67BE000CE6629D
S123610EE102270C8E6202BDB0485F32637E8E6E3263390D0827E4AEE4E684C10326DC7C16
S123612E0F66BD5FE720D4E6062605C6177EBA995AE706BD60DE39327EAFE4E606E102246B
S123614E325CE706F61008C1012709E604E10727037A0F677D0F5D260CBD86CB40033B5DC2
S123616E2709326239BD596E326239AEE4BD6135326239C6187EBA9F3440327C6F618E0FC9
S123618E35AF626FE4AE62BD5F23AE62E604E7056F076F086CE4E6E4BD8F4BEE62AE4AE653
S12361AE06E746E1442538EC62C3000CED62E6E4C10426D1C6F0BD90347D0F662606BD5EB6
S12361CE2C7E8F8DC678BD90347D0F6627F0C678BD90347D0F6627E6C678BD903420DF6C37
S12361EE61AE62BD60DEC678BD9034E661C10A27C37E618C3440327EBE000CE6025A860C39
S123620E3D8E0F35338BAE4AE60DBD903430C4BD5F23BD5E2CE649264FE644D708E645D70A
S123622E09D608D1092716102400BF0D1D270EAE4AAE02C63BAE0CBD86EEBD5FE7BD5E2C1E
S123624E6D47260CE644E146230EC601E7476F486D441026005F6F4730C4BD5F23E644E1DE
S123626E451026FFA17E8F8DC10226D1E647D70A27CBE644D709E645D708D609D10810249D
S123628E00B5D608D009E761D10A231FC61BBDBA99E647E76126186F497E624BAE4AAE02EC
S12362AEC63BAE06BD86EE6A476A616D6127E80D1D27F420E77D0F692708E6C4C103102679
S12362CEFF44AE4AAE02C63BAE02BD86EE5D1027FF346D492746BD86CB402C3B0D1D264AA6
S12362EEAE4AE604BDC6A57E6214D608D1091023FF4BD009E7E4BD9C236DE426097E624B8E
S123630E6AE41027FF37BD86CB400C3B0D1D27F0AE4AC63BAE9802BD86EE20E4C602E7496C
S123632EBD86CB402C3B0D1D27B6AE4AAE02C63BAE04BD86EE20A96C480D1D263AE648D7F7
S123634E08C614D709E6C4C1032704C607D709D608D1092716D608C1032208C63CBD9034DF
S123636E7E624BC605BD90197E624BC61ABDBA996F476F497E624BAE4AAE02C63BAE08BDDF
S107638E86EE20B9BA
S1236392F60F6C398E6436C620BDB0482005C606BD9034C620BD8E408C000026F139C601F4
S12363B2F70F6D7E63967F0F6D7E6396327FBDB8D56FE4C60CBD9034BDBA47C606BD9034BF
S12363D2BDBA5D8E03D8BDC8DF6CE4E6E4C10526E2C63CBD903432613950524553532045DD
S12363F24E54455200464F522054455354205245504F5254007D0F6C260139BDB869BDB860
S1236412DB8E42B09F148E400A9F168E63EBBD9B028E42B09F148E40159F168E63F7BD9B8A
S1236432027E63BEC606BD90347F0F6CBD86CB44423B7E8F8D54455354205245504F5254B9
S12364522E2E2E00327DAF61E7E47C0F6CF60F6C7D0F6D2719C1012718E6E4AE61BDC41FF7
S12364728E5652BDB8AABDBA5DC605BD9019326339BDB869BDB8DB8E42B09F148E40069F0A
S10F6492168E6447BD9B02BD63BE20CD86
S123649EF6185BF7161CC6FAF7161D39398E69967EBB6D3460327CE762C10323385CE76369
S12364BE4F584958495849DD08E6624FEDE45849584958498E1954318BDE0830C91954EC69
S12364DEA1ED81EEA1EF81ECA1ED8110AEA410AF84326435E05CE763BD64B1E66320C1346B
S12364FE60327CBE699FBF1954FE69A1FF1956F669A3F71958BE69A4BF1959F669A6F71989
S123651E5B8E69A79F09CE69BBEF620F080C08D6084F584958495849EDE4109E091F033060
S123653EC91954ECA1ED81EEA1EF81E6A4E784EEE430C91959EE62EEC4EF84EE62E642E703
S123655E02DC09C30005DD093343EF62D608C10426BB8E6996BDB759F6185BF7161CC6FA8D
S123657EF7161D326435E0327FE684E7E427158E187EBDB718BD4301BD69CBC63CBD9034DD
S123659E6AE426EB3261393460327FE7E44F5849584958498E1954318BE625C1042304328C
S12365BE6135E05CF70F6FC6B4F73FFD31258E2020AFA4C620E7227F3FFD8E6996BDB7594A
S12365DEE6E4F70F6EC60DBD9782BD4522C6B4F73FFDBE0F1BAFA4F60F1DE7227F3FFD8E32
S12365FE6996BDB759C60EBD972C6DE427176AE4E6E44F1F0330C91857BD6585C65A32617F
S123661E35607E90348E1856BD6585C65A326135607E90343460327AE7644FEDE4584958B0
S123663E49E3E4C31607ED62CE19546F653440AE64BDAE1D32625D2E0E6C653348E665C157
S123665E0526EA326635E0C6B4F73FFDE665BD64B110AE6230C4ECA1ED81ECA1ED81E6A4F8
S123667EE784E664E7457F3FFD8E6996326635607EB759327F7D18532603326139BD86CB78
S123669E40133B5D27F47D160627106FE4E6E4BD66326CE4E6E4F1160625F4C604BD65A5BF
S12366BEC603BD65A5C602BD65A5C601BD65A55F32617E65A5F6161CD7082716F6161D27FD
S12366DE115A2626C6FAF7161DD6085A2710F7161C39F6185BF7161CC6F9F7161D39F61864
S12366FE5BF7161C8E69967EB78DF7161D394752414E44204348414D50494F4E004849478F
S123671E482053434F52452025640041574152442025642043524544495453004157415259
S123673E442025642043524544495400327FBDB8CCF60F6E26508E670CAFE3BDAA0EF6187E
S123675E56E76232628E4B649F148E40099F168E0C56BD9B026DE42722E6E4C10123413460
S123677E048E6729AFE3BDAA0E32638E4B649F148E40169F168E0C56BD9B02BDBA5DC67854
S123679EBD90347E992A34048E671BAFE3BDAA0EF60F6E5A8E18573AE684E763326320A5B4
S12367BEC601E7E28E673AAFE3BDAA0E326320BB504C4159455220256400454E544552206D
S12367DE494E495449414C53003460BDB8CCF60F6FE7E28E67CEAFE3BDAA0ECE4B648E0053
S12367FE14EF84108E00168E4009AFA48E0C56BD9B028E0014EF848E4016AFA48E67D8BDF2
S123681E9B028E5620BDB8AABDBA5DC678BD90347E992A484947484553542053434F52451A
S123683E204154003460BDB8CCCE00148E4B64AFC4108E00168E4008AFA48E6831BD9B02BC
S123685E8E1954BDAE048E48C8AFC48E4016AFA48E0C56BD9B0235607EBA5D25642E2025F4
S123687E63256325630025632563256300327BD708E667E7E4D6084F584958495849C3195B
S123689E54ED630D0826441F01E607E7E2E606E7E2E605E7E28E6884AFE3BDAA0E32658ECE
S12368BE4B649F14E6E44FED618A01DD168E0C56BD9B26AE63BDAE048E4B649F14EC618ABA
S12368DE80DD168E0C5632657E9AF21F01E607E7E2E606E7E2E605E7E2D60834048E6879CE
S12368FEAFE3BDAA0E326620B6484947484553542053434F52455300BDB8CC8E42B09F1492
S123691E8E40039F168E6907BD9B02C608E7E2C603BD688BC614E7E2C604BD688B8E568ED8
S123693EBDB8AA32627EBA5DBDB8CC8E42B09F148E40039F168E6907BD9B02C608E7E2C63E
S123695E01BD688BC614E7E2C602BD688B8E568EBDB8AA32627EBA5DBDB8CC8E4B649F145E
S123697E8E40089F168E670CBD9B02C614E7E25FBD688B32617EBA5D081954280000016433
S123699EFD0020000000444144001750000000150000000012500000001000000053414D20
S10C69BE4A4F454953414D4F4D28
S123195400000000000000000000000000000000000000000000000000000000000000006F
S10B1974000000000000000067
S105161C0000C8
S12369C77F0F7039F60F70C10422057D184D2701395CF70F708E69E4C6247EB05AC61EBD11
S11769E79034C606BDC6A5C61EBD90347A0F7026F17E8F8DD1
S12369FB7D181E26025F39F6141D2603C80139C601C80120F93939397F0F71397F141D393E
S1236A1BF60F71FB141DF70F713939398E6C227EBB6DBD86CB40423BF6181EC101271DC113
S1236A3B022606BD86CB40BD398E1878BDB7188E1916BD54657C141DBD69CB39BD430120F0
S1236A5BE87D181E2713F6141DC103220C86053DC3198610B30C90230139BD6A2D39455819
S1236A7B5452412042414C4C204154005245504C4159204154005449434B45542041540025
S1236A9B3440327EF6181EC1022757C103274CC1012704326235C0CE6A87EFE4BDB8CC8E38
S1236ABB4B649F14CE4008DF16AEE4BD9B028E19860D1D270CF6141D86053D1F0330C919B1
S1236ADB86BDAE048E48C89F14CE4016DF168E0C56BD9B02326235407EBA5DCC6A91EDE4B8
S1236AFB20BA8E6A79AFE420B33440327CAF61E7E4BDAEB66DE42604326435C0E6E45AE797
S1236B1B63AE683410C602AE63BD887F3262E663C1092319AE6833083440C602AE63BD8836
S1236B3B7FE665CBF6E7653262C10922EB6D6327C7AE6833023440C602AE63BD887F6A650B
S1236B5B32626D6326EF326435C03440CE6C35EFE3BD6B04326235C03440CE6C2BEFE3BD40
S1236B7B6B04326235C03440327BCE18198E1986AF630F08F61815C10110270048E6C4E793
S1236B9B61273BC601E762D6085CE7E4C6B4F73FFDAE63BDAEB6E661AE63BD6B73E662AE36
S1236BBB63BDAFB47F3FFDE6E4D7083341EC63C30005ED63D608C10426BA326535C0D60807
S1236BDB5CE7E420E4F61818D10823F2F6199AE761D6085CE7E4E7627E6BA7BE0CA58C1875
S1236BFB17270E8C181525058C181D2301397E6B81C6B4F73FFDF61817F7199A7F3FFDBECA
S1236C1B0CA520DF7E6B8109197C1F0000016A12001000020050002000200001000100104D
S1076C3B000500103C
S104141D00CA
S122197C0000000000000000000000000000000000000000000000000000000000000048
S1236C3F7F0F73390F08F60F73F10F742504C601D708D60839F70F7439C60FF70F7439CC07
S1236C5F0000FD141E39CC0000FD0F7539327EBE0F75AFE41F10F3141E3406ACE12309CC8B
S1236C7FFFFFFD141E326239FD141E326239F61810F10C48270139BE141EBD86CB74E23CA7
S1236C9F39C62C7E8F4BC60FF70F748E6E13C62C7EB05A8E6EC9C62B7EB05A3440327F7C97
S1236CBF0F72BD86CB40EE3BC60CBD90346FE4E6E4C106102200C8E6E4C116102700A7C148
S1236CDF17102700A1C1181027009BC11910270095C11A1027008FC11B10270089C128101B
S1236CFF270083C1291027007DC12A10270077C12B10270071C12C276DC12D2769C12E27E7
S1236D1F65C12F27615D275EC106275AC1022756C1052752C107274EC10E274AC10F274610
S1236D3FC1112742C112273EC113273AC1252736CE0F35BE0F3FE1042710334C11830F6584
S1236D5F241AAE4AE6E4E10426F06D44270EF61832C1012711F60F72C105260AE6E4BDC63B
S1236D7FDFC60CBD90347D0F73270A6CE4E6E4C1301026FF3CBD86CB40023B326135C0C13E
S1236D9F081027FF32C1091027FF2CC10A1027FF26C10B1027FF20C10C1027FF1AC10D10F0
S1236DBF27FF14C10E1027FF0EC10F1027FF08C1111027FF02C1121027FEFCC1131027FE3E
S1236DDFF6C1201027FEF0C1211027FEEAC1221027FEE4C1231027FEDEC1241027FED8C1ED
S1236DFF251027FED2C1261027FECCC1271026FF757E6CD67F0F730D1D10270089C63CBD60
S1236E1F90340D1D27F17D002026EC0D1E26E87D0F6726057D0C4626DEC616BDCD0E5D2679
S1236E3FD6C64BBDCD0E5D26CEC649BDCD0E5D26C67C0F7626037C0F757C0F73F60F73F1DE
S1236E5F0F7425B37F0F727D0F732749F60F72C1042307F61832C1012747BD6CBAF60F7215
S1236E7FC103272CF60F72C109221EC60CBD9019F60F72C11823D07D184926CB7D182A2628
S1236E9FC6C62F7EBA9F7E8F8DC614BD901920E0BDC2F120CF7F0F72BD86CB40473B7E6E48
S1136EBF168E18B0BDB7187E9D0FBD6CBA7E8F8D20
S105141E0000C8
S1236ECF0D1D27040D1F270139C634BD8E408C00002706C601F70F77398E6EF0C6347E8D11
S1236EEFEF327FC627E7E4C64BBDCD0E5D2608C649BDCD0E5D2738C606BD90346AE426E7E8
S1236F0FC60BBD972C2005C606BD9034C64BBDCD0E5D2608C649BDCD0E5D270EBD95A0C17B
S1236F2F0B27E4C605BD901920D6C60BBD97D17E8F8D327FBDBA5D7F0F77C62DE7E4200405
S1236F4F6AE4270AC604BD90347D0F7727F2326139BDB8CC8E3800BD86CB4180393953547D
S1236F6F41545553205245504F52540042414C4C202564003460BD6F60108E00148E4B64F2
S1236F8FAFA4CE00168E4010AFC48E6F6DBD9B02BD6F41BD6F60F60C48E7E28E6F7BAFE37C
S1236FAFBDAA0E8E42B0AFA48E400BAFC48E0C56BD9B02BD86CB45F2398E42B0AFA48E40C1
S1236FCF15AFC48E0C56BD9B02BD6F41BD6F60BD6A9BBD6F418E18F3BD573D8E3800BD86B1
S1136FEFCB418039BD6F41BD86CB40273B7E992A6B
S1236FFFBD86CB40333BF6181FC1012713C1022606BD86CB40BD39BD69CB8E187A7EB718F8
S10F701FBD4301BD69CB8E187A7EB71802
S9030000FC
