S12340003A7F0F97397D0F972605C601F70F9739F60F9727045AF70F97398E03DBBDC8DF52
S1234020F60F972609BDB12DC601F70F9739C10126FBBDB13A7F0F9739BDB13A7E662044A0
S1234040495645525445522054455354008E42B09F148E40029F168E403FBD9B02C6058E63
S12340603800BD86CB41DC3939484F4C440046554C4C00464C4F41540054494D45523A25B7
S1234080640A00327EBDB8CCBD404DD62A102D007A102700698E406EAFE3BDAA0E32628EB7
S12340A042B09F148E40099F168E0C56BD9B02D62AE7E28E4079AFE3BDAA0E8E42B09F1437
S12340C08E400F9F168E0C56BD9B02C6198E3800BD86CB41DC39F60F974FED6358491F01FB
S12340E0AE89412DAFE3BDAA0E8E42B09F14CC001BDD168E0C56BD9B2632677EBA5D8E4099
S123410073AFE3BDAA0E32627E409F8E4069AFE3BDAA0E32627E409FC606BD9034BD408334
S123412020F653544152540053544F5000412241284001931B408341184039401A40054062
S111414010931B931B931B403F024131000060
S123414E7F0F9839F60F98C10322045CF70F9839F60F9827045AF70F9839327E8E03DBBD62
S123416EC8DFF60F98C104221B4FEDE458491F016E9941824195419E41A941B4418CBDB26C
S123418E387F0F98326239BDB1827F0F98326239BDB15BC601F70F98326239BDB1D5C603F8
S12341AEF70F98326239BDB1A9C604F70F98326239BDB2387E6620454C455641544F522009
S12341CE544553540053575F454C455641544F525F484F4C440053575F454C455641544F83
S12341EE525F494E444558003460327EBDB8CCCE42B08E0014EF84108E00168E4002AFA453
S123420E8E41C5BD9B02C6058E3800BD86CB41DC39C6198E3800BD86CB41DC398E41D3AF4F
S123422EE3BDAA0E8E0014EF848E400DAFA48E0C56BD9B028E41E4AFE3BDAA0E8E0014EF3C
S123424E848E4014AFA48E0C56BD9B02F60F984FED6458491F01AE8942ADAFE3BDAA0E8E90
S123426E0014EF84CC001BEDA48E0C56BD9B26326835607EBA5DC60CBD9034BD41F620F69E
S123428E42554D502055500042554D5020444F574E00555000444F574E0053544F50004222
S12342AE8E429642A042A342A8414E931B41F6428441BF41684152415E931B931B931B4175
S10942CEC50242B7000026
S12342D47F0F9939F60F99C10322045CF70F9939F60F9927045AF70F9939327E8E03DBBDD6
S12342F4C8DFF60F99C104221B4FEDE458491F016E994308431B4324432F433A4312BDB2B4
S12343149E7F0F99326239BDB3097F0F99326239BDB2DBC601F70F99326239BDB266C6046A
S1234334F70F99326239BDB281C604F70F99326239BDB29E7E6620434C415720544553543B
S123435400636C61775F6C6F636174696F6E003460327EBDB8CCCE42B08E0014EF84108EEE
S123437400168E4002AFA48E434BBD9B02C6058E3800BD86CB41DC39C6198E3800BD86CBCE
S123439441DC398E4355AFE3BDAA0E8E0014EF848E400DAFA48E0C56BD9B02F60F994FED1B
S12343B46258491F01AE894408AFE3BDAA0E8E0014EF84CC001BEDA48E0C56BD9B263266A5
S12343D435607EBA5DC60CBD9034BD436320F642554D50204C4546540042554D5020524961
S12343F4474854004C4546540052494748540053544F500043E343ED43F843FD440342D4A5
S11E4414931B436343D9434542EE42D842E4931B931B931B434B024412000031
S123442FCC0000FD0FA139BE0FA16F067F0FCD7F0FCE8E49B1BF0FCF7F0FD1C6FFF70FD2FC
S123444F393440BD4436BE0FA1EE02FF0FD4C6FFF70FD2AEC4270A5C3345AEC426F9F70F7A
S123446FD235C0C607F70FDA39BE0FA1CC0000ED046F0639327EBE0FA1E6064F58491F0189
S123448FAE8986A7326239BD4436C611F70FD27F0FDBC608F70FDC393420BE0FA110AE021E
S12344AFBD4436C601F70FD1BE0FA1E7068E499FBF0FCF108C6CAA27108E6C7EBF0FDDC6D4
S12344CF07F70FD27F0FDF35A08E6C78BF0FDDC67AF70FD27F0FDF35A0F60FE1C101230462
S12344EF5AF70FE1397C0FE139F60FE05CC1082704F70FE0397F0FE039BD4436C603F70F89
S123450FD239BD44368E499FBF0FCFC60DF70FD239CC0000FD0FE27F0FE439FC0FE2C3003A
S123452F021083003B2303CC0000FD0FE27F0FE439BE0FE2260ACC003AFD0FE27F0FE4398F
S123454F301EBF0FE27F0FE439F60FE45CC10223047F0FE439F70FE439CC0000FD0FE9C61B
S123456F01F70FEB7F0FEC39327E7D0FEC27067C0FED326239F60FEB4FEDE4F30FE9841F4B
S123458FFD0FE9326239327E7D0FEC27067A0FED326239F60FEB4FEDE440508200F30FE9A1
S12345AF841FFD0FE93262397D0FEC260DF60FEBC140270A5858F70FEB397F0FEC39C60162
S12345CFF70FEB39F60FEC2705C101270E39C601F70FECE69F0FE9F70FED39F60FEDE79F77
S12345EF0FE97F0FEC39C602F70020BD44367F0D617F0FEE39C602F70020BD44368E494E0A
S123460FBF0FCFC64FF70FD239F60FEF5CC10823097F0FEFBE0FA16F0639F70FEFBE0FA183
S123462F6F0639BD44367F0FEF39327DBE0FA1E606E762CBE4C1032371E6628E83E03AE61A
S123464F84F70FCDE662C110274DC1142749C1152745C1162741C117273DC1182739C1194E
S123466F2735C11A2731C11B272DC1282729C1292725C12A2721C12B271DC12C2719C12D7B
S123468F2715C12E2711C82F4FEDE4C3FFFF1F894F5959C4012002C601F80FF04FC3FFFF6E
S12346AF1F894F5959C4013263395F326339327DC603F70FF1BE0FA1E6064F1F01E6898453
S12346CF10E761F1727A271FC602E7E42004E662E7E45AE762E6E44F1F01E661E18972770C
S12346EF26ECE6E4F70FF1326339327DBD44362005BE0FA16C06BD46395D27F58E499FBF31
S123470F0FCFBE0FA1E6064F1F01E68983E0F70FCDC62FF70FD2E6898410E761C602E7E48F
S123472FE661F1727A2606201EE662E7E4E6E45AE762E6E44F1F01E661E189727726EAE68F
S123474FE4F70FF1326339C603F70FF120F6C603F700207F0FF0BD46F9C620F70FF2C68049
S123476FF70FF4C610F70FF339C601F70FF0BD46F9C610F70FF2C628F70FF4C604F70FF3F2
S123478F39F60FCDF10FF22707F00FF3F70FCD39F60FF4F70FCD39F60FCDF10FF42507F6F0
S12347AF0FF2F70FCD39FB0FF3F70FCD39F60FF15CC10323047F0FF139F70FF139F60FF5B1
S12347CFC10722045CF70FF539F60FF5C10123045AF70FF539BD4436C63FF70FD28E4920CC
S12347EFBF0FCF39BD4436CC0000FD0FCF39BD4436C60FF70FD28E4EB8BF0FCF39BD443634
S123480FC664F70FD239346010BE0FA1EE226F246F25AEC4270A5F33425CAEC426F9E72591
S123482F642535E0CC0000FD0FA17F002039BD4436C601F70FD1BE0FA1E706C615F70FD293
S123484F8E499FBF0FCF7F0FE0C606F70FE17EBEFA327FE7E4BD95A0E8E44FC3FFFF1F89E9
S123486F4F5959C40132613932701F40C30010C3FFF0FD0FE77C0FE626037C0FE55FBD9064
S123488F3420F2008E4892AFE3BDAA0E3262398E4892AFE3BDAA0E326239342E332E340050
S12348AF4743433638303920562573008E48A9AFE38E48AFAFE3BDAA0E32643944455600E8
S12348CF333000310053595354454D2025732E25732D2573008E48CBAFE38E48CFAFE38E11
S12348EF48D2AFE38E48D4AFE3BDAA0E32683944454D4F4C4954494F4E2054494D45008EA4
S123490F48FEAFE3BDAA0E32623925316425316400327EE7E4C607E4E45C340464616461C8
S123492F6461E6615C34048E4919AFE3BDAA0E32663944256400462564002564256400321C
S123494F7EC1072338C1472223CBF8E7E4C607E4E45C3404646164616461E6615C34048EE7
S123496F4949AFE3BDAA0E3264326239CBB934048E4945AFE3BDAA0E32633262395C340453
S123498F8E4941AFE3BDAA0E326332623925640034048E499CAFE3BDAA0E326339253032F3
S12349AF580034048E49ACAFE3BDAA0E3263393200300025452020205225732E257300BD63
S12349CF86CB479C388E49BEAFE38E49C0AFE38E49C2AFE3BDAA0E3266394F1F01F60FEF34
S12349EF1F985F308B7EC8DFC655F70FDFBE0FA1E606BE0FDDAD98045D2615BE0FA1E6066F
S1234A0FAE9F0FDDAD848E03DBBDC8DF7C0FDF39BE0FA1E606BE0FDDAD98028E03DCBDC869
S1234A2FDF7C0FDF393460327E10BE0FA1EE228E03D4BDC8DF6A26E626C1FF2704326235F6
S1234A4FE0EE432721AEC4271D6FE4E6E42002E7E433425CE761AEC426F56D612708E6E4BD
S1234A6FE726326235E06F26326235E03460327FFE0FA110AE428E03D5BDC8DFE6465CE703
S1234A8FE4E74610AE232714AEA427105F31225CAEA426F9E1E42304326135E06F463261F2
S1234AAF35E08E03D4BDC8DFBE0FA1E606F10FD127045AE70639F60FD2E70639BDBEFABD00
S1234ACF4AB139327DBD4AB1BD46395D27F7C603F70FF1BE0FA1E6064F1F01E6898410E7FE
S1234AEF61F1727A271FC602E7E42004E662E7E45AE762E6E44F1F01E661E189727726ECCD
S1234B0FE6E4F70FF1326339BD4AB17C0FDF398E03D5BDC8DFBE0FA16C06E606F10FD2230D
S1234B2F05F60FD1E70639BDBEFABD4B1E39327DBD4B1EBD46395D27F7C603F70FF1BE0F74
S1234B4FA1E6064F1F01E6898410E761F1727A271FC602E7E42004E662E7E45AE762E6E4A1
S1234B6F4F1F01E661E189727726ECE6E4F70FF1326339BD4B1E7C0FDF39BE0FA1E6045AFD
S1234B8FC1FF2603E6055AE7048E03D4BDC8DFC6507E8F4BBE0FA1E6045CE105250D6F0473
S1234BAF8E03D5BDC8DFC6507E8F4BE7048E03D5BDC8DFC6507E8F4BC6507E8F4B3440CED7
S1234BCF0F3511830F65241530C4BD86CB60DE38C60CBD9034334C11830F6525EBBD86CBCD
S1234BEF40543BC678BD9034C616BDCD0ECE0F355D27CFC602BDC6DFC63CBD9034CE0F357C
S1234C0F20C053455420256400F60FEFE7E28E4C11AFE3BDAA0E8E42B09F148E40099F169E
S1234C2F32638E0C567E9B023440CE42B0DF14CE5003DF1635407E9B025052494E54494ED0
S1234C4F472E2E2E008E42B09F148E40109F168E4C48BD9B027EBA5D9F144F8A40DD168E4C
S1234C6F0C567E9B023420327DBE0FA110AE02E60458E7624F584930ABAD94C60A8E42B08C
S1234C8FBD4C676C62E6624FEDE4584930ABAD94C6168E42B0BD4C67326335207EBA5D341F
S1234CAF40327FFE0FA16F44200BE6E45CE744BDB8CCBD4C74C6F0BD9034E644E7E4E645FE
S1234CCF5AE1E422E56F4420E65041474520256400BE0FA1E606C10F230A5AE706BD86CB70
S1234CEF68A23C39F70CA7F73FBEBDB8DB8E3800BD86CB418039BE0FA1E606E7E28E4CD891
S1234D0FAFE3BDAA0EC6108E42B0BD4C6732637EBA5D3440CE42B0DF14CE4002DF163540E8
S1234D2F7E9B02454D5054592042414C4C532054455354008E4D32BD4D217EBA5D4952510F
S1234D4F204C4F4144205445535400495251204C4F4144203D20256C642525008E4D4CBDD4
S1234D6F4D21BE0FE5AFE38E4D5AAFE3BDAA0EC6168E42B0BD4C6732647EBA5D444950203E
S1234D8F53572E20544553540057256400494E004F5554003440327CF63FE7E7E48E4D8BEA
S1234DAFBD4D21C63CE4E45454BD86CB472D38C60A8E42B0BD4C67C60DE7618E0008AF6207
S1234DCF200464E4E66134048E4D98AFE3BDAA0E8E42B09F14EC651F985F1F03CA12DD16D0
S1234DEF8E0C56BD9B0232638E4D9F6DE426038E4D9C3410BDAA0E8E42B09F141F30CA1938
S1234E0FDD168E0C56BD9B026C63EC64C30010ED643262E661C11526A9326435407EBA5DDF
S1234E2FC61EBD9034BDB8CCBD4DA320F35343484544554C455220544553540053434845D7
S1234E4F44554C455320504552205345432E203D20256C6400505245535320454E544552F5
S1234E6F20544F20524550454154008E4E3CBD4D21BE0FE5AFE38E4E4BAFE3BDAA0EC60AF6
S1234E8F8E42B0BD4C678E42B09F148E40149F168E4E64BD9B0232647EBA5D434F4C20255D
S1234EAF6400524F57202564003440327CE761C107222A5C34048E4EAAAFE3BDAA0EE664F1
S1234ECF585858E765CE000032631F30EB62BDC15333411183000826F1326435C0CBF934F1
S1234EEF048E4EB1AFE3BDAA0EE664CBF8E7663263E661CB38E7E4E663BDC153E663CB08CD
S1234F0FE763E1E426F3326435C0327FCC0000FD0FE5BDB8CCBDBA5D6FE48E4877C654BDD1
S1234F2F8DEF6CE4E6E4C11026F0C61EBD9034C654BD8F4B780FE6790FE532613934208E43
S1234F4F4F6210BE000CE622BD8DEFBD86CB7E043C35A0BDBF39C62ABD9034BDBEFAC6125E
S1234F6FBD903420EEBE0FA1E606BDC0B4BD4AB139BE0FA1E606BDC0B4BD4B1E39BD4436F2
S1234F8FC606F70FD2C608F70FF5C61F7ECFFCC61F7ECFBA327FBE0FA1E606E7E4C606BD18
S1234FAF9034F60FCD54543404F60FF14F1F01E6897277E7E2E662BDC559C60632637E9050
S1234FCF34327FBE0FA1E606E7E47D0D23261DC606BD9034F60FCDE7E2F60FF14F1F01E691
S1234FEF897277E7E2E662BDC5E6326232613925632E2025730025642E20257300346032B0
S123500F7DFE0FA110AE428E42B09F148E08049F16AEA4BD9B26AE232736E646E7624FED21
S123502FE45849308BAE84E602C404262AAE84AFE3E6645C34048E5005AFE3BDAA0E3265C8
S123504F8E42B09F148E080E9F168E0C56BD9B26326335607EBA5DAE843410E684E7E28E4D
S123506F4FFEAFE3BDAA0E326520D53440BE0FA1AE9802BD4D21FE0FCF2717BE0FA1E60674
S123508FADC48E42B09F148E04149F168E0C56BD9B2635407EBA5D327FF60FCD53E7E4F7EE
S12350AF0FCDBE0FA1E6065CF70FCE6DE42608C606BD9034BDC812BD507A326139444556E2
S12350CF2025642E20257300434F554E542025642F256400484F4C4420256400534F4C2066
S12350EF256400434F554E544544202564004D495353494E47202564004C4956452F4C4F9C
S123510F434B532025642F256400454A45435420414C4C00454A454354203100454E414204
S123512F4C45204C4F434B0044495341424C45204C4F434B003440327DBE0FA1E606E7627F
S123514F860C3D1F0133890F3511830000102700FDAE4A102700F7AE84AFE3E66434048E8B
S123516F50CCAFE3BDAA0EC6028E42B0BD4C67E642E7E2E644E7E28E50D7AFE3BDAA0E8E13
S123518F42B09F148E04079F1632698E0C56BD9B26E646E7E28E50E3AFE3BDAA0E8E42B0C3
S12351AF9F148E040D9F168E0C56BD9B26AE4AE6045C34048E50EBAFE3BDAA0ECE42B0DF82
S12351CF148E04139F168E0C56BD9B26F60F65E7E28E50F2AFE3BDAA0EDF14CE4007DF16D9
S12351EF32698E0C56BD9B26F60F66E7E28E50FDAFE3BDAA0ECE42B0DF148E400D9F168EAC
S123520F0C56BD9B26F60F69E7E2F60F67E7E28E5108AFE3BDAA0EDF14CE4013DF168E0C9E
S123522F56BD9B263267F60FCD8E512BC10227118E5137C103270A8E5119C10127038E5149
S123524F23CE42B0DF14CE401CDF16BD9B02326335407EBA5DF60FCD5CC104270CF70FCD54
S123526F8E03DABDC8DF7E51447F0FCD8E03DABDC8DF7E51443460327BFE0FA1E646860C4F
S123528F3D1F0230A90F356F63E646860C3D1F0233A90F356F642013E662E763C604BD90C3
S12352AF346C6430C4E664C1082723E644E762E16327063440ACE12729E664C10726D9BD83
S12352CFB8CCBD5144E644E763C604BD9034C608BDCD0E5D2705C602BDC6DF30C4FE0FA16B
S12352EF20A78E03DABDC8DFBDB8CCBD5144E644E76320A84D454D4F525920454449544FC8
S123530F52203A2025700053544550203A20305825580045444954203A20253032580034AB
S123532F40BDB8CCBE0FE9AFE38E5303AFE3BDAA0E8E42B09F148E40039F168E0C56BD9BA5
S123534F02CE00003264FC0FE930CBE684E7E28E49ACAFE3BDAA0E8E42B09F141F30584905
S123536F3440E3E1584958493440E3E11F985FCA08DD168E0C56BD9B263341326311830082
S123538F0826C3F60FEBE7E28E5316AFE3BDAA0E8E42B09F148E011A9F168E0C56BD9B2653
S12353AF32637D0FEC260BBDBA5DC606BD90347E5330BDBA5DC602BD9034F60FEDE7E28E14
S12353CF5322AFE3BDAA0E8E42B09F148E7F1A9F168E0C56BD9AF2C604BD903432637E5345
S12353EF30505245535320535441525420544F20434F4E4649524D005052455353204553F9
S123540F4341504520544F2043414E43454C003460327CFE0FA1305910AE02E6064FEDE492
S123542F584910AE2330ABAE84AF62F60FDAE7E28E499CAFE3BDAA0ECE42B08E0014EF84C2
S123544F108E00168E0101AFA48E0C56BD9B268E0014EF848E7F01AFA48E0C56BD9AF2AED7
S123546FF805BD4D218E0014EF848E4012AFA48E53F0BD9B028E0014EF84CE4018EFA48E22
S123548F5407BD9B02326735607EBA5D3440CE42B0DF14CE7F14DF1635407E9AF2344032DF
S12354AF7EBE0FA1E606BDC115BD507ABE0FA1E6064FEDE45849CE4A6B30CBBDA9798E0CD5
S12354CF56326235407E549B414C4C204F464600414C4C204F4E004252494748544E4553DD
S12354EF53202564003440327FBD507ABE0FA1E606274BC10627514F5849CE564D30CBBDCD
S123550FA9798E0C56BD549BBE0FA1E6065AF73FF7F63FF7E7E4C61FBDCFFCF60FF5E7E2B2
S123552F8E54E6AFE3BDAA0EC61D8E42B0BD4C67F60FF5E7E2E664BDD03C326535C08E5472
S123554FD7BD549B6FE420CE8E54DFBD549BC61FE7E420C2534F554E44204F4E00534F5538
S123556F4E44204F464600327FBE0FA1E606E7E4BD507ABD4C18F60FCDC1FF2618E6E4F182
S123558F0FCE2703BD49E98E5563BD549BE6E4F70FCE3261398E556CBD549BE6E4F70FCE0D
S12355AF326139504C4159494E472E2E2E008E55B2BD549BBE0FA1E606BD49E9C60C7E9004
S12355CF3425644D5300284445462E290025642525003460327EBD507AF60FCDE7E28E55F1
S12355EFD0AFE3BDAA0ECE42B0DF148E010A9F168E0C56BD9B26BE0FA1E6064F1F013263F4
S123560FF60FCDE18983E010270069F60FF15C86193D3404CE55DCEFE3BDAA0E8E42B09F6D
S123562F14CE7F0ADF168E0C56BD9AF2F60FF14F1F02FE0FA1E6464F1F013263E6A9727702
S123564FE18984102719E6464FEDE45849CE46EB30CBBDA9798E0C56326235607E549B8E1F
S123566F42B09F14CE640ADF168E55D5BD9AF2FE0FA120D2DF148E260A9F168E55D5BD9B2A
S123568F267E561A53494E474C4520535749544348004F50544F00494E414354495645009A
S12356AF414354495645004F50454E00434C4F5345440025732D2573003440327DBE0FA141
S12356CFE606E7628E5693BD4C37BE0FA1E606AD9F0FCF8E42B09F14CE2209DF168E0C5636
S12356EFBD9B26BE0FA1E6064FEDE45849CE441630CBBDA9798E42B09F14CE3209DF168E3D
S123570F0C56BD9B26E662BDCCEA5D2645E662BDCD0ECE56AF5D2603CE56A6E662BDCCFC43
S123572F8E56BB5D26038E56B6341034408E56C2AFE3BDAA0ECE42B0DF148E44139F168E57
S123574F0C56BD9B02BD86CB67563C326935407EBA5D8E42B09F14CE7413DF168E56A1BD0F
S123576F9B0220A93440327DFE0FA1E646E7E4BDCCFCE761C602BD9034E646BDCCFCE762D8
S123578FE16127F0E646E1E42708E7E4E662E76120E28E03DABDC8DFE646CBFBC101220477
S12357AF6D6226E8BDB8CCBD56C8C604BD903420DB535749544348204C4556454C5300BD1D
S12357CF86CB67563C8E57C0BD4C377EBA5D53574954434820454447455300BD86CB6756CD
S12357EF3C8E57DDBD4C377EBA5DBD86CB66EE3CC606BD903420F3BD86CB671A3CC606BD71
S123580F903420F3BDB8CCBDBA5DC63CBD90348E3FFDC6B4E7847F18F07F18F17F18F26F50
S123582F847EBE0BBD4AB1BD86CB63E83C39BD4B1EBD86CB63E83C3925642E004E4F005963
S123584F455300BE0FA1E6065C34048E5847AFE3BDAA0E8E42B09F148E01099F168E0C560B
S123586FBD9B26BE0FA1E606BD86CB645C3C8E42B09F148E0F099F168E0C56BD9B268E4267
S123588FB09F148E7F099F16BE0FA1E606BD86CB63C23C32638E584E5D26038E584BBD9A27
S12358AFF2C601BD9034BD86CB63FC3CBD86CB5A87397EBA5DC62ABD9034BDB8CCBD58521C
S12358CF20F35052455345545300505245535320454E54455220544F20494E5354414C4C57
S12358EF003460BD4436BD86CB63BF3C5AF70FD2C60CBDB85BBDB8DBCE42B08E0014EF8465
S123590F108E00168E0101AFA48E58D1BD9B268E0014EF848E401BAFA48E58D9BD9B02BD81
S123592F86CB63E83C35E0BD86CB7D3E3C39BD86CB7D593C394155544F204255524E2D49CA
S123594F4E008E42B09F148E40029F168E5944BD9B02BD86CB7DDD3C7EBA5DBD86CB5417F7
S123596F38395FBD86CB55283839C601BD86CB552838398E0F29BD86CB573D3839C605BD24
S123598F90198E0F29BD86CB573D3820F05FBD86CB54823839BD86CB54013839F60C475A70
S12359AFC1FF270AF70C47BD86CB4C263939F616065A2602C604F71606F70C47BD86CB4C92
S12359CF263939327FF61606E7E4F60C47E1E4270D5CF70C47BD86CB4C2639326139E6E457
S12359EF5C7F0C47C1042302C601F71606BD86CB4C2639326139BD86CB4BFC397EBA5D34C6
S1235A0F40CE160730C4BDAEB68E6E44AFE330C4BDAEC5334532621183161B25E7C601F7A2
S1235A2F16067F0C4735C03460327CBDB8CCBDBA5DBD88C810BE0FE51F2058495849ED627A
S1235A4F58495849E362EDE458495849E3E4CEF95C30CB3420BDE39BBF0FE5326635E0BD08
S1235A6FB869BDB8DBAE9F0FA1AD980439BE0FA12708AE84AD98147E5A6E39BE0FA1270DDA
S1235A8FAE84AD9808BE0FA127037E5A6E39BE0FA12708AE84AD98127E5A6E39BE0FA12723
S1235AAF08AE84AD98107E5A6E39327FBE0FA12727AE84AD980EBD5A6E6FE4C605BDCCFCAB
S1235ACF5D2715C602BD90346CE4E6E4C110271AC605BDCCFC5D26EB326139AE9F0FA1AD71
S1235AEF980EBD5A6EC604BD9034C605BDCCFC5D26E9326139327FBE0FA12727AE84AD98B1
S1235B0F0CBD5A6E6FE4C606BDCCFC5D2715C602BD90346CE4E6E4C110271AC606BDCCFCDE
S1235B2F5D26EB326139AE9F0FA1AD980CBD5A6EC604BD9034C606BDCCFC5D26E932613971
S1235B4F53544F505045440052554E4E494E47003440327DBE0FA1E606BE0FDDAD9804E79B
S1235B6F624FC3FFFF1F894F5959C401F70FDFBD5A6EE662203EBD5A6EBE0FA1E6064F589C
S1235B8F49CE54F730CBBDA979C60C8E42B0BD4C67E662C10127508E5B4FBD549BE662F750
S1235BAF0FDFC608BD9034BE0FA1E606BE0FDDAD9804E762F10FDF27E4BE0FDD8C6C7826D5
S1235BCFB55D26D9BD5A6EBE0FA1E6064F5849CE53E430CBBDA979C60C8E42B0BD4C678EA3
S1235BEF5B4FBD549B20B68E5B57BD549B20AE3440BDB869F60FE42719BE0FE2331F4F1FC2
S1235C0F011E03308B1E03BD910FBDB8D535407EBA39BE0FE2BD914B35407EBA39C6057E6F
S1235C2FBA9F3440BDB8CCCE3800BD9348E7C011833A0026F5BDBA5DC60ABD903420E5C625
S1235C4F50BD8F4BBDB8B38E5C92C6507EB05A4F4C4420444953504C4159005041474520B6
S1235C6F54455854004146544552205452414E534954494F4E00495320434F4D504C45545F
S1235C8F4544003460327EBDB8CCCE4B648E0014EF84108E00168E400AAFA48E5C5EBD9BD2
S1235CAF028E0014EF848E4015AFA48E5C6ABD9B02BDBA5DC612BD9034BDB8CC8E0014EFD7
S1235CCF848E400AAFA48E5C74BD9B028E0014EF848E4015AFA48E5C85BD9B02BE0FA1E6E2
S1235CEF064FEDE458491F01AE896D44BDB8AABDBA5DC63CBD9034BD5A6E7E8F8D34403287
S1235D0F7EBE0FA1E606860C3D1F0133890F3511830000271BAE4A27178E03DABDC8DFF6D8
S1235D2F0FCDC101271C240C30C4BD86CB60DE38326235C0C1022716C10326F46A4632621C
S1235D4F35C030C4BD86CB607A38326235C06C46326235C03420327EBDBEFAF60FE0C1053F
S1235D6F10220094C10722274FEDE458491F016E995D825DE65DD35DF95DEB5DC55DB75DCE
S1235D8FA95D928E003C10BE0FA1E626BDA1EAF60FE1BD9034F60FE020CA8E003C10BE0FDF
S1235DAFA1E626BDA29220E78E003C10BE0FA1E626BDA34720D98E003C10BE0FA1E626BD26
S1235DCFA16D20CB8EC04410BE0FA1E626BDA3EAC60ABD903420B88EC15320EB8E003C10A1
S1235DEFBE0FA1E626BDA52620A58E003C10BE0FA1E626BDA48120976FE2BE0FA1E606BD74
S1235E0FA025BDC153C601E7E2BE0FA1E606BDA025BDC1533262F60FE07E5D73327DC67BE5
S1235E2FBD9370E7E427F7C602BD9370E761C60CBD9370E7626D61270EE6E4BD972CE66266
S1235E4FCB02BD903420D7E6E4BD97D120F0BD98E27EC1613440327EBE0FA1E6064FEDE476
S1235E6F58491F01EE8986A7C64130C4BD99747D0018260EF60FDBC119233BC63030C4BD5D
S1235E8F99747C0018F60018CBFCC10A2309C606F70FDC326235C04F58491F016E995EAF27
S1235EAF5ED55ED55ED55EDE5EDE5EE75EE75EF05EF05ECC5ECCC61AF70FDB20BEC608F7E0
S1235ECF0FDC326235C0C614F70FDC326235C0C60FF70FDC326235C0C60CF70FDC32623539
S1235EEFC0C60AF70FDC326235C0BD4AB17F0FDB7E5E63BD4B1E7F0FDB7E5E633420327F61
S1235F0FF60FDBE7E44F1F02F60FDC4F1F01CC00243410A3E1340610ACE12406E6E45CF72D
S1235F2F0FDBBD5E638E03DA326135207EC8DFF60FDB27045AF70FDBBD5E638E03DA7EC8F9
S1235F4FDF464F4E5420256400252A73003460327CBE0FA1E6065C34048E5F50AFE3BDAA47
S1235F6F0ECE42B0DF14CC0001DD168E0C56BD9B26BE0FA1E6064FED635849CE56E430CB82
S1235F8FBDA9798E42B09F14CE7F01DF168E0C56BD9AF2C6078E3800BD86CB41DC39BE0F9C
S1235FAFA1E6064FED6358491F01EE8986A7BD5E633263D61AC107223DF60FDB4F1F013094
S1235FCF896C2C3410F60FDCE7E28E5F58AFE3BDAA0EDF148E40109F168E0C56BD9B02C6BD
S1235FEF01F7000BF60FDBE7673265C1132336326435607EBA5DF60FDB4F1F0130896C2C39
S123600F3410F60FDCE7E28E5F58AFE3BDAA0EDF14CE4012DF168E0C56BD9B0232653264B4
S123602F35607EBA5DF60FDCE7634F1F01E6624F1F021E02308B1E0230896C2C3410E665F6
S123604F34048E5F58AFE3BDAA0EDF14CE401ADF168E0C56BD9B023265326435607EBA5DF8
S123606FC653BD8E408C0000270139BD4A7B8E664FC6537E8DEFC653BD8E408C000027014C
S123608F39BD4A348E664FC6537E8DEFBD86CB73D93C39BD4436BE0FA1AE02BF0FD6BD8618
S12360AFCB73C53C394E4F5420534554003440327DBE0FA1E606E76286053DEDE41F031EB9
S12360CF03F30FD41E03AEC4AFE3E6645C34048E5005AFE3BDAA0EC60A8E42B0BD4C67AE79
S12360EF4332658C0000271EE642C1082723231DBD86CB5D183C8E42B09F148E40159F16DD
S123610F8E0C56BD9B02326335407EBA5DAE8420DF6D84260C8E60B4AFE3BDAA0E326220D2
S123612FD5BD86CB56833820CD3440BE0FA1E606BD86CB69C33C3384F60FCD2706C1012788
S123614F1B35C0BD4AB1BE0FA1E606BD86CB69C33CBD86CB6A2D3C5D26E920E58E03D4BD20
S123616FC8DFAE42F60FD3E1842207E601F70FD320CFE002F70FD320C83440BE0FA1E606EF
S123618FBD86CB69C33C3384F60FCD2706C101271B35C0BD4B1EBE0FA1E606BD86CB69C30D
S12361AF3CBD86CB6A2D3C5D26E920E58E03D5BDC8DFAE42F60FD3E1012507E684F70FD35B
S12361CF20CFEB02F70FD320C8BE0FA1E606BD86CB69C33CF60FCD2614AE052738E684F7C0
S12361EF0FD3C601F70FCD8E03DB7EC8DFC1012624E69805F10FD32719C6B4F73FFDF60F2B
S123620FD3E798057F3FFDAE05BDB6A18E03D7BDC8DF7F0FCD39BE0FA1AE02BD86CB69A9F4
S123622F3CBD44367F0FCDBD86CB69AD3C5AF70FD2C1FF2701398E73B7BD86CB69A93C7F37
S123624F0FD239BDBA5D2005C606BD9034F60FCDC10126F4BDB88120EFAE9F0FA1AE062740
S123626F09C650BDB0485F7E903439494E5354414C4C494E47003420C650BD8F4BBDB8CC26
S123628F108E42B0109F148E40089F168E627ABD9B02BE0FA1E606BD86CB645C3CC61030DF
S12362AFA4BD4C67BDBA5DC678BD90348E03D7BDC8DFBD86CB64E13C35207E626853504544
S12362CF454420256400454E41424C4500544F47474C4500535445502055500053544550D3
S12362EF20444F574E004255494C44205550004255494C4420444F574E00524F5441544567
S123630F204E45585400524F5441544520505245562E003440327EBD507ABE0FA1E6064F5D
S123632FEDE45849CE55D530CBBDA979C60C8E42B0BD4C67F60FE1E7E28E62CCAFE3BDAAE0
S123634F0ECE42B0DF148E30159F168E0C56BD9B023263F60FE0C10722254FEDE458491F2E
S123636F016E99637463A563B163BD63C963D563E163EE6384CE6315EFE3BDAA0E32628E60
S123638F42B09F14CE5E15DF168E0C56BD9B02326235407E62688E62D5AFE3BDAA0E326214
S12363AF20DDCE62DCEFE3BDAA0E326220D18E62E3AFE3BDAA0E326220C5CE62EBEFE3BDF8
S12363CFAA0E326220B98E62F5AFE3BDAA0E326220ADCE62FEEFE3BDAA0E32627E638E8E32
S12363EF6309AFE3BDAA0E32627E638E4E2F4100284641432E2044454641554C54290034B4
S123640F40BE0FA1E606BD86CB69C33C3384C650BD8F4BBE0FA1E6065CBD86CB6A133CC6B2
S123642F0A8E42B0BD4C67AE45274AF60FCDC1012705E684F70FD3E644F10FD32725BDB929
S123644F46AE452709F60FD3BD86CB6A063C8E42B09F148E20159F168E0C56BD9B023540C4
S123646F7E62688E42B09F148E60159F168E63FFBD9B0220C98E42B09F148E20159F168E6A
S123648F63FBBD9B02BDB94620D4BDB8CCBDBA5DC63CBD9034BD86CB40E53B0D1D2603BD6B
S12364AF9ECBBDCE597F002039BE0FA12736C650BD8F4BAE9F0FA1AD9802C601F70020BE4C
S12364CF0FA18C0FA327141F10C3FFF9FD0FA110830FA32710BD62687E5A6EBD6499CC001A
S12364EF00FD0FA139BDBC1B20EB20148E03D9BDC8DFC63CBD90347A0FDABDB8CCBD541EAC
S123650F7D0FDA26E7C61EBD9034BD64B87E8F8D45534341504520505245535345440043F3
S123652F48414E47452049474E4F524544003460C650BD8F4BBDB8CCCE42B08E0014EF8466
S123654F108E00168E400AAFA48E651FBD9B028E0014EF848E4014AFA48E652EBD9B02BD5B
S123656FBA5D8E03D6BDC8DFC678BD903435607E64B8534156494E47204E45570041444A97
S123658F5553544D454E542056414C5545003460C650BD8F4BBDB8CCCE42B08E0014EF84C4
S12365AF108E00168E400AAFA48E6581BD9B028E0014EF848E4014AFA48E658CBD9B02BD3B
S12365CFBA5D8E03D7BDC8DFC678BD903435607E64B8BD86CB42A5387E659DBD86CB64FDBB
S12365EF387E659D8E1907BD86CB5465387E659DBDB7398E1902BD86CB5465387E659DBD11
S123660F86CB5056387E659D8EB6C3BDB78D7E659DBE0FA127098E03DCBDC8DF7E64B839EE
S123662FC678BD9034BD86CB4E85385FBD8E04BD66207E8F8DC650BD8F4BBDB8B37E66200B
S123664FC60ABD9034C649BDCD0E5D26037E8F8DC64BBDCD0E5D27F5BD662020F0F60FCDC8
S123666FC10127037E6620BE0FA1E606BD86CB69C33CE69805F10FD327068E03D6BDC8DFF9
S123668F7F0FCD39C601F70020C652BD8E04BDCE55BD98E2C601BDC2F1C63FBDC0B4C63F85
S12366AFBDC0C8BDC812C606BD9034BD86CB4A193B393460338410AE66C601BD9034C650EC
S12366CFBD8F4BBE0FA127338C0FCD2427BDBC20FC0FA1C30007FD0FA11F01EF8410AF0285
S12366EF8E03DBBDC8DFAE9F0FA1AD94BD626835607E5A6EC62335607EBA99BDBC1B7D00B7
S123670F20270DC620BD8F4B8E0FA3BF0FA120CBBD669320F3BE0FA12708AE84AD980A7E96
S123672F5A6EBD9D698E748EAFE38E7498BD66C1326239BE7471BF0F9AFC7473FD0F9CBEFA
S123674F7475BF0F9EF67477F70FA00D1D2609FC0F9DC30002FD0F9D8E0F9AAFE38E6C1602
S123676FBD66C13262393420327EBE0FA110AE02E6064FEDE4584910AE2330ABAE84E602A0
S123678FC4012616EC03272410AE05271B34201F01BD66C13262326235A034108E6C16BD40
S12367AF66C13262326235A0318420E18E03D6326235207EC8DF6225931B640E6252666C4A
S12367CF61D861886138931B931B931B544F54414C204541524E494E475300524543454E79
S12367EF54204541524E494E47530050455243454E542046524545504C4159004156472E26
S123680F2042414C4C2054494D450054494D452F43524544495400544F54414C20504C4141
S123682F5953005245504C4159204157415244530050455243454E54205245504C41595399
S123684F0045585452412042414C4C530050455243454E542045582E2042414C4C0067DB9A
S123686F050FD867EA00000067FA000000680B0918B2681A0A18B2682601187468320118FD
S123688F7868400218786850011882685C0218820000000000524543454E54204C45465474
S12368AF20534C4F5400524543454E54204354522E20534C4F5400524543454E542052498D
S12368CF47485420534C4F5400524543454E542034544820534C4F5400524543454E54206C
S12368EF5041494420435245442E00524543454E5420534552562E20435245442E0067EAEF
S123690F050FD868A401186668B501186868C601186A68D801186C68E801186E68FA011887
S123692F70000000000047414D45532053544152544544004D494E55544553204F4E0054FA
S123694F4F54414C204652454520504C415953005350454349414C204157415244530050D6
S123696F455243454E54205350454349414C004D41544348204157415244530050455243A9
S123698F454E54204D415443480054494C5453004C45465420445241494E530052494748AA
S12369AF5420445241494E530043454E54455220445241494E5300504F5745522055505348
S12369CF00534C414D2054494C545300504C554D4220424F422054494C5453004641544188
S12369EF4C204552524F5253004E4F4E2D464154414C204552524F5253004C45465420462D
S1236A0F4C495050455200524947485420464C49505045520054524F5547482052455343C1
S1236A2F55450043484153452042414C4C53004C4F434B555020312041444452004C4F437F
S1236A4F4B55502031205049442F4C454600693501187268260118746943011886694E0198
S1236A6F187667FA02187668320118786840021878695F01187A696E02187A697E01187CDD
S1236A8F698B02187C6850011882685C021882699901188A699F01188C69AB01188E69B878
S1236AAF01189069C601189269D001189469DB01189669EB01189869F801189A6A090118C2
S1236ACF9C6A1601189E6A240118AE6A320118B06A3E0118A06A4C0118A200000000000044
S1236AEF00000000544F54414C5320434C454152454400434C4F434B204C41535420534524
S1236B0F540041554449545320434C454152454400434F494E5320434C4541524544004662
S1236B2F4143544F5259205245534554004C4153542047414D4520535452542E004C4153E4
S1236B4F54205245504C4159004C41535420482E532E542E442E205253542E004348414D42
S1236B6F50494F4E205245534554004C415354205052494E544F5554004C41535420535257
S1236B8F562E20435245442E006AF30818F86B020818FD6B110819026B200819076B2E0800
S1236BAF190C6B3C0819116B4C0819166B5808191B6B6B0819206B7A0819256B8808192A57
S1236BCF00000000004450931B60BC00006620931B4B1E4AB1931B931B931B60A2931B6092
S1236BEF9B00006620931B4B1E4AB1931B931B931B4472931B541E64F9653D931B931B9381
S1236C0F1B931B931B659D4478931B500C0000662067754A7B4A346085606F677541424327
S1236C2F4445464748494A4B4C4D4E4F505152535455565758595A30313233343536373854
S1236C4F39004496931B5F5C00006620931B5F025EF95F3E5F0B931B464F4E5420544553C1
S1236C6F54006C67026C510000972C97D14860C36AC2F1C17F44A75E5D507A5B5F6620492F
S1236C8FF74B824B17931B931B931B444953504C41592045464645435453006C9A026C8483
S1236CAF00004C414D502045464645435453006CB1026C840000931B98E2931B5E2B662083
S1236CCF931B931B931B931B931B931B44454646205354524553532054455354006CDB02CB
S1236CEF6CC50000483DBEFA63225D63662044F84B1E4AB144E844F4931B4C414D504C49D7
S1236D0F535453006D09026CF300004508931B5144528466205D0C4B1E4AB15264526493D7
S1236D2F1B42414C4C2044455649434553006D30026D1A00005620562A5634563E564856B9
S1236D4F525666567A5684568E569856C256CC57004511931B507A000066445C4E4B1E4A30
S1236D6FB1931B931B931B5452414E532E2045464645435453006D76026D600000931B937C
S1236D8F1B931B5C316620931B931B931B931B931B931B52414E444F4D2054455354006D62
S1236DAFA2026D8C00005C2C931B931B00006620931B931B931B931B931B931B464F52437B
S1236DCF45204552524F52006DCB026DB500004520931B5BFE000066204558452A4540933F
S1236DEF1B931B931B444D44204652414D452054455354006DF4026DDE00004F19931B4E37
S1236E0F7A000066204F19931B931B931B931B931B4E3C026E0A00005A36931B4D6B000097
S1236E2F66205A36931B931B931B931B931B4D4C026E27000000012345605A0E931B5A0555
S1236E4F00006620931B59D259AB931B931B931B53434F52452054455354006E5F026E4950
S1236E6F00004568931B931B532E662045D345774595931B931B45B74D454D4F52592045AB
S1236E8F4449544F52006E87026E7100006C716CAA6CBE6D136D3D6DAE6D856E036DD76C12
S1236EAFEC6E206E3D6E6A6E950000444556454C4F504D454E54006EBA056E9C000044728F
S1236ECF931B541E64F9653D931B931B931B931B931B6617464143544F52592041444A5541
S1236EEF5354006EE3026ECD00004472931B541E64F9653D931B931B931B931B931B660E9B
S1236F0F6B2E026EF900004472931B541E64F9653D931B931B931B931B931B65FF434C45E9
S1236F2F415220415544495453006F2C026F1600004472931B541E64F9653D931B931B93DB
S1236F4F1B931B931B65F3434C45415220434F494E53006F56026F4000004472931B541E00
S1236F6F64F9653D931B931B931B931B931B65EA524553455420482E532E542E442E006F4D
S1236F8F7F026F69000059A4599C5982598C6620596A59795971931B931B931B53455420D8
S1236FAF54494D452F44415445006FAB026F9500004472931B541E64F9653D931B931B935E
S1236FCF1B931B931B65E1434C4541522043524544495453006FD6026FC00000593D5936B1
S1236FEF595100006620931B931B931B931B931B931B5944026FEB000058F0931B58525849
S123700FC466206285583D58334BC74BC74BC75052452D5345545300701E02700800005823
S123702F13931B931B00006620931B931B931B931B931B931B5245564F4B45204652454526
S123704F57504300704402702E00006F396F626F8E6FB96EF26F0F70276FE4700170530045
S123706F005554494C495449455300707005705A00004D41494E2041554449545300708192
S123708F026BD4686D4541524E494E475320415544495453007094026BD4690D5354414E95
S12370AF44415244204155444954530070AB026BD46A5D46454154555245204155444954F2
S12370CF530070C2020000000047414D452054494D4520484953542E0070D8026BEA75A370
S12370EF53434F524520484953542E0070EF026BEA755754494D452D5354414D5053007154
S123710F02026BD46B98708D70A470BB70D170FB70E8710E0000424F4F4B4B454550494E70
S123712F470071250571150000931B931B4C54662F6620931B931B931B931B931B931B4168
S123714F4C4C204441544100714E0271380000715700005052494E544F5554530071620568
S123716F715E00005354414E444152442041444A2E0071730267C56D9146454154555245A3
S123718F2041444A2E0071880267C56ECC50524943494E472041444A2E00719C0267C5708A
S12371AF6F482E532E542E442E2041444A2E0071B00267C5721C5052494E5445522041449F
S12371CF4A2E0071C50267C573097181719571A971BE71D2000041444A5553544D454E54C1
S12371EF530071E50571D9000045F5931B57EA58066620931B931B931B931B931B931B570C
S123720FDD0271F800004436931B57CE57F96620931B931B931B931B931B931B57C0027251
S123722F1500004604931B56C857736620931B4B1E4AB1931B931B931B5693027232000015
S123724F4632C81255760000662050A64B1E4AB14618461855BD534F554E44205445535467
S123726F00726502724F0000225577FF475D931B55E1000066204FD04B3D4AD2479047A6DF
S123728F47BC4778931B55E1000066204FA34B3D4AD2479047A647BC534F4C454E4F4944F5
S12372AF20544553540072A702727B0000464C415348455220544553540072BC02729100BB
S12372CF004F8C4F9E54F400006620931B4B1E4AB147D847CC931B47454E2E20494C4C55B5
S12372EF4D494E4154494F4E0072E60272D0000047E4BEFA54AC00006620931B4F804F74D7
S123730F931B931B931B53494E474C45204C414D5020544553540073150272FF000047F3AF
S123732FBEFA507A4F626620931B931B931B931B931B931B414C4C204C414D50532054453E
S123734F535400734302732D000047F3BEFA507A4F4C6620931B931B931B931B931B931B2A
S123736F4C414D502F464C415348455200736F027359000047FDBEFA507A00006620931BF2
S123738F4B364ACB931B931B931B4C414D5020524F57532F434F4C53007399027383000041
S12373AF4436931B4DA34E2F6620931B931B931B931B931B931B4D8B0273AF0000931B934E
S12373CF1B4D434BCC6620931B931B931B931B931B931B4D320273CC0000480CB8E14CE065
S12373EF00006620931B4B1E4AB1931B931B931B444953504C415920544553540073FF02EE
S123740F73E90000720E722B724872B572C972F8727073267352737C740C73A873C54147D0
S123742F42CD442873E20000544553545300743705741300004D4F444946592047414D459D
S123744F0074440667C5737E7450713171F1743D707A716C6EC600004D41494E204D454EA5
S123746F5500746701745700004815931B4C744CAE6620931B4BA34B89931B931B931B49EF
S122748F0E49CE48E448BB00004815931B4C744CAE662067424BA34B89931B931B931BC6
S9030000FC
