S1234000353460327C3184AE02E684A6263DED61E6B8044F3406AE63BDE3A9326233848CA3
S123402000002F1C1F30EBA4E7E4E621E7E2E6618E40B1BD9A5C335F3261118300002EE474
S1234040BDB872E621E7E2E6A48E40B8BD9A5CE626CBF64F3261CE0005344010A3E12F38F1
S12340601F30E763EBA4E7E4E621E7E2E6618E40BFBD9A5CE6A4CB05EB64E761E621E7E231
S1234080E6628E40C6BD9A5C334AE626CBF64F3262344010A3E12EC81F30EBA4E7E4E621B2
S12340A0E7E2E6618E40CDBD9A5C326535607EB8720105000101010005051F0101011F0571
S12340C0051F0000001F05051F0100011F01050101010101C601E7E2C6348E43CABD9A5C6C
S12340E0BDB872C601E7E2C6348E4429BD9A5C32627EB872C601E7E2C6348E4488BD9A5CCA
S1234100BDB872C601E7E2C6348E44E7BD9A5C32627EB872C601E7E2C6348E4546BD9A5C2C
S1234120BDB872C601E7E2C6348E45A5BD9A5C32627EB872C601E7E2C6348E4604BD9A5C8E
S1234140BDB872C601E7E2C6348E4663BD9A5C32627EB872C601E7E2C6348E46C2BD9A5CF1
S1234160BDB872C601E7E2C6348E4721BD9A5C32627EB872C601E7E2C6348E4780BD9A5C53
S1234180BDB872C601E7E2C6348E47DFBD9A5C32627EB872C601E7E2C6348E483EBD9A5CB6
S12341A0BDB872C601E7E2C6348E489DBD9A5C32627EB872C601E7E2C6348E48FCBD9A5C19
S12341C0BDB872C601E7E2C6348E495BBD9A5C32627EB872C601E7E2C6388E49BABD9A5C77
S12341E0BDB872C601E7E2C6388E49FABD9A5C32627EB872C601E7E2C6308E4A3ABD9A5C3B
S1234200BDB872C601E7E2C6308E4AB8BD9A5C32627EB872C10923037E41F44F58491F01FB
S12342206E9942244218423B423E424142444247424A424D425042387E40D47E41D47E4119
S1234240B47E41947E41747E41547E41347E41147E40F44D494C4C494F4E003420327BE799
S1234260E4BDB869BDB8DBBDB8D5E6E4BD4214BDBA39C63CBD90348E4253AFE3BDAA0E6F35
S1234280633262C604BD9370E763C602BD9370E764C603E4611027006EC10110270088C187
S12342A002102700778E52079F14C640E0631F985F1F01E664CB104F3410AAE0EAE01F0204
S12342C0109F168E0C56BD9B02BDB8728E52079F14109F168E0C56BD9B028E52079F148E13
S12342E042139F168E0C56BD9B02BDB872BDBA39C604BD9034BDB8DBBDB8D5E661C11027AB
S1234300405CE7617E42838E52079F14E663CB401F985F1F01C610E0647E42B78E52079F37
S123432014CB3EE06320E98E52079F14E663CB401F985F1F02E664CB104F1F011F207E4258
S1234340B8326535A03460327FE7E4BDB869BDB8DBBDB8D5E6E4BD4214BDBA39C63CBD90D1
S1234360348E56C2BDB8AAC60CBDB85B8E42533410BDAA0ECE52078E0014EF84108E0016D2
S12343808E4010AFA48E0C56BD9B02BDB8728E42533410BDAA0E8E0014EF848E4010AFA495
S12343A08E0C56BD9B028E0014EF848E4213AFA48E0C56BD9B02BDB872BDBA39C63CBD9034
S12343C034C61E326535607E9034181F803F00E0FF00F8FF03FCFF07FCFF07FEFF0EFEFF78
S12343E00EFFFF1FFFFF1FFFFF1FFFFF1FFFFF1FFFFF1FFFFF1FFFFF1FFFFF1FFFFF1FFE8B
S1234400FF1FFEFF1FFCFF1FFCFF1FFCFF1FFCFF1FFCFF1FFCFF0FFCFF0FFCFF07F8FF07C8
S1234420F0FF03E0FF00803F00181F803F00E0FF00F8E0033C80071C00070E000E0E000E1A
S1234440071F1C873F1CC77F1CC77F1CC77F1CC77F1C873F1C0F1F1C0F001C1F001C3E00DC
S12344601CFE601CBC3F1C1C1F1C1C001E1C001E3C001F7C800FFCE10FFCFF07F8FF07F07E
S1234480FF03E0FF00803F00181FC01F00E0FF00F8FF01F8FF01FCFF03FCFF03FEFF07FE95
S12344A0FF07FEFF07FEFF07FEFF07FEFF07FEFF07FEFF07FEFF07FFFF07FFFF07FFFF07C7
S12344C0FFFF07FFFF07FFFF07FFFF07FFFF07FFFF07FFFF07FEFF03FEFF03FCFF01F8FFC2
S12344E000F07F00C01F00181FC01F00E07F00F8F00138C0011C80031C80030E00070E0FA3
S1234500078E0F078E0F078E0F070E8F071E80071EC0070E80070F0007070F07871F07C73A
S12345201F07871F07070F070F80070F80071FC0073FE0077EF003FEFF03FCFF01F8FF00EB
S1234540F07F00C01F00181FFCFF03FEFF07FFFF0FF7FF0FF7FF0FF7FF0FFFFF0FFFFF0F9A
S1234560FFFF0FFFFF0FFEFF0FFCFF0780FF0780FF0380FF03C0EF01C0EF01C0EF01E0FF96
S123458000E0FF00E0FF00F07F00F07F00F07F00F03F00F03F00F03F00F01F00F01F00E081
S12345A00F00C00700181FFCFF03FEFF070F000F07000E07000E07000E0F000EFF0F0FFF52
S12345C00F0FFF070FFE8707FC870780C30780C30380C303C0E101C0E101C0E101E0F00002
S12345E0E0F000E0F000707800707800707800703C00F03C00F03F00F01F00F01F00E00F4B
S123460000C00700181F803F00E0FF01F0FF03F8FF07FCFF0FFEFF0FFEFF0FF7FF0FF7FFEC
S12346200FF7FF0FF7FF0FF7FF0FF7FF0FF7FF1FF7FF1FF7FF1FF7FF1FF7FF1FF7FF1FF7DE
S1234640FF1FF7FF1FFFFF1FFFFF1FFFFF1FFEFF0FFEFF0FFCFF07FCFF07F8FF03E0FF00D7
S1234660803F00181F803F00E0FF01F0E0033880071C000F1E000E0E000E071F0E87FF0FD3
S1234680C7E00F07800F07000F07000E071F1E873F1CC77F1CC77F1CC77F1CC77F1C873F2B
S12346A01C071F1C0F001E0F001E1F001F3E800FFEE00FFCFF07FCFF07F8FF03E0FF0080E9
S12346C03F00181FFCFF01FEFF03FFFF07F7FF07F7FF07F7FF07F7FF07F7FF07F7FF07F77A
S12346E0FF07F7FF03F7FF03F7FF03FFFF03FFFF07FFFF07FFFF07FEFF07FCFF07FCFF07AD
S1234700FEFF07FFFF07F7FF07F7FF07F7FF03FFFF03FFFF01FFFF00FFFF00FE3F00FC0F55
S123472000181FFCFF01FEFF030F8007070007070007070007078007C7FF07C7FF0707F85B
S12347400707E00307C0030780030F8003FF0707FF0F07FF1F07FE1F07FC1F07FC0F07FEE1
S123476007070F800707800707C00707E0030FF803FFFF01FFFF00FFFF00FE3F00FC0F00FE
S1234780181F7CF001FEF803FFBF0FFFFD0FFFFD0FFFFD0FFFFD0FFFFD0FFFFD0FFFFD0F5E
S12347A0FFFD0FFFFD0FFFFF0FFFFF0FFFFF0FFFFF0FFFFF0FFFFF0FFEFF0FFEFF0FFCFF7E
S12347C00FF8FF0FF0FF0FC0FF0F00FC0F00FC0F00FC0F00FC0F00FC0F00F80300F00118B9
S12347E01F7CF001FEF803EFBD07C71D07C71D07C71D07C71D07C71D07C71D07C71D07C749
S12348001D07C71D07C71F07871F070700070F00071F00073F00077E0007FE1F07FC1F0790
S1234820F81F07F01F07C01F07001C0700BC0700FC0700FC0700FC0700F80300F001181F48
S1234840C01F00F07F00F8FF00FCFF01FEFF03FEFF03F7FF07F7FF07F7FF07F7FF07FFFF21
S123486007FFFF07FFFF07FFFF07FEFF07FCFF03F0FF07F0FF07F0FF07FCFF07FEFF07FF35
S1234880FF07FFFF07FFFF07FFFF07FFFF03FFFF03FFFF01FFFF00FE7F00FC1F00181FC071
S12348A01F00F07F0078F0003CE0010EC0030E8003070007870F07C70F07C70F07CF0F0735
S12348C0FF07077F80077FC0077EC007FC8003F00707F00F07E00F07FC0F07FE07070F0090
S12348E00707800707C00707E0070FF003FFFF03FFFF01FFFF00FE7F00FC1F00181F807F95
S123490000E0FF01F0FF03F8FF07FCFF0EFEFF1FFFFF1FF7FF3FF7FF3FF7FF3FF7FF3FF7B6
S1234920FF3FEF7B3FFF3D3FFF1F3FFFFF3FFEFF3FFCFF1FF0FF1FFCFF0FFEFF1FFEFF3FB1
S1234940FFFF3FF7FF3FF7FF3FFFFF3FFFFF3FFFFF3FFFFF3FFEFF1FFCFF0F181F807F005C
S1234960E0FF01F0C0037880071C000E1E001C0E001C071F38873F38C77F38C77F38C77F75
S123498038EF7B38FF3D3CFF1F3CFF0F3EFE073FFC831FF0C11FFCE00F3EF01F1E003C0FC8
S12349A000380700380700380F003CFFFF3FFFFF3FFFFF3FFEFF1FFCFF0F101F7C00FE006C
S12349C0FF0FFF0FFF0FFF0FFF0FFF0FFF0FFF0FFF0FFF0FFF0FFF0FFF0FFF0FFF0FFF0FF3
S12349E0FF0FFF0FFF0FFF0FFF0FFF0FFF0FFF0FFF0FFF0FFF0FFF007C00101F7C00FE00F5
S1234A00EF01C701C701C701C701C701C701C701C701C701C701C701C701C701C701C701EA
S1234A20C701C701C701C701C701C701C701EF01FF01FF01FF01FE007C00201F00FC030052
S1234A4080FF1F00C0FFFF00F0FFFF00F8FFFF01F8FFFF01FCFFFF03FEFFFF07FEFFFF0717
S1234A60FEFFFF07FFFFFF0EFFFFFF0EFFFFFF0EFF03FE0EFF01FC0EFF01FC0EFF01FC0EE2
S1234A80FF03FE0EFF0FFF0FFFFFFF0FFFFFFF0FFEFFFF07FEFFFF07FEFFFF07FCFFFF03CA
S1234AA0F8FFFF01F8FFFF01F0FFFF00C0FF3F0080FF1F0000FC0300201F00FC030080FFBE
S1234AC01F00C0073E00F001F8007800E0013800C0011C0080031EFC81070EFE07070EFF0B
S1234AE00F0787FF1F0EC7FF1F0EC70F3F0EC7033E0EC7013C0EC7013C0EC7011C0E87031D
S1234B001E0E0F0F0F0F0FFE070F1FF8810F1E0080073E00C0077E00E007FC01F803F80759
S1234B20FE01F8FFFF01F0FFFF00C0FF3F0080FF1F0000FC03007F0DBB39327EF60DB7C147
S1234B40082307C61232627E90344FEDE458491F016E994B554B434B434B6E4B754B7C4B42
S1234B60834B674B674B67C60232627E9034C60C32627E9034C60832627E9034C60632624E
S1234B807E9034C60432627E90342564204D504800F60DB8E7E28E4B8AAFE3BDAA0E8E42E3
S1234BA0B09F148E40109F1632638E0C567E9B02327EE761E664E7E43404E6628E505FBDD4
S1234BC09A5CBDB872E6613404E6638E50A9BD9A5C32647EB872327EE761E664E7E434046F
S1234BE0E6628E521BBD9A5CBDB872E6613404E6638E5265BD9A5C32647EB872327EE761DE
S1234C00E664E7E43404E6628E52AFBD9A5CBDB872E6613404E6638E52F9BD9A5C32647E6A
S1234C20B872327EE761E664E7E43404E6628E5343BD9A5CBDB872E6613404E6638E538DC5
S1234C40BD9A5C32647EB872327BE7627D0DBD2727F60DBCC10823033265394FEDE4584995
S1234C601F016E994C664D594D2E4D184D024CEC4CC74CB14C9C4C89C608F00DB53404E6DF
S1234C8063BD4BB03261326539C608F00DB53404E663BD4C227F0DBC326120BCC608F00DE4
S1234CA0B53404E663BD4BFCC608F70DBC326120A7C608F00DB53404E663BD4BD6C607F72B
S1234CC00DBC32617E4C58C608F00DB5E7643404E6638E5187BD9A5CBDB872E6653404E69D
S1234CE0648E51D1BD9A5C32677EB872C608F00DB53404E663BD4BD6C605F70DBC32617E2D
S1234D004C58C608F00DB53404E663BD4BFCC604F70DBC32617E4C58C608F00DB53404E609
S1234D2063BD4C22C603F70DBC32617E4C58C608F00DB5E7633404E6638E50F3BD9A5CBD17
S1234D40B872E6643404E6648E513DBD9A5CBDB8727F0DBC32627E4C58C608F00DB53404ED
S1234D60E663BD4BB0C601F70DBC32617E4C58574845454C494521004241534820464C49B5
S1234D805050455220425554544F4E5300544F204255494C442055502053504545440033CD
S1234DA00032003100327E7F0DBD7F0DBCC602F70DB67F0DB57F0DB7C601F70DB8F70DB905
S1234DC07F0DBABDB8BD8E42B09F148E40009F168E4D6FBD9B028E42B09F148E400C9F163B
S1234DE08E4D78BD9B028E42B09F148E40149F168E4D8DBD9B02BDBA5DC6F0BD9034BDB8F6
S1234E00BD8E42B09F148E40009F168E4D6FBD9B02F60DB6BD4C488E42B09F148E40109FBD
S1234E20168E4D9FBD9B02BDBA5DC63CBD9034BDB8BD8E42B09F148E40009F168E4D6FBD3E
S1234E409B02F60DB6BD4C488E42B09F148E40109F168E4DA1BD9B02BDBA5DC63CBD9034B4
S1234E60BDB8BD8E42B09F148E40009F168E4D6FBD9B02F60DB6BD4C488E42B09F148E4097
S1234E80109F168E4DA3BD9B02BDBA5DC63CBD9034C601F70DBD8ECEA3AFE38E0258C64C07
S1234EA0BDCE8D3262201EBDB869BDB8DBBDB8D5BD4B91F60DB6BD4C488E5058BD4001BDF8
S1234EC0BA39BD4B3AC64CBD8E408C000026D8C604F70DBD6FE4BDB869BDB8DBBDB8D5BD5F
S1234EE04B917C0DB6F60DB6BD4C48BDBA39BD4B3A6CE4E6E4C11426DDF60DB5C1011023F8
S1234F0000AAC605F70DBD8ECEA3AFE38E0258C64CBDCE8D3262202EF60DB5C10510220022
S1234F20775CF70DB5F60DB6BD4C48C614F70F85C61FF70F868E0200C608BD86CB4F82398B
S1234F40BDBA39BD4B3AC64CBD8E408C00002754BDB869BDB8DBBDB8D5F60DBCE761CBFD70
S1234F60C1022208F60DB6CB02F70DB6E661CBFEC10323A4E661C10523ABF60DB727045A4B
S1234F80F70DB7F60DB51027FF9B7D0DB71026FF945AF70DB57E4F25C1061026FF87F70D33
S1234FA0BC7E4F25C606F70DBD7E992AE6E4F70F85C61FF70F868E0200C608BD86CB4F826E
S1234FC039C602F70DBC7E4F02327FBD95A0C1702703326139F60DBDC10126F6F60DB7E734
S1234FE0E4C1072222F60DB9C109222A5CF70DB9C109221CF60DB7860A3D1F011F10FB0DEC
S1235000B9F70DB8326139F60DB9C10722E220DCE6E4C10722DE7F0DB9C614F70F85C61FA6
S1235020F70F868E0200C608BD86CB4F8239F60DB7C10722BF5CF70DB720B97D0DBB2601AB
S123504039C6238E0003BD86CB4F6B3939C601F70DBBC6707E972C5827010DB8505758140A
S123506018000000000000000000000F00800F00800700001C00801F00803C00C00000E0D8
S12350800400E04000E05100E07F00E02700E067008CC70386C70683E80CC9A809792009CE
S12350A063600C36C4061C80031418000000000000000000000F00801F00803F0080030062
S12350C0801700003F00C00700600700A01F00A02F00203F007CFE03807E0470FD0070DFA0
S12350E000B08700C08701780701000F000000000000001418000000000000000000000F63
S123510000800F00800700001C00801F00803C00C00000E00400E00400E00000E04100C0B5
S12351205300807F00E02700F8E70184C80282C805CAA80982200866640C3CC0031418006F
S12351400000000000000000000F00801F00803F00800300801700003F00C0070060070057
S1235160A00700A00700201F00402E00803E001CFD0300FF0470F700F09701F88701000FD5
S12351800000000000000014183C00003E00001E000070C0017E6103F23306133E0483FC35
S12351A004033006E76003FEC301FC0D00E00900F00000F00800100300000300000300307F
S12351C00700100500900500300600600300C0010014183C00007E0000FE10000E08005E58
S12351E00800FC04000F3F007FFC007D0600FB0F00C605003C0300E01700801F00000700A6
S1235200E80600EC03006401004201000001000001000000000000000000001418F00000E7
S1235220F80000780000C00100F80100C807004C04000CCA010C6C031C7806FCD104FC93D5
S123524004F83706F0610398C001800000800100C809008C0100C401006401008C0100D876
S123526000007000001418F00000F80100F80300380000780100F043003C2000FC3500F445
S12352801D00747E00F4CE008C8F00780200C00700640F00741F00723F00B00500800000F1
S12352A0C0000040000000000000000000000014180000007800007C00003C0000E00000AE
S12352C0FC0000E40500440400040A000CC4013C7C03FC3006F83104F8F304F831066C60BA
S12352E00300C0016200006304006100007900006300003600001C000014180000007800EA
S123530000FC0000FC01001C0000BC0000F801003C2000FC3500F40D00241E00EC3E00883D
S12353202F0078E500C00300D30300DC0700DC0F00780300200000300000000000000000AB
S12353400000001418000000000000C00300E00300E00100000700E00700200F0020000059
S1235360302000702800F03800F03100F0E303F0E30680670C8CE309C6600963600C79C0A7
S1235380065984036300003600001C00001418000000000000C00300E00700E00F00E000C9
S12353A000E00500C00F00E00100F00F00D01700D0D801903D00707F00CC7E00725D007080
S11A53C0C701700701400700700F00180200000000000000000000B2
S12353D7564944454F004D4F4445003460BDB8CC8E53D7AFE3BDAA0ECE56DE8E0014EF846B
S12353F7108E00168E4008AFA48E0C56BD9B028E53DDAFE3BDAA0E8E0014EF848E4018AFFC
S1235417A48E0C56BD9B02BDBA5DC678BD90347E992A544F50002564204D41444500346068
S1235437BDB8BD8E0000BD910FBDBA5DC63CBD9034BDB8BD8E0002BD90D3BDBA5DC63CBD68
S12354579034BDB8BD8E0000BD910FBDB872BDBA39C63CBD9034BDB8CC6FE28E00005FBDFA
S1235477904EBDBA5DC678BD9034BDB8CC6FE28E00085FBD904EBDBA5DC678BD9034BDB876
S1235497CC8E5429AFE3BDAA0ECE56DE8E0014EF84108E00168E4008AFA48E0C56BD9B02D5
S12354B7F61405E7E28E542DAFE3BDAA0E8E0014EF848E4018AFA48E0C56BD9B02BDBA5D77
S12354D7C678BD90347E992A7F0DBE7F1405C6288E0CE17EC04A7E54DFC603F714067F14C0
S12354F7077E54DF7E54F0BDBC1BC6288E0CE1BDC04AC603BDC6DFBD86CB6CA53839327FE7
S1235517F614075CE7E4F71407CC0003EDE3E6624F1F01BDE38A3262BD504D326139BD86A9
S1235537CB6CA038C6058E0CE1BDBFCE5D2656C6248E0CE1BDBFCE5D265F7C1405F61405A3
S1235557F114062429C608BDB018C602BD93705D2763C10110270073C671BD972CC6B4BDBC
S12355779034C603BDC6DFBD86CB6CA53839C6288E0CE1BDC0CEBDBC20BD5515F61406CB42
S123559705F7140639BD86CB40BD39BDD6BDC6248E0CE1BDBFCE5D27A1BD86CB677136C657
S12355B705BD9019C678BD9034C603BDC6DFBD86CB6CA53839C614F70F857F0F868E008D57
S12355D7C608BD86CB4F82397E556FC614F70F857F0F868E0218C608BD86CB4F82397E55AE
S11355F76F060416018A030D0320014002F6030512
S1061405000000E0
S1235607C110222E4F58491F016E9956145639563A563E5639564256395639563956465664
S12356273956395639563956395639563956367C1410397C140C397C140D397C140E397C69
S1235647140F394652454E5A59003460BDB8CCCE00148E724DAFC4108E00168E4008AFA4B1
S12356678E564ABD9B028E0DC7BDAE048E42B0AFC48E4018AFA48E0C56BD9B02BDBA5DC6B6
S123568778BD90347E992A327BE762E667E764E668E763E662C10923033265394FEDE4581F
S12356A7491F016E9956AE56D056DE56EC56FA5708571657245732574056C2E663E767E683
S12356C7648E682632657E9A5CE663E767E6648E65A732657E9A5CE663E767E6648E65EEEC
S12356E732657E9A5CE663E767E6648E663532657E9A5CE663E767E6648E667C32657E9A7F
S12357075CE663E767E6648E66C332657E9A5CE663E767E6648E670A32657E9A5CE663E764
S123572767E6648E675132657E9A5CE663E767E6648E679832657E9A5CE663E767E6648E74
S123574767DF32657E9A5C327BE762E667E764E668E763E662C10623033265394FEDE4584A
S1235767491F016E99576E578A579857A657B457C257D0577CE663E767E6648E6A17326577
S12357877E9A5CE663E767E6648E686D32657E9A5CE663E767E6648E68B432657E9A5CE6BF
S12357A763E767E6648E68FB32657E9A5CE663E767E6648E694232657E9A5CE663E767E645
S12357C7648E698932657E9A5CE663E767E6648E69D032657E9A5C327BE762E667E764E6A8
S12357E768E763E662C10723033265394FEDE458491F016E9957FE581C582A58385846582D
S12358075458625870580EE663E767E6648E6C4F32657E9A5CE663E767E6648E6A5E32653E
S12358277E9A5CE663E767E6648E6AA532657E9A5CE663E767E6648E6AEC32657E9A5CE6AA
S123584763E767E6648E6B3332657E9A5CE663E767E6648E6B7A32657E9A5CE663E767E62F
S1235867648E6BC132657E9A5CE663E767E6648E6C0832657E9A5C327BE762E667E764E692
S123588768E763E662C10723033265394FEDE458491F016E99589E58BC58CA58D858E6586B
S12358A7F45902591058AEE663E767E6648E6A5E32657E9A5CE663E767E6648E6C4F32651C
S12358C77E9A5CE663E767E6648E6C0832657E9A5CE663E767E6648E6BC132657E9A5CE6CF
S12358E763E767E6648E6B7A32657E9A5CE663E767E6648E6B3332657E9A5CE663E767E68F
S1235907648E6AEC32657E9A5CE663E767E6648E6AA532657E9A5C327BE762E667E764E62C
S123592768E763E662C10723033265394FEDE458491F016E99593E595C596A5978598659A4
S12359479459A259B0594EE663E767E6648E6E7E32657E9A5CE663E767E6648E6C9632658F
S12359677E9A5CE663E767E6648E6CDD32657E9A5CE663E767E6648E6D2132657E9A5CE6F7
S123598763E767E6648E6D6832657E9A5CE663E767E6648E6DAC32657E9A5CE663E767E683
S12359A7648E6DF332657E9A5CE663E767E6648E6E3732657E9A5C327BE762E667E764E6EC
S12359C768E763E662C10723033265394FEDE458491F016E9959DE59FC5A0A5A185A265AE0
S12359E7345A425A5059EEE663E767E6648E6C9632657E9A5CE663E767E6648E6E7E32656D
S1235A077E9A5CE663E767E6648E6E3732657E9A5CE663E767E6648E6DF332657E9A5CE628
S1235A2763E767E6648E6DAC32657E9A5CE663E767E6648E6D6832657E9A5CE663E767E6E2
S1235A47648E6D2132657E9A5CE663E767E6648E6CDD32657E9A5C53484F4F542053544158
S1235A674E445550205441524745545300327DC602E7627E5B0C5CF7140CC608E7E2C60233
S1235A87E7E2E662BD574E3262F6140DE7E4102700B05CF7140DC608E7E2C61BE7E2E6622E
S1235AA7BD568E3262F6140EE7E4102700B45CF7140EC608E7E2C634E7E2E662BD574E322D
S1235AC762F6140FE7E4102700B65CF7140FC608E7E2C64DE7E2E662BD568E3262F6141008
S1235AE7E7E4102700BA5CF71410C608E7E2C666E7E2E662BD574E3262BDBA5DC606BD90B1
S1235B07346C62E6625AE761BDB8CC8E42B09F148E40049F168E5A5EBD9B02F6140CE7E412
S1235B271026FF52E661C407E761C608E7E2C602E7E2E663BD57DE3262F6140DE7E410266A
S1235B47FF50E662CB02C407E7E4C608E7E2C61BE7E2E662BD59BE3262F6140EE7E4102636
S1235B67FF4CC607E462E7E4C608E7E2C634E7E2E662BD591E3262F6140FE7E41026FF4A24
S1235B87E662CB04C407E7E4C608E7E2C64DE7E2E662BD587E3262F61410E7E41026FF460B
S1235BA7C607E462E7E4C608E7E2C666E7E2E662BD591E32627E5B003440327C6FE42036BC
S1235BC78E724D9F14E662CB401F985F1F03E663CB104F1F011F303410AAE0EAE0DD168E34
S1235BE70C56BD9B02BDBA5DC604BD9034E6E4C10C27355CE7E4C606BD9370E762C604BD49
S1235C079370E763BDB8CC8E0DCCBDAE04C601E4E427AD8E724D9F14C640E0621F985F1F35
S1235C2701C610E0634F20AFBDB8CC8E724D9F148E40109F168E0C56BD9B02BDBA5DC63C2D
S1235C47BD90347E992A3440327B8E00CBBDC8DF6F63BDB8BDE663C104102300A7C10910D3
S1235C6723012EC10E1023016AC11510220153C608BD9370E761C604BD9370E762C601E4AA
S1235C8763102600958E724D9F14E661CB40E7611F985F1F01E661CBC0E761E662CB10E7D7
S1235CA7624F1F03E662CBF0E7621F303410AAE0EAE0DD168E564ABD9B028E724D9F14C692
S1235CC740E0611F985F1F01C610E0624F3410AAE0EAE0DD168E564ABD9B02BDBA5D6D63E4
S1235CE7102600858E00CBBDC8DFC604BD9034E663C11D102200E06C63BDB8BDE663C1048E
S1235D071022FF59C601BD9370E761C602BD9370E762C601E4631027FF6B8E724D9F14E6B9
S1235D2761CB40E7611F985F1F01E661CBC0E761E662CBF0E7624F3410AAE0EAE0DD168EA0
S1235D47564ABD9B028E724D9F14C640E0611F985F1F01E662CB204F3410AAE0EAE0DD16B4
S1235D678E564ABD9B02BDBA5DE663C10A1027FF73C112272DC1182737C11C1026FF6B8E96
S1235D8700CCBDC8DFC604BD9034C61DE7637E5C59C602BD9370E761C603BD9370E7627EFD
S1235DA75C848E00CBBDC8DFC604BD90347E5CFE8E00CBBDC8DFC604BD9034C619E7637E69
S1235DC75C59C60ABD9370E761C605BD9370E7627E5C84C60420ED8E00CDBDC8DFBDB8BD31
S1235DE78E724D9F148E40109F168E564ABD9B02C603E764BDBA39C604BD9034BDB872BDCA
S1235E07BA39C604BD9034BDBA47C604BD9034BDBA39C604BD9034BDB8726A6426D67E996D
S1235E272A5354414E44005550004352594F20434C4157004C4F434B20465245455A450080
S1235E47535441525453005354414E445550204652454E5A59003460BDB8CC8E5620BDB8EB
S1235E67AA108E724D8E001410AF84CE00168E4008AFC48E5E28BD9B02BDBA5DBDB8CC8EED
S1235E875620BDB8AA8E001410AF84108E400810AFC48E5E2EBD9B02BDBA5D8E5620BDB853
S1235EA7AABDB8DB108E42B08E001410AF848E4004AFC48E5E31BD9B028E001410AF848E39
S1235EC7400AAFC48E5E3BBD9B028E001410AF848E4010AFC48E5E47BD9B028E001410AF55
S1235EE784108E401610AFC48E5E4EBD9B02BDBA5DC63CBD9034C61EBD90347E992A48497A
S1235F0754202564204D4F524500544F004C4947485420515549434B20465245455A45008D
S1235F27465245455A450049530041435449564154454400BDB8CC8E5620BDB8AA8E724DB3
S1235F479F148E40089F168E5E28BD9B02BDBA5DBDB8CC8E5620BDB8AA8E724D9F148E4084
S1235F67089F168E5E2EBD9B02BDBA5D8E5620BDB8AABDB8DBC62E8E0CE1BDBFCE5D265210
S1235F87F6140BF0140A34048E5F05AFE3BDAA0E8E42B09F148E40049F168E0C56BD9B029E
S1235FA78E42B09F148E40109F168E5F11BD9B028E42B09F148E40169F168E5F14BD9B0291
S1235FC73263BDBA5DC63CBD9034C61EBD90347E992A8E5F2E9F148E40049F168E5F27BDFE
S1235FE79B028E42B09F148E40109F168E5F2EBD9B028E42B09F148E40169F168E5F31BD17
S12360079B0220BE30002564005354414E445550530048495400BDB8CC8E5620BDB8AA8EF8
S1236027724D9F148E40089F168E5E28BD9B02BDBA5DBDB8CC8E5620BDB8AA8E724D9F14B2
S12360478E40089F168E5E2EBD9B02BDBA5DBDB8DB8E5620BDB8AAF6140A265A8E600BAFB3
S1236067E3BDAA0E32628E724D9F148E40069F168E0C56BD9B028E6010AFE3BDAA0E8E4281
S1236087B09F148E40109F168E0C56BD9B028E6019AFE3BDAA0E8E42B09F148E40169F16DB
S12360A78E0C56BD9B02BDBA5DC63CBD9034C61EBD90347E992A34048E600DAFE3BDAA0E54
S12360C732637E606D327FF60DBF5CE7E4F70DBFCC0003EDE3E6624F1F01BDE38A32621F45
S12360E710C10127142407C67832617E972CC10226F5C67A32617E972CC67932617E972C46
S1236107BDB869BDB8DBF6140AF00DD934048E600DAFE3BDAA0E8E724D9F148E40109F168F
S12361278E0C56BD9B02BDB946BDBA5D8E3800BDB88AC606E7E2C601BDBA73F60DD93264FD
S1236147C102233DC105231DC614F70F85C61FF70F868E0093C608BD86CB4F8239C612BD99
S123616790347E992AC614F70F85C61DF70F868E0094C608BD86CB4F8239C61EBD903420AE
S1236187E1C614F70F85C61CF70F868E0095C608BD86CB4F8239C61EBD9034C60FBD90347C
S12361A720C0C603BD9370F765932709C1012731C102271739C614F70F85C61FF70F868E94
S12361C7020DC608BD86CB4F823939C614F70F85C61FF70F868E020FC608BD86CB4F82392B
S12361E739C614F70F85C61FF70F868E020EC608BD86CB4F823939C603BD9370F765942728
S123620709C1012731C102271739C614F70F85C61FF70F868E0093C608BD86CB4F82393900
S1236227C614F70F85C61FF70F868E0095C608BD86CB4F823939C614F70F85C61FF70F8665
S12362478E0094C608BD86CB4F8239398E65957E957A327EE761E664E7E48E6595BD941BDC
S12362675D2713E661F50DD62713E6E4BDC115E6E432627EC0C8E661F50DD7260CE6E4BD89
S1236287C0B4E6E432627EC0C8E6E4BDC0B4E6E432627EC153C616E7E2C601BD6259C62264
S12362A7E7E2C602BD6259C636E7E2C604BD6259C635E7E2C608BD6259C611E7E2C610BD86
S12362C762593265397F0DD9C60CBDB018C677BD972C7C0DD9F60DD9F1140A23EB39327D6C
S12362E7E7627C140ABD60CCE66253F40DD7F70DD7E6653404E663BD6259C6298E0CE1BD0E
S1236307BFCE32615D2742BD86CB524536E665BDC115E665BDC0C8C60CBDB018F6140AF1E7
S1236327140B242AF6140A4FEDE4CC0005EDE3AE62BDE38A32621F105D260BC61FF70DD7C5
S1236347BD86CB4D063B326339BD61FE20BFC62E8E0CE1BDBFCE5D26CBC628F70F85C61F68
S1236367F70F868E0439C602BD86CB4F8239BD86CB678D37F6140BC16322A9CB05F7140BB8
S123638720A27F0DBF7F14087F14097F0DD6C61FF70DD77F140AC601F7140B7F0DD8BD866B
S12363A7CB4D063B397F0DD87F0DD6C61FF70DD7BD86CB4D063B39327DE7627C14098E00C6
S12363C7CDBDC8DFE662BD5607E66253F40DD6F70DD6E665E7E2E663BD6259BD61A98E0D9C
S12363E7C1BDAEB68E805AAFE38E0DC1BDAEC5F614098E0DC1BDAFB4C612BDB0188E0DC1E2
S1236407BDAF94CC806EEDE38E0DC7BDAEC58E0DC1AFE38E0DC7BDAEC58E0DCCBDAEB6CC81
S1236427806EEDE38E0DCCBDAEC532698E0DC1AFE38E0DCCBDAEC58E0DD1BDAEB6CC806E95
S1236447EDE38E0DD1BDAEC58E0DC1AFE38E0DD1BDAEC5CC805AEDE38E0DD1BDAEC5F6141F
S1236467094FED68CC0005EDE3AE6ABDE38A1F10326A5D261AC61FF70DD6BD86CB4D063BBE
S12364877F140C7F140D7F140E7F140F7F1410326339327EE7E4BD8E8D1F10BDCA27E76186
S12364A7E6E4F50DD62632E6E4F50DD72614C6298E0CE1BDBFCE5D2706BD86CB52453632AF
S12364C762398E6595BD941B5D26E3E6613404E661BD62E532613262398E6595BD941B5D41
S12364E727C5E6613404E661BD63BE326120D0C6107E6499C6087E6499C6047E6499C602D7
S12365077E6499C6017E64998E65957E94568E6595BD941B5D2601398E65957E956A8E651A
S1236527957E9477BDB3A1C6268E0CE1BDC04ABDBC1BC601F70DD87C14087F1409C61FF7AC
S12365470DD6BD86CB4D063B8E0DC7BDAEB68E0DCCBDAEB68E0DD1BDAEB68E806EAFE38E7D
S12365670DD1BDAEC5CC809BEDE38E0DC7BDAEC5C61BBDB0187F140C7F140D7F140E7F14E0
S12365870F7F141032643901040705640000652B63AC931B931973740008164917030DC6C6
S12365A71817000000000000000000000000001700001F00C0AF00C0FF00D0F300E07D011C
S12365C7E0B300E02703E07B00D0B502402801004A02001000000200401000000000000218
S12365E700000000000000181700000000000000000000F50080FB05C0F60FE0EB1DA0C6D9
S12366071FF0FD3FECC73FF8EF1FF8D70FFAFF0BFCBF0DE8BF07FCFF0F7CFF07F0FF0FC08A
S1236627F90F00D007002000000000000000181700780700F80F00F81F40FA3F80FC3F74DC
S1236647F17FF5FE7FFDF27F7EED3FFFF57FECDF3FFFFF1FFFDF3FFFEF0F7FFB1FFFF707EB
S1236667FEFE0FF5FF37EDFF0FF8FF1F22FF03C0FE15805C01181700000000000000BC16F3
S1236687007F1580FE15D8FF6FB0FF3BF06F7FFD5F7DFEAF3EFC5B3DFBD37BFF977EFE7F88
S12366A72BFEEF5FFEFD1EFDEB1FFEFF17F8F71DD0ED2F20FD0B80EA0F00B4121817000096
S12366C70000BA0A002509807A1320DF2CE0B62BAA3F7A68C72DFA3D5EF2C37CDEAF58F466
S12366E75413FDDB6AFCAB17F57E2AFED10DF06E1FA4D12628B50F40D515006A0B00980272
S1236707005004181700000000400000340A00C910405B2300AE0CE85A6BC81652D02D360C
S12367276C9328F0AD52AAAB507AAB03FC5229EAAC12D85115786525404914B0900B00A57F
S12367470600A80C00121100A0021817000000000000002000004A02005A04408211905AF9
S12367672A801420904445200B10D02422AA4A04D09A20B42009A844026089084A291150B4
S1236787420280200910400280440A00900000000018170000000000000090080022010067
S12367A70008002441400804002808400100005401A00004004200A00404008020A8120265
S12367C7000000201405004100000000008000000000000004000000181700000000000081
S12367E7004000008000000001001204000000000400004800400004801000000000801007
S12368070004800020000040020000900000000000000000000000000000000000000018DF
S1236827170000000000000000000000000000000000000000000000000000004000008076
S123684710000000000010000080000000000000000000000000000000000000000000008D
S12368670000000000001817000000000000000000000000000000000000000000000000DE
S1236887000800003600007E00007E00007C00005C000020000000000000000000000000BB
S12368A700000000000000000000000000181700000000000000000000000000000000009E
S12368C70000A00100FE0100FE0300FF0380FF0700FE0700FF0300FF0300FE0300FA05007B
S12368E7F401008000000000000000000000000000000000181700000000000000000000E9
S1236907000000000000680080FF0080FF00E0FF00C0FF01E0FF01C0FF01E0FF03E0FE0106
S1236927C0BF00C0EF0180FE0000640000000000000000000000000000000018170000000C
S123694700000000000000000000100000700180F703C0FB0580FE03A0FF07C0FE0360BF6A
S123696706A0FF05D07E07E0F600A0FD03C0AD00000A000000000000000000000000000020
S12369870000181700000000000000000000000000000000900000240100590280B4050074
S12369A77D01A06A0BC0DB02007601105403A0540500A90240120040040000000000000084
S12369C700000000000000000018170000000000000000000000000000000000000000007D
S12369E70054000008004050004092008024020091000022000080000024000000010000D0
S1236A0700000000000000000000000000000000181700000000000000000000000000003C
S1236A2700000000000000000000000000000500000800000200000000000000000000003C
S1236A4700000000000000000000000000000000000000000000001817001F00C0FF03F02B
S1236A67230738000E1C1E1C8E7F08C67F38E2F339F7C03BE3AE7B731C33F2087373887B02
S1236A87F3C13FE0E31987FF3C84FF1C0E3F0C1C000F38C00FE0F307807F01001E00181709
S1236AA7003F0080FF01E0E0077880071C001F8C7F1CCEFF1CEEFF3DE6803BE38C3B738E85
S1236AC773739E73F38073F3C073E3D17BE6FF39C6FF188C7F1C1C000C30000FB08007C0F9
S1236AE7FF01003F001817001A00C0BF00D0FF01F8F30F1CA01F0E3F1C867F3C82F319E2C5
S1236B07E139E6C233F38473739E63738663F7C273E7E033E6EB31C67F108C7F181C3D0CB6
S1236B2738000E708107E0BF0200B7001817007C0080FF00F0FF03F0C30FFC001E1C7F1809
S1236B479EFF38CEFF31E6E023E78063E3C863E38E63E38E63E38C63E3C063E6F333CCFF3F
S1236B67218CFF18183C1CF80006F08107C0FF01007E001817003C0040FF00F0E703F801A5
S1236B870E78001C187E389CFF109EFF70CCE303FEC167EF0867678827661C67EFBA63EE93
S1236BA78177CEE7230EFF3108FF381C3C1C38000E70E207E0FF01007C001817007E00C0A1
S1236BC7FF01F0800678000618001C1CFF188CFF31CEFF33EFC563E78167E78067E73C6755
S1236BE7E73867EE9863EE8033DEFF3B9CFF391CFF187C001CF0000FF08303C0FF00007E11
S1236C07001817807600A0FE03F0400738000E185E1C0CFF1804FF31C6EB33E68373E7A1F5
S1236C2777E33067E33C67E79067E6A133CEC323CCE7201EFF301C7E38FC021CF8E70FC0CC
S1236C47FF0580FE01002C001817003F00C0FF01F0C00730800F1C1E0C8CFF18C2FF19E62D
S1236C67E733E38163E39863E3B863E3B863E38963E38073E28333C6FF398EFF3C0C7F1CA3
S1236C873C801FF8E107E0FF0780FF00001F00181700110080FF00E0F70078C2071C96031E
S1236CA78E7F0FCE711ECEC00867E03CC7E011CFE038CFFC308FFF780F7F3C5E101C3E0005
S1236CC70C7E001EFC8B0FFCFF07F8FF03E0FF0180FF008004001816005F00E0FF00E0FF41
S1236CE7033C80071C0F1EEC3F1CE6781C66781C33F01833F03833F838E77838C73F3C8766
S1236D070F3C1E001E3E801FFCA21FFCFF0FF8FF07E0FF03C0FF00005F0018170010000000
S1236D273D00407F01E0F50368E10778000F38021E9E1F3EEE3F3C663F3C77783C22383E3C
S1236D4736387C3E303E67303EE61E7ECC4F1F0C811F18C00FF8FC0FF0FF07E0FF01003F56
S1236D67001816003E00F0FF01F0FF03F8F0071CC00F0C800F0E871FC70F3EE61F1FE71F53
S1236D873EF73C3E37303E37303F37303E66381FE6181FEE8F0F18C70738C007F8F803C04B
S1236DA7FF00003F00181700900080FF00C0FF03E0FF0FF0FF1FF8E81F3C003F18003E1CA2
S1236DC7043D1E7F788FFF78869F798E8379C483719E03738881393CC73978FF38E0341CFB
S1236DE7F0210F80F70380FF000044001816803E00C0FF00F0FF01F8FF07FCFF0F7ED10F2A
S1236E077E001F1E001E0F7C380FFF3887C739C70733C70333C603338E87198EC7190EFF5B
S1236E270D1E3C0E78000FF0FF01C0FF01803E001817007E00C0FF03F0FF07F89F0FF801D9
S1236E470CFC40187CF9193FBC333E06733E063E1F0E363E0E221E0F771E7E331EFE3B3EF9
S1236E67FC3C3C200E78000FF0430BE0D703407F01005E000004001816003F00C0FF00F0A8
S1236E87C707F80007F838067CFC1D3EC6193E87191F033B3F033B1F033B1FCF3B1FFE399E
S11E6EA73EFE191FFC387E381C7C000CFC000EF8C307F0FF03E0FF03001F000B
S10514080000DE
S105140A0000DC
S108140C0000000000D7
S9030000FC
