S123400039327FF61813F1142022076FE4E6E43261396FE4F61814F10F792309E6E4C801AD
S1234020E7E4326139C601E7E4E6E4C801E7E420F17F14207F1421397F0F787F0F79397D81
S1234040142126057D0F7A270AC61CBDC0B4C61C7EC153C61CBDC0B4C61C7EC0C87F0F7A3B
S12340607E403FF60F7826057F0F795F395AF70F78BD403FC60139F61813F114202308F67D
S12340801814F10F792201397C0F7ABD86CB40083B7E403FF61813F114202308F61814F104
S12340A00F792201397C1421BD86CB40083B7E403FC1012704BD407739BD409439327FF6CE
S12340C01813E7E4F114202308F61814F10F79220532617E403F6DE427F77C0F78BD86CBC4
S12340E0404E3B8E1882BDB7187C14207C0F7932617E403FF60F7A2610F614212601395A61
S1164100F71421BD40BDC601395AF70F7ABD40BDC601392E
S10514200000C6
S12341133460327AE763CE3964C103233FE765CE3964108E00001F3030ABC655E78431A88F
S123413310108C008026EF3341E665CBFCE765C10322DFE663CBFCE762C403E763646264FC
S123415362E6624F1F0133893965E6638E48C73AE684E764108E00001F3030ABE664E78483
S123417331A810108C008026EF326635E03460318901E0338820CCFFFFED84ED8901E03095
S1234193023440ACE126EFC603E784C6C0E70F308810341010ACE126EE35E034603389011D
S12341B3F0318810CCFFFFED84ED8901F030023420ACE126EFC601E784C680E70F3088102F
S12341D3341011A3E126EE35E034205858584F5849108EFFFF308B10AF8110AF8110AF8163
S12341F310AF8110AF8110AF8110AF8410AF0235A07E992A534C414D2054494C5400BDB8CF
S1234213CC8E48C89F148E400D9F168E4207BD9B02BDBA5DC6F0BD903420F954494C540048
S1234233BDB8CC8E48C89F148E400D9F168E422EBD9B02BDBA5DC6F0BD903420F9544F55D1
S1234253524E414D454E54004D4F444520454E41424C4544005052455353205354415254C7
S1234273204E4F5700327FBDB8CC8E4B649F148E40059F168E4250BD9B028E4B649F148EB1
S123429340109F168E425BBD9B028E42B09F148E401C9F168E4268BD9B02BDBA5DC607E791
S12342B3E4C63CBD90346AE426F77F0F327E992A434F494E20444F4F5220495320434C4FDD
S12342D3534544004F50454E20434F494E20444F4F5200544F2055534520425554544F4E70
S12342F353003460BDB8CCCE42B08E0014EF84108E00168E4003AFA48E42C3BD9B028E0057
S123431314EF848E400AAFA48E42D7BD9B028E0014EF848E4011AFA48E42E6BD9B02BDBA05
S12343335DC6B4BD90347E992A4C4F434154494E472042414C4C5300504C454153452057BD
S12343534149542E2E2E003460BDB8CCCE4B648E0014EF84108E00168E400AAFA48E433C8B
S1234373BD9B028E0014EF848E4015AFA48E434BBD9B02BDBA5DC678BD90347E992A564F92
S12343934C554D4520256400BDB8CCF618EAE7E28E4391AFE3BDAA0E8E4B649F148E4009F8
S12343B39F168E0C56BD9B02F618EABD4113BDBA5D32630D1D27040D1F2708C605BD901994
S12343D37E992AC6B4BD903420F6434F4E54494E55452047414D4500256400494E534552CB
S12343F35420434F494E5300464F522045585452412042414C4C005448454E205052455367
S123441353004255592045585452412042414C4C00327F8E56C2BDB8AAF60F33E7E41027B3
S12344330091BDB8CC8E3800BD41808E4D899F148E40059F168E43DDBD9B02F60F33E7E2A7
S12344538E43EBAFE3BDAA0E8E42B09F148E04039F168E0C56BD9B268E42B09F148E7B0358
S12344739F168E0C56BD9AF2F60F33C40132635D27498E4D899F148E40109F168E43EEBDB2
S12344939B028E4D899F148E401A9F168E43FBBD9B02BDBA5DE6E4F10F331026FF7BC6083F
S12344B3BD9034E6E4F10F3327F4F60F33E7E41026FF6FC65ABD90347E992A8E4D899F14AC
S12344D38E40109F168E440ABD9B028E4D899F148E401A9F168E4415BD9B0220B5504C4155
S12344F3594552202564005052455353204C41554E4348003460BDB869BDB8DBF60C47E7B2
S1234513E28E44F0AFE3BDAA0ECE4B648E0014EF84108E00168E4009AFA48E0C56BD9B021F
S12345338E3800BD4180BDB9468E0014EF848E4016AFA48E44FABD9B02C612E7E2C60DBDC1
S1234553BA737E992A42414C4C205341564544003460BDB869BDB8DBF60C47E7E28E44F092
S1234573AFE3BDAA0ECE4B648E0014EF84108E00168E4008AFA48E0C56BD9B02BDB9468E1A
S12345930014EF848E4016AFA48E4558BD9B02BDBA5DC606E7E2C618BDBA737E992A4652B7
S12345B3454520504C41590025642F2564204352454449540025642025642F256420435249
S12345D345444954530025642043524544495400256420435245444954530025452E003266
S12345F37D7D1849265AF618EBE7E4262BF618ECC1011027009634048E45E3AFE3BDAA0E36
S12346133263BD86CB6392385D270A8E45EEAFE3BDAA0E3262326339F6183EE761C104277B
S123463358C1062740F618ECE7622620E6613404E66134048E45BBAFE3BDAA0E326420C249
S12346538E45B1AFE3BDAA0E326220B6E6613404E6613404E66434048E45C8AFE3BDAA0E2C
S123467332657E4615E6E4C1022730C10426B6C602E7E4C603E76120ACE6E4C1021026FFFC
S1234693A4C601E7E4C602E7617E463834048E45D9AFE3BDAA0E32637E4615C601E7E4C610
S12346B303E7617E4638494E5345525420544F4B454E5300535749504520434152440049C8
S12346D34E534552542042494C4C5300505245535320535441525400BDB869BDB8DBBD4536
S12346F3F28E4B649F148E40099F168E0C56BD9B02BDB946BD86CB42E0385D2621F6184BCA
S12347132728C1012730C1022738C10327408E4B649F148E40169F168E0C567E9B028E4665
S1234733DFAFE3BDAA0E326220E48E43EEAFE3BDAA0E326220D88E46B9AFE3BDAA0E32626A
S123475320CC8E46C7AFE3BDAA0E326220C08E46D2AFE3BDAA0E326220B4327FBD46EB0D7F
S12347731D2716C60CE7E40D1F260EC60CE7E2E661BDBA73C63C7E993BC614E7E420EC44B6
S1234793414E47455200BDB8BDF60F31C401271C8E48C89F148E40109F168E4792BD9B0280
S12347B3C604E7E2C618BDBA737E992A8E48C89F148E40079F168E4792BD9B028E48C89F6D
S12347D3148E40179F168E4792BD9B0220D2434F494E20444F4F52204953204F50454E00D6
S12347F34849474820504F5745520049532044495341424C454400327F6FE4BDB8CCBDBA25
S12348135DC60CBD9034BDB8CC8E4B649F148E40069F168E47E1BD9B028E4B649F148E4049
S1234833109F168E47F3BD9B028E4B649F148E401A9F168E47FEBD9B02BDBA5D8E03D8BDC6
S1234853C8DFC612BD90346CE4E6E4C10526ACC6B4BD90347E992ABD86CB69FB385D270E17
S1234873BD86CB6A9B38C678BD90347E992ABD86CB68423820F047414D45204F5645520060
S1234893BDB8CC8E4B649F148E40109F168E4889BD9B02BDBA5DC678BD90347D0F322711FB
S12348B3BDB8CCBD4BFCBDBA5DC63CBD90197E992A7E992A00010515557F0F7B39C605F76A
S12348D30F7B397D0CD627127D0020260D0D1D260AF60F7B27165AF70F7B39BD86CB6C43AE
S12348F3385D26EDBD86CB40473B20E58E4911C621BDB0485FBD8E6EC605F70F7B39BD98AE
S123491308BD50160D1D27040D1F27107D002027037E8F8DBD86CB44213820F5C602BD9067
S10C493334BD86CB4D063B20E3A4
S123493C3460327AE7631F1058495849ED615849584958495849A3611F0110270083E66363
S123495C4F1F0240508200ED641F103420A3E11F03C630BD9370E7E4C1102740C114273C4A
S123497CC1152738C1162734C1172730C118272CC1192728C11A2724C11B2720C128271CB7
S123499CC1292718C12A2714C12B2710C12C270CC12D2708C12E2704C12F26B5C606E7E2CE
S12349BCC6FFE7E2E662BDC559E665BD90341E03E3661E031F3030AB32628C00001026FF50
S12349DC90326635E03460327DAF6110AE696DA4272CAE61E684E7E433843341E6A4E7E2DA
S12349FCE621E7E2E662BDC559E6C4E7623262C1FF26E7E622BD903431236DA426D43263D3
S1234A1C35E03440327FE7E43384E68427193404E641E7E2E662BDC559E642BD90343343A6
S1234A3CE6C432625D26E7326135C03460327FE7E43184EE6730A4E6E4BD4A1E335F118323
S1234A5C000026F1326135E010220A00000030400630220630550630220630400600000014
S1234A7C346033848E4B07C625BD8DEF318812E6C4E7A4E641863C3DED218E4AA6C626BD6C
S1234A9C8DEFAF2310AF881235E03440FE000C30C812C602E704EE84E6C4BDC08C5D26193E
S1234ABC7E8F8DC606BD9034AE418C016722208C00B322278C0000272BE6C4BDC028C6034C
S1234ADCBD9034AE418C021B22D98C016723E0C606BD9034AE418C00B323D9C606BD9034E7
S1234AFCAE4126D5E6C4BDC0FB20B53440BE000C338812EC4110830009231AC60ABD903453
S1234B1CBDCEBF5D26F5EC41C3FFF6108300092304ED4120E6CC0000ED41C61EBD90347EFA
S1234B3C8F8D327FE7E4C625BD8E408C0000260C2011C625BD8E128C00002707E6E4E18823
S1234B5C1226EF3261393440BD4B3E33848C00002712CC0000ED8813C61EBD903430C4352A
S1234B7C407E8F0235C0BD86CB40523B7F0C8FBD4D932008BD4C837D0C8F26F07D0C462668
S1234B9CF3BD4D8B20F13440327BE7637D160627346F642025E6645CE762E1632715E6642C
S1234BBC86053D1F0330C91607BDAE04E664BD4C49E662E764F11606240B6D6326D7E664E4
S1234BDC5CE76220D9326535C0BD45F28E42B09F148E401D9F168E0C567E9B02BD4E16395F
S1234BFC0D1D27057D0C482608BD4BE55FBD4BA239BD4E165FBD4BA239BDB8CCBD4BFCBDAC
S1234C1CBA5DC678BD90347E992A3440327EF616065A86053D1F01F60C474F338B1F3058E8
S1234C3C495849C34EE3FD0F7C326235C03460327E4FFE0F7C30CBE68486093D1F0131893E
S1234C5C4E53EE22DF14E6241F985F1F01E6254F1F033410AAE0EAE0DD168E0C56ADB432C6
S1234C7C6235E0BD4C26393460327DF60F84102600A7BD59327D0F81102600B9C60CF70C73
S1234C9CA8F73FBCBE0F7E31893800F60F824F1F03340630893A00341030A4BD8807F60C92
S1234CBCA75CF70CA8F73FBC3264BDB946F60F835A102700A0F70F83BDBA39FC0F7EC300A4
S1234CDC10FD0F7E7A0F802647F60C475A4FFE0F7C30CBE68486093D1F0131894E53EE2669
S1234CFCFF0F7EEE223041C63DBD87215CF70F80E628F70F82F60F814FEDE4C3FFFF1F8998
S1234D1C4F5959C401E762F70F81E662C1012753C602326335607E90345AF70F84BD5932F9
S1234D3CBD59FFBD86CB40263BBDBA39C608326335607E9034F60F824F1F02FE0F7E30C92A
S1234D5C380034065FBD87D53262BDB946F60F835A1026FF60C605F70F83BD86CB40263B7F
S1234D7C7E4CD4C606F70F84326335607E9034BDB881C6087E90343460327E7D0C46262054
S1234D9CBDB869BDB8DBBD4BF8BDB946F60C47BD4BA2BDB8725FBD4BA2326235607EBA5D68
S1234DBCC60CBDB85BBDB8DBBD4BF85FBD4BA2BDB946C60CF70F84C605F70F83C601F70F9F
S1234DDC81F60C475A4FFE0F7C30CBE68486093D1F0131894E53EE26FF0F7EEE223041C624
S1234DFC3DBD87215CF70F80E628F70F82326235E042414C4C20253169003460BD45F2CE80
S1234E1C42B08E0014EF84108E00168E601DAFA48E0C56BD9B02F60C48E7E28E4E0DAFE381
S1234E3CBDAA0E8E0014EF848E201DAFA432638E0C5635607E9B029B0248C8400A0030103E
S1234E5C9B2642B000010000009AF242B07F010000009B2642B000140000009AF242B07FBC
S1234E7C140000009B2648C800010010109AF248C87F0D00D0109B2648C8000D00D0109BAB
S1234E9C26422B00010000009AF2422B7F150000009B26422B00150000009AF2422B7F0115
S1234EBC0000009B26404100010010089AF240417F120128089B26404100120120089AF29F
S1234EDC40417F010018080100000000000000000000000000000000000000010200000588
S1234EFC0D00000C0600000000000000000000010203000C020300010F030001020700003F
S11A4F1C000000010203040C020304010F030401020E040102030D1C
S1234F33C630BD8F4BC6157E97D18E4F45C6307EB05AC60FBD9019C616BDCCFC5D260DC67A
S1234F5305BD9019C616BDCCFC5D27F3C615BD972CC614BD901920DFF10F8F2306BF0F9047
S1234F73F70F8F3939393939397E8F8D7EC81E3440327CE7613384F60F86E7628E0F876FA9
S1234F9363C601E7E4E561270A6D842726E662E10124206C633002E663C104271268E4E668
S1234FB3E4E56126E46C633002E663C10426EE326435C0F60F85E7E42706E784E662E701DB
S1234FD36D6326046DE4260930C4326435407EC81EF60F92CA01F70F92BDC79720EA327F0D
S1234FF3E7E48E508FC632BDB048E6E4E78812326139C631BD8F4BBDC797F60F92CA02F79B
S12350130F92397F0F8FCC0000FD0F90BD86CB43303BBE0F907EC769CC0000FD0F87FD0FE8
S123503389FD0F8BFD0F8D7F0F92BD501639BD5016393440327D6F62E6624FEDE45849CEFD
S12350530F8730CBE684270B5AE78426066F016D62270C6C62E662C10323DF326335C0F64D
S12350730F92C4FEF70F92BD5016C601E76220CAF60F92C4FDF70F92BD501639342010BE93
S1145093000CBD5005E6A812BD9034BD50837E8F8D9F
S12350A48E3800BF0CA9393460BE0CACAE07CC02003410A3E1338938008E000010AEC4100C
S12350C4AF893A0010AE4210AF893A0210AE4410AF893A0410AE4610AF893A0610AE4810A8
S12350E4AF893A0810AE4A10AF893A0A10AE4C10AF893A0C10AE4E10AF893A0E33C810302B
S12351048810341010A3E126B335E03460327EBE0CACAE07AFE4BE0CA99F08ECE44050822B
S1235124001F0133893C009E08ECE410AE8410AFC410AE0210AF4210AE0410AF4410AE06CA
S123514410AF4610AE0810AF4810AE0A10AF4A10AE0C10AF4C10AE0E10AF4E33C810308833
S123516410C3FFF026C5DC08E3E4FD0CA910833A002704326235E07F0CAB326235E0BE0CD3
S1235184ACEC07405082001F0130893A00BF0CA9393460BE0CACAE07CC02003410A3E1330E
S12351A4893A008E380010AE8410AFC410AE0210AF4210AE0410AF4410AE0610AF4610AE8C
S12351C40810AF4810AE0A10AF4A10AE0C10AF4C10AE0E10AF4E33C810308810C3FFF0268E
S12351E4C535E03460327EBE0CACAE07AFE4BE0CA99F0833848E000010AEC410AF893A0068
S1235204EC42ED893A0210AE4410AF893A04EC46ED893A0610AE4810AF893A08EC4AED89FA
S12352243A0A10AE4C10AF893A0CEC4EED893A0E33C810308810ACE426BEDC08A3E4FD0CD7
S1235244A9108337FF22037F0CAB326235E08E3800BF0CA93934408E3801EE84EF8901FF38
S1235264EE02EF890201EE04EF890203EE06EF890205EE08EF890207EE0AEF890209EE0CED
S1235284EF89020BEE0EEF89020D3088108C3A0126C835C03440FE0CA98E3A0FE6C4E78479
S12352A4E6C810E78810E6C820E78820E6C830E7883033C8403088408C3C0F26DFFC0CA90F
S12352C4C30001FD0CA910833810270235C07F0CAB35C08E380FBF0CA93934408E3800EE82
S12352E484EF890201EE02EF890203EE04EF890205EE06EF890207EE08EF890209EE0AEFF4
S123530489020BEE0CEF89020DEE0EEF89020F3088108C3A0026C835C03440FE0CA98E3A89
S123532400E6C4E784E6C810E78810E6C820E78820E6C830E7883033C8403088408C3C003E
S123534426DFBE0CA98C38002707301FBF0CA935C07F0CAB35C0BE0CACAE07BF0CA939AE72
S12353649F0CA9E6893800E7893A00E6893810E7893A10E6893820E7893A20E6893830E7C0
S1235384893A30E6893840E7893A40E6893850E7893A50E6893860E7893A60E6893870E741
S12353A4893A70FC0CA9C30002DD08FD0CA9BE0CACEC07C300809E083406ACE12701397FAC
S12353C40CAB39BE0CACAE07BF0CA9393460327EBE0CA9E601D70AE6844F1F0230A93A0091
S12353E433A93800D60A53D7096F61D609E484E7E4E784D60AE4C4D708E6E4DA08E784D6DD
S123540409E48810E7E4E78810D60AE4C810D708E6E4DA08E78810D609E48820E7E4E7886A
S123542420D60AE4C820D708E6E4DA08E78820D609E48830E7E4E78830D60AE4C830D708FE
S1235444E6E4DA08E7883030884033C8406C61E661C1081026FF9410BE0CA93022BF0CA9D7
S12354646D0126037F0CAB326235E08E56A2BF0CA9393460327CFE0CA9E6C4C1FF274E3077
S123548441AF623142109F083043AFE48E00002002E6C453E4893800E7893A0010AE62E680
S12354A4A453E4893801E7893A01109E08E6A453E4893802E7893A0210AEE4E6A453E489CA
S12354C43803E7893A0330048C020026C4326435E08E56E0BF0CA9393460327EFE0CA9E637
S12354E4C04FFF0CA95849584958495849EDE4C33800AEE431893A001F0130029F08301EC4
S1235504AE84AFA19E08EC81EDA1EC81EDA1EC81EDA1EC81EDA19F0830A4109E08312210DB
S12355249F08313E10AEA410AF81109E0810AEA410AF84109E0810AE2210AF02E6C04FFF05
S12355440CA95849584958495849EDE4C33800AEE431893A001F0130029F08301EAE84AF90
S1235564A19E08EC81EDA1EC81EDA1EC81EDA1EC81EDA19F0830A4109E083122109F083184
S12355843E10AEA410AF81109E0810AEA410AF84109E0810AE2210AF026DC426037F0CABE1
S12355A4326235E03460327CFE0CA93041AF62BF0CA9E6C4C1FF275A3142109F083043AF18
S12355C4E48E00002002E6C4E4893800EA893A00E7893A0010AE62E6A4E4893801EA893A8C
S12355E401E7893A01109E08E6A4E4893802EA893A02E7893A0210AEE4E6A4E4893803EAF7
S1235604893A03E7893A0330048C020026B8326435E0BDB9467F0CAB326435E050A450AB38
S1235624510F0200400850A450AB510F0400201050A450AB510F060010205182519551E7BF
S1235644020040085182519551E7000040085252525952980200001052525259529800003B
S1235664001052D752DE531D0200001052D752DE531D00000010535AB946536301570A405A
S1235684535AB946536301578A4053C7B94653D002580A0053C7B94653D002584C000103F8
S12356A4070F1F3F7FFF0103070F1F3F7FFF0103070F1F3F7FFF0103070F1F3F7FFF546F4B
S12356C4547655A804000008546F547655A802000008546F547655A8000000080F100E118B
S12356E40D120C130B140A150916081707180619051A041B031C021D011E1F0054D5B946C8
S123570454DC020000080000000100020003000400050006000700080009000A000B000CF9
S1235724000D000E000F0080008100820083008400850086008700880089008A008B008C69
S1235744008D008E008F0100010101020103010401050106010701080109010A010B010C3C
S1235764010D010E010F0180018101820183018401850186018701880189018A018B018C19
S1235784018D018E018F0082018B000D018C00080186000A0108000C0087000F01090180DD
S12357A40002008301890005018D008D0006018200010183008A018A01020085018E0086F2
S12357C4018F010100030185010B0187008B0009008C010E0106000B008E010D008F0004A2
S12357E400880107008401000188010C0080000001050184008900070081000E01030104C3
S12358040181010A010F000F00F0010F01F0020F02F0030F03F0040F04F0050F05F0060FB6
S123582406F0070F07F0080F08F0090F09F00A0F0AF00B0F0BF00C0F0CF00D0F0DF00E0FC8
S12358440EF00F0F0FF000000FF00F0F0EF00E0F0DF00D0F0CF00C0F0BF00B0F0AF00A0F95
S123586409F0090F08F0080F07F0070F06F0060F05F0050F04F0040F03F0030F02F0020FD0
S123588401F0010F00F0000F0000BE0F93F60F95D708E689FE00E78430010A0826F4FC0FE7
S12358A493C30010FD0F937A0F9626DE39BE0F93F60F956F805A26FBFC0F93C30010FD0F9E
S12358C4937A0F9626E739BE0F93F60F95638430015A26F9FC0F93C30010FD0F937A0F960E
S12358E426E53934609F083089FE00EE84109E08EFA4EE02EF22EE04EF24AE06AF2635E00B
S123590434403389FE00C608D708E6C4E784E6C810E78810E6C820E78820E6C830E7883078
S11159243088400A0833C8400D0826DE35C01E
S12359323460327ABE0CA7AF64BDB869FC0CA7ED62CE0CA7EC64E7C4108E3FBEE7A4BDB999
S123595246EC641F894FE7C4E7A4EC621F894FEDE48E0CA8E7848E3FBCE784BDB946ECE42B
S1235972E7C4E7A4EC628E0CA8E7848E3FBCE784326635E03460327CBE0CA7AF62C60D8E1A
S12359920CA8E7848E3FBCE784EC621F894FEDE4CE0CA7E7C4108E3FBEE7A4BD8B3AEC62A6
S12359B2E7C4E7A4BD8B3AC60C8E0CA8E7848E3FBCE784ECE4E7C4E7A4BD8B04EC62E7C45B
S12359D2E7A4BD8B04ECE4E7C4E7A4EC628E0CA8E7848E3FBCE784326435E0BD8BA67EB816
S12359F272BD8BA68E3A00BDB88A7EB8723460327EBE0CA7AFE4C60C8E0CA8E7848E3FBC72
S1235A12E784CE0CA7ECE4E7C4108E3FBEE7A4BD8B04ECE41F894FE7C4E7A4BD8B04ECE47E
S1235A328E0CA8E7848E3FBCE784326235E03460327EBE0CA7AFE41F108E0CA7E7848E3F16
S1235A52BEE784CE0CA8C60DE7C4108E3FBCE7A4BD8B04ECE41F894F8E0CA7E7848E3FBE99
S1235A72E784C60CE7C4E7A4BD8B04ECE4E7C4E7A4326235E03460327EBE0CA7AFE4CE0C80
S1235A92A8C60CE7C4108E3FBCE7A4BD8B04ECE4E7C4E7A4326235E08E001EBF199B8E01FE
S1235AB297BF199DC601F7199FC61EF719A07F19A1C602F719A239BE199B8C001E27025F2A
S1235AD239BE199D8C019726F6BE199F8C011E26EEFC19A1C802DD08405082009E0834102D
S1205AF2AAE0EAE01F894F5959C401C801398E5B067EBB6D0A199B080000015AAA6F
S10B199B000000000000000040
S9030000FC
