S12340003739394D004D202054004D20205420204C003460BDB8DBCE6AB18E0014EF841066
S12340208E40108E001610AF848E4003BD9B02BDBA5DC60CBD9034BDB8DB8E0014EF84CE32
S1234040001610AFC48E4005BD9B02BDBA5DC60CBD9034BDB8DBCE6AB18E0014EF848E0093
S12340601610AF848E400ABD9B02BDBA5DC60CBD9034C61E35607E90344C494748542041F6
S12340804C4C204D2054204C00352054494D455300544F004C494748542045585452412081
S12340A042414C4C003460BD4012BDB8DB8E56C2BDB8AA108E00148E42B0AFA48E4004CE04
S12340C00016AFC48E4079BD9B02CE42B0EFA4CE400A8E0016EF848E4089BD9B028E42B0FF
S12340E0AFA48E4010CE0016AFC48E4091BD9B02CE6CECEFA4CE40168E0016EF848E409425
S1234100BD9B02BDBA5DC678BD90347E992A4C49474854204352594F434C4157003460BD20
S12341204012BDB8DB8E56C2BDB8AA108E00148E42B0AFA4CE00168E4004AFC48E4079BD62
S12341409B028E42B0AFA48E4010AFC48E4091BD9B028E6CECAFA48E4016AFC48E410EBDB7
S12341609B02BDBA5DC678BD90347E992A414456414E434520424F4E55532058003460BD68
S12341804012BDB8DB8E56C2BDB8AA108E00148E42B0AFA4CE00168E4004AFC48E4079BD02
S12341A09B028E42B0AFA48E4010AFC48E4091BD9B028E6CECAFA48E4016AFC48E416DBDF8
S12341C09B02BDBA5DC678BD90347E992A327FF60E425CE7E4F70E42CC0003EDE3E6624FCF
S12341E01F01BDE38A32621F10C10127142407C61932617E972CC10226F5C61B32617E976C
S12342002CC61A32617E972C322058003320580034205800352058003000424F4E55530055
S1234220BDB8DBF60E40C1031027006E224CC102102700738E4218AFE3BDAA0E32628E6A27
S1234240B19F148E40109F168E0C56BD9B02BDBA5DC63CBD9034BDB8CC8E56C2BDB8AA8E2E
S12342606AB19F148E40109F168E421ABD9B02BDBA5DC678BD90347E992AC1042710C105FF
S123428026B28E4214AFE3BDAA0E326220B08E4210AFE3BDAA0E326220A48E420CAFE3BD89
S12342A0AA0E32627E423E8E4208AFE3BDAA0E32627E423EC602BD9370F70E412705C10183
S12342C0271739C614F70F85C61FF70F868E01F8C608BD86CB4F823939C614F70F85C61F9D
S12342E0F70F868E01F9C608BD86CB4F823939C603BD9370F70E412709C1012731C1022784
S12343001739C614F70F85C61FF70F868E00C8C608BD86CB4F823939C614F70F85C61FF7BD
S12343200F868E00C7C608BD86CB4F823939C614F70F85C61FF70F868E00C6C608BD86CB6A
S12343404F823939C603BD9370F70E412709C1012731C102271739C614F70F85C61FF70F73
S1234360868E00BDC608BD86CB4F823939C614F70F85C61FF70F868E00BFC608BD86CB4FFB
S1234380823939C614F70F85C61FF70F868E00BEC608BD86CB4F8239397D0C46260139C6EF
S12343A0288E0CE1BDBFCE5D26F4F60E3E27077D0E3F1026006D7D0E3D27367D0E3F102693
S12343C000B55D102600DAC62DBDC0B4C62DBDC0C8C62EBDC0B4C62EBDC153C62FBDC0B44B
S12343E0C62FBDC0C87F0E3DC601F70E3E7F0E3F395D26597D0E3F27A5C62DBDC0B4C62D1D
S1234400BDC153C62EBDC0B4C62EBDC0C8C62FBDC0B4C62FBDC0C8C601F70E3D7F0E3E7FB6
S12344200E3F39C62DBDC0B4C62DBDC153C62EBDC0B4C62EBDC0C8C62FBDC0B4C62FBDC113
S123444053C601F70E3D7F0E3EF70E3F39C62DBDC0B4C62DBDC0C8C62EBDC0B4C62EBDC0C2
S1234460C8C62FBDC0B4C62FBDC1537F0E3D7F0E3EC601F70E3F39C62DBDC0B4C62DBDC116
S123448053C62EBDC0B4C62EBDC153C62FBDC0B4C62FBDC0C8C601F70E3DF70E3E7F0E3F63
S12344A039C62DBDC0B4C62DBDC0C8C62EBDC0B4C62EBDC153C62FBDC0B4C62FBDC1537F0E
S12344C00E3DC601F70E3EF70E3F397D0C46260139C6288E0CE1BDBFCE5D26F4F60E3E2744
S12344E0077D0E3F1026006D7D0E3D27367D0E3F102600B55D102600DAC62DBDC0B4C62DE6
S1234500BDC0C8C62EBDC0B4C62EBDC0C8C62FBDC0B4C62FBDC1537F0E3DC601F70E3F7FB4
S12345200E3E395D26597D0E3F27A5C62DBDC0B4C62DBDC0C8C62EBDC0B4C62EBDC153C674
S12345402FBDC0B4C62FBDC0C87F0E3DC601F70E3E7F0E3F39C62DBDC0B4C62DBDC153C636
S12345602EBDC0B4C62EBDC153C62FBDC0B4C62FBDC0C8C601F70E3DF70E3E7F0E3F39C69C
S12345802DBDC0B4C62DBDC153C62EBDC0B4C62EBDC0C8C62FBDC0B4C62FBDC0C8C601F779
S12345A00E3D7F0E3E7F0E3F39C62DBDC0B4C62DBDC0C8C62EBDC0B4C62EBDC153C62FBDE4
S12345C0C0B4C62FBDC1537F0E3DC601F70E3EF70E3F39C62DBDC0B4C62DBDC153C62EBDB3
S12345E0C0B4C62EBDC0C8C62FBDC0B4C62FBDC153C601F70E3D7F0E3EF70E3F397F0E41FF
S12346007F0E42C601F70E3D7F0E3E7F0E3FF70E40C62DBDC0B4C62DBDC153C62EBDC0B4D5
S1234620C62EBDC0C8C62FBDC0B4C62F7EC0C87E45FDC62DBDC115C62DBDC0C8C62EBDC12C
S123464015C62EBDC0C8C62FBDC115C62FBDC0C8BD42EFF60E40C1042339C1052740C67888
S1234660BD9034C62DBDC0B4C62DBDC0C8C62EBDC0B4C62EBDC0C8C62FBDC0B4C62FBDC063
S1234680C87F0E3D7F0E3E7F0E3FC60CBDB018BD67C0395CF70E40C61CBD972C20C0BDD702
S12346A02120BB7D0E3F2633C62FBDC115C62FBDC0C8C61EBD9034C62FBDC0B4C62FBDC117
S12346C053C601F70E3FBD4344C60BBDB0187D0E3D27057D0E3E260B7E41CDBD42B4C608E3
S12346E07EB0187E46327D0E3E2633C62EBDC115C62EBDC0C8C61EBD9034C62EBDC0B4C648
S12347002EBDC153C601F70E3EBD4344C60BBDB0187D0E3D27057D0E3F260B7E41CDBD4278
S1234720B4C6087EB0187E46327D0E3D2633C62DBDC115C62DBDC0C8C61EBD9034C62DBDC3
S1234740C0B4C62DBDC153C601F70E3DBD4344C60BBDB0187D0E3E27057D0E3F260B7E41CB
S1104760CDBD42B4C6087EB0187E463205B9
S123476D4341525F434841534500434F4D504C455445003460BDB8CCCE65FC8E0014EF841D
S123478D108E00168E4008AFA48E476DBD9B028E4777AFE3BDAA0E8E0014EF848E4018AF92
S12347ADA48E0C56BD9B02BDBA5DC678BD90347E992A256420534543204C4546542C2020EB
S12347CD25642048495400327FC601E7E4BDB8CC8E65FC9F148E40089F168E476DBD9B02ED
S12347EDF60E43E7E2F60E44E7E28E47BFAFE3BDAA0E8E42B09F148E40109F168E0C56BD79
S123480D9B028E0E45BDAE048E42B09F148E40169F168E0C56BD9B02BDBA5DC61EBD90344B
S123482D6C64CC0005EDE3E6664F1F01BDE38A1F1032665D1026FF95C614F70F85C61FF7E2
S123484D0F868E0073C604BD86CB4F82398E565CBDB8AA7E47DA53484F4F542052414D50F4
S123486D53003460BDB8BDC614F70F85C61FF70F868E0073C604BD86CB4F82398E565CBD58
S123488DB8AACE65FC8E0014EF84108E40108E001610AF848E476DBD9B02BDBA5DC63CBD5D
S12348AD90348E565CBDB8AABDB8CCC614F70F85C61FF70F868E0073C604BD86CB4F8239CA
S12348CD8E0014EF84CE001610AFC48E4863BD9B02BDBA5DC63CBD9034BDB8CCC614F70F40
S12348ED85C61FF70F868E0073C604BD86CB4F82398E565CBDB8AACE65FC8E0014EF848E9D
S123490D001610AF848E476DBD9B02BDBA5DC63CBD90347E992A327E7C0E54BDB8BDF60E35
S123492D54C4011026019EC60AE7E2C6788E4D97BD9A5CBDB872C60AE7E2C6788E4DA9BD7D
S123494D9A5CBDB872BDBA39C606BD9034BDB8DBBDB8D5C60AE7E2C6708E4DBBBD9A5CBDFD
S123496DB872C60AE7E2C6708E4DDDBD9A5CBDB872BDBA39C606BD9034BDB8DBBDB8D5C67E
S123498D0AE7E2C6688E4DFFBD9A5CBDB872C60AE7E2C6688E4E31BD9A5CBDB872BDBA3973
S12349ADC604BD9034BDB8DBBDB8D5C60AE7E2C6608E4E63BD9A5CBDB872C60AE7E2C660AA
S12349CD8E4EA5BD9A5C3268BDB872BDBA39C604BD9034BDB8DBBDB8D5C60AE7E2C6588E37
S12349ED4EE7BD9A5CBDB872C60AE7E2C6588E4F39BD9A5CBDB872BDBA39C604BD9034BDB8
S1234A0DB8DBBDB8D5C650E7623262C60AE7E2E6618E4F8BBD9A5CBDB872C60AE7E2E662F2
S1234A2D8E4FEDBD9A5CBDB872BDBA39C604BD9034BDB8DBBDB8D5E662CBF6E76232625D29
S1234A4D26C9C60AE7E25F8E504FBD9A5CBDB872C60AE7E25F8E50A1BD9A5CBDB872BDBA0F
S1234A6D39C604BD9034BDB8DBBDB8D5C60AE7E25F8E50F3BD9A5CBDB872C60AE7E25F8E1E
S1234A8D5125BD9A5CBDB872BDBA39C604BD9034BDB8DBBDB8D5C60AE7E25F8E5157BD9ADB
S1234AAD5CBDB872C60AE7E25F8E5169BD9A5CBDB872BDBA39C604BD9034BDB8DBBDB8D533
S1234ACD32667E992AC60AE7E2C6788E517BBD9A5CBDB872C60AE7E2C6788E5191BD9A5C27
S1234AEDBDB872BDBA39C604BD9034BDB8DBBDB8D5C60AE7E2C6708E51A7BD9A5CBDB8723A
S1234B0DC60AE7E2C6708E51D1BD9A5CBDB872BDBA39C604BD9034BDB8DBBDB8D5C60AE71F
S1234B2DE2C6688E51FBBD9A5CBDB872C60AE7E2C6688E5239BD9A5CBDB872BDBA39C604EC
S1234B4DBD9034BDB8DBBDB8D5C60AE7E2C6608E5277BD9A5CBDB872C60AE7E2C6608E52DA
S1234B6DC9BD9A5C3268BDB872BDBA39C604BD9034BDB8DBBDB8D5C658E761C60AE7E2E6AD
S1234B8D628E531BBD9A5CBDB872C60AE7E2E6638E5381BD9A5CBDB872BDBA39C604BD9067
S1234BAD34BDB8DBBDB8D5E663CBF2E7633262C10426C87E4ACF7C0E43C608BD93704F58E6
S1234BCD491F01AE894D75C628F70F85C61CF70F86C602BD86CB4F8239C623BD972C8E0E96
S1234BED4ABDAEB6F61417C102275BC1032743C101272BC61BBDB018CC809BEDE38E0E4A8E
S1234C0DBDAEC532628E0E4AAFE38E0E45BDAEC58E0E4AAFE38E0E4FBDAEC5326439C612FC
S1234C2DBDB0188E806EAFE38E0E4ABDAEC5326220D3C61BBDB0188E809BAFE38E0E4ABDEF
S1234C4DAEC5326220BFC617BDB018CC8087EDE38E0E4ABDAEC5326220AB8E4D857E957AF6
S1234C6D8E4D857E94568E4D85BD941B5D2601398E4D857E956A8E4D857E9477C6018E0CAB
S1234C8DE17EC04A7E4C89BD4C897F14177F0E438E0E4F7EAEB67E4C94BDD9D5C6018E0C44
S1234CADE1BDC04AC6278E0CE1BDBFCE5D26037EDE287EDE4C7E4CA67F0E43C6018E0CE155
S1234CCDBDC0CE7C1417BDD99DC628F70F85C61FF70F868E041CC602BD86CB4F8239C678E8
S1234CEDBD9034C628F70F85C61FF70F868E0269C602BD86CB4F8239C63CBD9034C628F7F7
S1234D0D0F85C61FF70F868E014BC602BD86CB4F82398E0E45BDAEB6F61417C1022738C1BD
S1234D2D032724C1012710CC80A5EDE38E0E45BDAEC532627EB13A8E809BAFE38E0E45BD73
S1234D4DAEC532627EB13A8E80A5AFE38E0E45BDAEC532627EB13ACC80A0EDE38E0E45BD25
S1234D6DAEC532627EB13A08026C02700261016C015E030B042A042B4CC54CC2931B9319B7
S1234D8D2122000B123B21020E440810000000000080F0FFFFF8C00000000000081000009C
S1234DAD00000080FE777CE0800000000000101000000000008000F000F880FFF0FFFFFF1D
S1234DCDFFFFF8FFC0FF00FD00F800F800F000E010100000000000C000F0000C8073787C8E
S1234DEDFEFE77FE7CFFE0FF80FE00FC00FC00F80070181000000000000000800100F02739
S1234E0D00F8FF80FFFFF0FFFFFFFFFFFFFFFFF8FFFFC0FFFF00FDFF00F8FB00F80300F096
S1234E2D0100E000181000000000000000C00000F011000C7E8073D0787C00FEFE8077FE65
S1234E4D807CFF87E0FF0580FE0700FCFD00FC0100F80000700020100000000000000000C8
S1234E6D0080010000F027E000F8FFFE80FFFFFFF0FFFFFFFFFFFFFFFFFFFFFFF8FFFFFF5D
S1234E8DC0FFFFFF00FDFFFF00F8FBFF00F8030000F0010000E0000020100000000000005B
S1234EAD000000C0000000F011B0000C7E5F8073D00E787C001FFEFE803F77FE803F7CFF39
S1234ECD873FE0FF051F80FE078E00FCFDFF00FC010000F800000070000028100000000050
S1234EED0000000000E000800100FE00F027E0FF00F8FFFEFF80FFFFFFFFF0FFFFFFFFFFF1
S1234F0DFFFFFFFFFFFFFFFFFFF8FFFFFFFFC0FFFFFFFF00FDFFFFFF00F8FBFFFF00F803F3
S1234F2D00FC00F00100F800E00000702810000000000000000000F000C000003F00F01103
S1234F4DB007000C7E5F008073D00E01787C001F00FEFE803F0077FE803F007CFF873FB8D3
S1234F6DE0FF051FFE80FE078EFF00FCFDFFFF00FC0100FE00F800007C00700000383010BF
S1234F8D0000000000FE00000000E07F00800100FE7F00F027E0FF3F00F8FFFEFF1F80FFDE
S1234FADFFFFFF1FF0FFFFFFFF0FFFFFFFFFFF1FFFFFFFFFFF07F8FFFFFFFF03C0FFFFFFF9
S1234FCDFF0100FDFFFFFF0100F8FBFFFF0100F80300FC0100F00100F80000E000007000A2
S1234FED301000000000002200000000F02D00C000003F2800F011B00718000C7E5F000839
S123500D8073D00E010C787C001F0006FEFE803F000F77FE803F00037CFF873FB801E0FFAE
S123502D051FFE0080FE078EFF0000FCFDFFFF0000FC0100FE0000F800007C000070000055
S123504D3800281000000000FE000000E07F800100FE7FF027E0FF3FF8FFFEFF1FFFFFFF2F
S123506DFF1FFFFFFFFF0FFFFFFFFF1FFFFFFFFF07FFFFFFFF03FFFFFFFF01FDFFFFFF01E1
S123508DF8FBFFFF01F80300FC01F00100F800E00000700028100000000022000000F02D65
S12350ADC000003F28F011B007180C7E5F000873D00E010C7C001F0006FE803F000FFE80AE
S12350CD3F0003FF873FB801FF051FFE00FE078EFF00FCFDFFFF00FC0100FE00F800007CE6
S12350ED00700000380018100000FE00E07F00FE7FE0FF3FFEFF1FFFFF1FFFFF0FFFFF1F74
S123510DFFFF07FFFF03FFFF01FFFF01FFFF0100FC0100F800007000181000002200F02DAF
S123512D003F28B007185F00080E010C1F00063F000F3F00033FB8011FFE008EFF00FFFF51
S123514D0000FE00007C000038000810FE7F7F3F1F1F0F1F07030101010100000810222D58
S123516D2818080C060F030100000000000008140000000000E0F0F8FEFEFEFEEF46FAF8AE
S123518DF8F8F0A00814000000000000F018146A83458113F9F9FFF8F8F01014000000800B
S12351AD00C000F0007CE0BFF0FFF8FFFEFFFEFFFEFFFEFFEFFF46FFFAFEF8FDF8FDF8FD2F
S12351CDF001A00010140000000000E00010001E0007F0FD18FF140A6AD5833245A681AEC4
S12351ED1368F996F975FFFFF8F1F801F00018140000E80080FF00C09F00F003007C40E0D5
S123520DBFFEF0FFFFF8FFFFFEFFFFFEFFFFFEFFFFFEFFFFEFFFFF46FFFFFAFEFFF8FDFFD0
S123522DF8FDFFF8FDE5F00100A0000018140000F800000700E001001000001E00000700BD
S123524DF0FDFF18FF45140AD56AD5248332DB45A6A481AEAB136854F996FFF975FFFFFFDE
S123526DFFF8F1FFF80100F0000020140000E8FF0080FFFF00C09FC700F00387007C40FF59
S123528DE0BFFEFFF0FFFFFFF8FFFFFFFEFFFFFFFEFFFFFFFEFFFFFFFEFFFFFFEFFFFFFFA7
S12352AD46FFFFFFFAFEFFFFF8FDFF7FF8FDFF7FF8FDE57FF0010000A000000020140000A0
S12352CDF83F000007C100E0010100100001001E0001000700FFF0FDFF9718FF45A4140A05
S12352EDD5AA6AD524558332DB5A45A6A45281AEAB551368545FF996FF27F975FF3DFFFFE1
S123530DFFFFF8F1FF8FF8010000F000000028140000E8FF010080FFFF0F00C09FC71E0029
S123532DF003871D007C40FF3FE0BFFEFF3FF0FFFFFF7FF8FFFFFF7FFEFFFFFFFFFEFFFF1A
S123534DFFFFFEFFFFFFFFFEFFFFFFFFEFFFFFFF0B46FFFFFF0AFAFEFFFF3EF8FDFF7F7FE0
S123536DF8FDFF7F3FF8FDE57F3EF00100003EA00000000028140000F83F00000007C10FBA
S123538D00E00101300010000120001E000140000700FF7FF0FDFF975218FF45A464140A7E
S12353ADD5AA4D6AD52455718332DB5A4545A6A4525581AEAB55601368545F46F996FF27CA
S11D53CD5FF975FF3D7FFFFFFFFF3FF8F1FF8F3FF80100003FF00000001E03
S104141700D0
S12353E73460CE0E6C2032E6C45858EBC44F108E580D30ABE642E7E2E641BD9B2C6A5FBD1C
S12354079348E6C43261C10427415D2644C601E7C4334411830E9C27306D5F26CABD9348A3
S1235427C13F22EDC608BD9370CB04E75FC678BD9370CB04E741C618BD9370CB02E7426FB7
S1235447C4334411830E9C26D035E0C603E7C420C0BD9348C1BF22046CC420B56AC420B127
S1235467327EE7E427266F61BD86CB593239BD86CB59FF39BD53E7BDBA39C606BD9034C65E
S12354870CBDB85B6C61E6E4E16122DC32627EB8BD41434D414700434F4D504C45544544D1
S12354A7003460BDB8CCCE5AB98E0014EF84108E00168E4008AFA48E5498BD9B028E549EE5
S12354C7AFE3BDAA0E8E0014EF848E4018AFA48E0C56BD9B02BDBA5DC678BD90347E992A4E
S12354E743454E5445522052414D50003460C60CBDB85BBDB8D5BDB8DBCE00148E5AB9AF8E
S1235507C4108E00168E4008AFA48E5498BD9B028E42B0AFC48E4018AFA48E54E7BD9B02BC
S1235527C628BD54677E992A256420534543204C4546542C202025642048495400C60CBD61
S1235547B85BBDB8D5BDB8DB8E5AB99F148E40089F168E5498BD9B02F60E55E7E2F60E5664
S1235567E7E28E552FAFE3BDAA0E8E42B09F148E40109F168E0C56BD9B028E0E61BDAE04C2
S12355878E42B09F148E40169F168E0C56BD9B02C608BD5467326420A4C60CBDB85BBDB833
S12355A7D5BDB8DB8E56CCBDB8AA8E0E5CBDAE048E5AB99F148E40109F168E0C56BD9B0254
S12355C7C614BD54677E992A7C0E55C614F70F85C61FF70F868E009BC604BD86CB4F82396D
S12355E7C638BDC115C638BDC0C8C639BDC115C639BDC0C8C63ABDC115C63ABDC0C8C63C1C
S1235607BD9034C638BDC0B4C638BDC0C8C639BDC0B4C639BDC0C8C63ABDC0B4C63ABDC06A
S1235627C8F61418C102102700A3C1031027006AC1012733C61BBDB018CC809BEDE38E0E9E
S123564757BDAEC58E809BAFE38E0E66BDAEC58E0E5CBDAEB6CC809BEDE38E0E5CBDAEC553
S12356673266C6277E972CC612BDB0188E806EAFE38E0E57BDAEC5CC806EEDE38E0E66BD82
S1235687AEC58E0E5CBDAEB68E806EAFE38E0E5CBDAEC53266C6277E972CC61BBDB0188E83
S12356A7809BAFE38E0E57BDAEC5CC809BEDE38E0E66BDAEC58E0E5CBDAEB68E809BAFE3D2
S12356C78E0E5CBDAEC53266C6277E972CC617BDB018CC8087EDE38E0E57BDAEC58E808714
S12356E7AFE38E0E66BDAEC58E0E5CBDAEB6CC8087EDE38E0E5CBDAEC53266C6277E972C31
S12357078E57FB7E957A8E57FB7E94568E57FBBD941B5D2601398E57FB7E956A8E57FB7E05
S12357279477C6008E0CE17EC04A7E5729BD57297F14187F0E558E0E667EAEB67E5734C60F
S1235747008E0CE1BDC04ABD6574397E5746BDB3A1C6268E0CE1BDC04ABDBC1B7F0E55C697
S1235767008E0CE1BDC0CEBD65747C1418C628F70F85C61FF70F868E03E8C602BD86CB4F92
S12357878239C62CBDC115C62CBDC0C8C61EBD9034C62CBDC0B4C62CBDC1538E0E57BDAEDE
S12357A7B68E0E5CBDAEB68E0E61BDAEB6F61418C1022732C1032720C101270ECC80A5EDD3
S12357C7E38E0E61BDAEC53262398E809BAFE38E0E61BDAEC53262398E80A5AFE38E0E616A
S12357E7BDAEC5326239CC80A0EDE38E0E61BDAEC532623957555752931B931925262809C0
S1235807133721020E56030300000003030002000303000200030302050203030207020373
S1075827030207026B
S104141800CF
S123582BC601F70E9BC605BD9019C678BD90347F0E9BC6787E90340D1E263A7D0E9B26196A
S123584B0D1D27140D1F26107D0C46261CC6068E0001BD86CB4F6B3939C63D8E0024BD86D4
S123586BCB4F6B397D0C4627E4C6078E0002BD86CB4F6B3939C63A8E0000BD86CB4F6B395B
S11E588B20B97F0E9BC628F70F85C61FF70F868E041DC602BD86CB4F8239394B
S12358A63440CE000ABDB86930C4BD914BBDBA39C608BD903433411183001126E8C63CBD42
S12358C69034CE0010BDB86930C4BD914BBDBA39C608BD9034335F1183000926E8BDB8BD43
S12358E6C63C35407E90343440327FBDB8D5BDB8DB6FE4CE0012BDB86930C4BD910FBDB84F
S1235906723041BD910FBDB872BDBA39C604BD903433431183002D26DD6CE4E6E4C105261B
S1235926D2326135407EB8BD44454D4F4C4954494F4E0054494D450047414D452052554C40
S1235946455320425900434152444F4E41004752415048494353204259007C0E9CBDB8DB70
S12359668E5AB99F148E40079F168E592EBD9B028E5AB99F148E40169F168E5939BD9B0269
S1235986BDBA5DC6F0BD9034F60E9CC401102700B98E5652BDB8AABD58ED8E56C2BDB8AA81
S12359A6BDB8DB8E4D899F148E40079F168E593EBD9B028E5F2E9F148E40149F168E594CD5
S12359C6BD9B02BDBA5DC678BD90348E5634BDB8AABDB8DB8E5F2E9F148E40079F168E590A
S12359E654BD9B028E4D899F148E40149F168E594CBD9B02BDBA5DC678BD9034BDB8698EB5
S1235A060008BD910FBDB8728E0008BD910FBDB872BDBA39C678BD90348E56C2BDB8AABD65
S1235A26B8DB8E5AB99F148E40079F168E592EBD9B028E5AB99F148E40169F168E5939BDB2
S1235A469B02BDBA5DC6F07E90348E5666BDB8AABD58A67E59A03460C61FBDD12FC602F743
S1235A660E9D8E5A9710BE000CE622BD8DEF318812FE000C30C812EC84EDA4AE02AF22C6B0
S1235A8608BD90347C0E9DF60E9DC10E23D47E8F8D327FF60E9DE7E4C608BDA61C8EC0286B
S10A5AA6E6E4BDA3EA20F6CB
S1235AAD7F0E9E7F0E9F7F0EA07F0EA2397F0E9E7F0E9F7F0EA07F0EA2397F0E9E7F0E9FA6
S1235ACD7F0EA07F0EA2397F0E9E7F0E9F7F0EA07F0EA239C601F70EA2393460C61FBDD186
S1235AED2F8E5B1810BE000CE622BD8DEF318812FE000C30C812EE84EFA4AE02AF22C61E01
S1235B0DBD9034C61FBDD12F7EC29F327F6FE4C60BBDC028C606BD90346CE4E6E4C10526A5
S1235B2DEE7E8F8DC6B4BD90347F0E9E7E8F8D3440327CCE0EA4C606E7E46F616F622023EF
S1235B4DE6E4CB0AE763E6E4E7C4E661E741C60CBD9370E75F6C623343E662C1182728E6F5
S1235B6D63E7E4CC000CEDE3E6644F1F01BDE38A32621F105D26C9E661CB09E761C606E736
S1235B8DE4C610E76320BF326435C0344086033D8E0EA3338BC60CBD9370E7C4C10B231013
S1235BADE642E7E2E6418E63DABD9A5C326135C04F58491F016E995BC65C005C105C1B5CE3
S1235BCD2C5C4E5C5F5BAD5C815CA35CAE5CBA5BDEE642E7E2E6418E63E4BD9A5CBDB8725F
S1235BEDE642E7E2E6418E63BCBD9A5C326235407EB872E642E7E2E6418E63BCBD9A5C32C1
S1235C0D6120ABE642E7E2E6418E63BC20CCE642E7E2E6418E63C6BD9A5C32617E5BBBE607
S1235C2D42E7E2E6418E63C6BD9A5CBDB872E642E7E2E6418E63C6BD9A5C326235407EB80F
S1235C4D72E642E7E2E6418E63D0BD9A5C32617E5BBBE642E7E2E6418E63D0BD9A5CBDB80D
S1235C6D72E642E7E2E6418E63D0BD9A5C326235407EB872E642E7E2E6418E63DABD9A5CCE
S1235C8DBDB872E642E7E2E6418E63DABD9A5C326235407EB872E642E7E2E6418E63BC20E0
S1235CADDCE642E7E2E6418E63DA7E5BE7E642E7E2E6418E63BCBD9A5CBDB872E642E7E204
S1235CCDE6418E63E4BD9A5C326235407EB872327DE7E4BD5B3C6DE427306F62BD86CB59A5
S1235CED3239BD86CB59FF396F61E661BD5B986C61E661C11826F5BDBA39C60CBD9034BDFA
S1235D0DB8BD6C62E6E4E16222D2326339535542574159002564004D414445003420327BE4
S1235D2DC640E7648E0040AFE4C604BD9370E762BDB8CCC604BD90348E5D1AAFE3BDAA0E35
S1235D4D8E5AB99F14EC621F985F1F01E664CB08E7644F3410AAE0EAE0DD168E0C56BD9BD0
S1235D6D02F60E9FE7E28E5D21AFE3BDAA0E8E4D899F14E667CB104F1F02E669CBF6E76982
S1235D8D1F985F3420AAE0EAE0DD168E0C56BD9B028E5D24AFE3BDAA0E8E5AB99F14E66B3C
S1235DADCB0FE76B4FED671F985F3420AAE0EAE0DD168E0C56BD9B02BDBA5D3267E664C190
S1235DCD0D1026FF647E992A434F4D5055544552204157415244003460C61EF70F85C620E4
S1235DEDF70F868E03ECC60CBD86CB4F8239BDB8CC8E5DD53410BDAA0E8E42B0CE0014AFD4
S1235E0DC4108E4004CE001610AFC48E0C56BD9B02BDBA5DC63CBD9034C60CBDB85BBDB8AC
S1235E2DD5BDB8DB8E5DD53410BDAA0E8E42B0CE0014AFC4CE001610AFC48E0C56BD9B022D
S1235E4DC61EF70F85C620F70F868E0205C608BD86CB4F8239C60ABD5CDCC61EF70F85C6DB
S1235E6D20F70F868E0013C608BD86CB4F8239C63CBD90347E992A444F55424C45005245C8
S1235E8D54494E41205343414E003460BDB8CCC628F70F85C61FF70F868E043AC602BD86EA
S1235EADCB4F82398E5E84AFE3BDAA0ECE5AB98E0014EF84108E00168E4008AFA48E0C56C2
S1235ECDBD9B028E5E8BAFE3BDAA0E8E0014EF848E4018AFA48E0C56BD9B02BDBA5DC6782F
S1235EEDBD90347E992A4D4158494D495A4500465245455A4553003460BDB8CCC628F70F8E
S1235F0D85C61FF70F868E0436C602BD86CB4F82398E5EF3AFE3BDAA0ECE5AB98E0014EF7A
S1235F2D84108E00168E4008AFA48E0C56BD9B028E5EFCAFE3BDAA0E8E0014EF848E4018BB
S1235F4DAFA48E0C56BD9B02BDBA5DC678BD90347E992A4C49474854004558545241204261
S1235F6D414C4C003460BDB8CCC628F70F85C61FF70F868E0435C602BD86CB4F82398E5FE4
S1235F8D60AFE3BDAA0ECE5AB98E0014EF84108E00168E4008AFA48E0C56BD9B028E5F6619
S1235FADAFE3BDAA0E8E0014EF848E4018AFA48E0C56BD9B02BDBA5DC678BD90347E992A5D
S1235FCD4152524F5753003460BDB8CCC628F70F85C61FF70F868E0434C602BD86CB4F82A6
S1235FED398E5F60AFE3BDAA0ECE5AB98E0014EF84108E00168E4008AFA48E0C56BD9B02E6
S123600D8E5FCDAFE3BDAA0E8E0014EF848E4018AFA48E0C56BD9B02BDBA5DC678BD903483
S123602D7E992A434F4C4C454354005354414E44555053003460BDB8CCC628F70F85C61F63
S123604DF70F868E0431C602BD86CB4F82398E6030AFE3BDAA0ECE5AB98E0014EF84108E47
S123606D00168E4008AFA48E0C56BD9B028E6038AFE3BDAA0E8E0014EF848E4018AFA48E7D
S123608D0C56BD9B02BDBA5DC678BD90347E992A545249504C450043415220435241534828
S12360AD003460BDB8CCC628F70F85C61FF70F868E042EC602BD86CB4F82398E609DAFE353
S12360CDBDAA0ECE5AB98E0014EF84108E00168E4008AFA48E0C56BD9B028E60A4AFE3BD3C
S12360EDAA0E8E0014EF848E4018AFA48E0C56BD9B02BDBA5DC678BD90347E992A424F4E8C
S123610D5553003460BDB8CCC628F70F85C61FF70F868E03F0C602BD86CB4F82398E603088
S123612DAFE3BDAA0ECE5AB98E0014EF84108E00168E4008AFA48E0C56BD9B028E610AAF82
S123614DE3BDAA0E8E0014EF848E4018AFA48E0C56BD9B02BDBA5DC678BD90347E992AC6A4
S123616D038E0CE1BDC04AC631BDC0B4C6317EC0C8327EBD86CB6CA038C63FBD972CC6B4A3
S123618DBD9034F60EA1C10622264FEDE458491F016E9961A261E261F3620262116221627B
S12361AD3161B0C646BD972CC678BD9034BD706AC6F0BD90347C0E9EF60E9EC101102700B0
S12361CD768E5B31C64BBDB05ABD616CBD86CB6CA538326239C640BD972CC678BD9034C68D
S12361ED47BD972C20CAC641BD972CC678BD9034BD684A20BBC642BD972CC678BD9034BD49
S123620D62CC20ACC643BD972CC678BD9034BD6E757E61BDC644BD972CC678BD9034BDD712
S123622D217E61BDC645BD972CC678BD9034BD86CB6955367E61BDBDC6DF7E61CE7D0EA26C
S123624D26127C0E9EF60E9EC10127098E5B31C64B7EB05A397C0E9FC608BDB018C6298E54
S123626D0CE1BDBFCE5D263BC602BD93705D10270095C101102700B8C6038E0CE1BDBFCE28
S123628D5D2728BD617EC6298E0CE1BDBFCE5D2738C6038E0CE1BDBFCE5D26B0C601BDC62A
S12362ADDF20A9BD86CB52453620CDC61C8E0CE1BDBFCE5D264CC6118E0CE1BDBFCE5D27C7
S12362CD30BD86CB4D0D3620BDC6118E0CE1BDBFCE5D26BDC6038E0CE1BDBFCE5D26B2C69D
S12362ED1C8E0CE1BDBFCE5D26A7C63EBD972C20A0C6048E0CE1BDBFCE5D2721BD702A7E35
S123630D6293BD644B20AFC614F70F857F0F868E0064C608BD86CB4F82397E6285C60A8E28
S123632D0CE1BDBFCE5D1027FF5CBD6EEF7E6293C614F70F857F0F868E0070C608BD86CB46
S123634D4F82397E6285C6158E0CE1BDC04AC620BDC0B4C6207EC0C8C61C8E0CE1BDC04A79
S123636DC621BDC0B4C6217EC0C8C6038E0CE1BDC0CEC631BDC115C6317EC0C8C6158E0C7C
S123638DE1BDC0CEC620BDC0B4C6207EC153C61C8E0CE1BDC0CEC621BDC0B4C6217EC153F8
S12363AD07021B020500AB0013006A03EC03EF0808FF818181818181FF0808FFFFC3C3C32D
S12363CDC3FFFF0808FFFFFFFFFFFFFFFF080800003C3C3C3C000008080000181818180073
S10463ED00AB
S12363EE327FC606BD9370F73FF7F63FF7E7E4C601E4E42643C602E4E42638C604E4E4268C
S123640E2DC608E4E42622C610E4E42617C620E4E4260CC640E4E42703BD639B326139BD68
S123642ED6F320EFBDD70520E4BDDDCE20D9BDDDAA20CEBDDDF220C3BDDE1620B8C6258ED1
S123644E0CE1BDBFCE5D264CC62A8E0CE1BDBFCE5D2639C62B8E0CE1BDBFCE5D2626C62C62
S123646E8E0CE1BDBFCE5D2613C62D8E0CE1BDBFCE5D260139BD86CB64943639BD86CB6057
S123648EDC3620E5BD86CB5D233620D2BD86CB59693620BFBD86CB55833620ACBDDD62BD97
S12364AEDD3EBDDCF6BDDD1ABD6365BDD67F7ED66DBD64AA3901020408102040C6148E0C1D
S12364CEE1BDBFCE5D260BC60D8E0CE1BDBFCE5D27037ED6CF7ED649C6138E0CE1BDBFCE74
S12364EE5D260BC60C8E0CE1BDBFCE5D27037ED6E17ED65BC6108E0CE1BDBFCE5D260BC60B
S123650E098E0CE1BDBFCE5D27037EDDE07EDD2CC60E8E0CE1BDBFCE5D260BC6078E0CE1E3
S123652EBDBFCE5D27037EDD987EDCE4C60F8E0CE1BDBFCE5D260BC6088E0CE1BDBFCE5D2F
S123654E27037EDE047EDD50C6118E0CE1BDBFCE5D260BC60A8E0CE1BDBFCE5D2704BD638D
S123656E8939BD635339C6128E0CE1BDBFCE5D260BC6008E0CE1BDBFCE5D27037EDDBCC681
S123658E0B8E0CE1BDBFCE5D26F27EDD08BD6574BD653ABD6502BD651EBD64E6BD64CA7E7B
S12365AE6556C6158E0CE1BDC04AC6178E0CE1BDC04AC6168E0CE1BDC04AC6188E0CE1BD9E
S12365CEC04AC6198E0CE1BDC04AC61A8E0CE1BDC04AC61B8E0CE17EC04A515549434B20DB
S12365EE465245455A45004C4546542052414D50003460BDB8CC8E563EBDB8AACE4B648E2C
S123660E0014EF84108E00168E4008AFA48E65E8BD9B028E0014EF848E4018AFA48E65F599
S123662EBD9B02BDBA5DC678BD90347E992A4352594F20434C415700524947485420524165
S123664E4D50003460BDB8CC8E563EBDB8AACE4B648E0014EF84108E00168E4008AFA48E78
S123666E663CBD9B028E0014EF848E4018AFA48E6646BD9B02BDBA5DC678BD90347E992A56
S123668E3460C61FBDD12F8E66F010BE000CE622BD8DEF318812FE000C30C812EE84EFA4CF
S12366AEAE02AF22C61EBD9034C61FBDD12F7EC29F3460C61FBDD12F8E670910BE000CE66D
S12366CE22BD8DEF318812FE000C30C812EE84EFA4AE02AF22C61EBD9034C61FBDD12F7E63
S12366EEC29F327F6FE4C602BDC028C606BD90346CE4E6E4C10526EE7E8F8D327F6FE4C611
S123670E03BDC028C606BD90346CE4E6E4C10526EE7E8F8DC603BDB018C614F70F85C61F4C
S123672EF70F868E00C5C604BD86CB4F8239C62E8E0CE1BDBFCE5D26057D0EEC260139BDB1
S123674EDD86C6307E972C7F0EECC60ABDC115C60ABDC0C8C61EBD9034C60ABDC0B4C60A66
S123676E7EC0C87F0EEBC606BDC115C606BDC0C8C61EBD9034C606BDC0B4C6067EC0C8C61F
S123678E01F70EECC628F70F85C61FF70F868E0439C602BD86CB4F8239C60ABDC115C60A2D
S12367AEBDC0C8C61EBD9034C60ABDC0B4C60A7EC153C601F70EEBC606BDC115C606BDC05B
S12367CEC8C61EBD9034C606BDC0B4C6067EC153C601F70EEBC606BDC0B4C606BDC153C608
S12367EE01F70EECC60ABDC0B4C60A7EC1537E67DEC603BDB018C614F70F85C61FF70F864B
S123680E8E00C5C604BD86CB4F8239C6278E0CE1BDBFCE5D26057D0EEB260139BDDE4CBD7D
S11F682E6771C628F70F85C61FF70F868E03F2C602BD86CB4F8239C62F7E972CEF
S123684AC603F70EF039430052004100530048004352415348202564204D4F524500464FC0
S123686A52204348415345003440327FC601E7E4CE00002017C105102300EAC10810230099
S123688AEE335CC107102700965CE7E4BDB8CC8E65FC9F141F30C3001C58491F985FCA100F
S12368AADD168E6850BD9B028E65FC9F141F30C3003C1F985FCA10DD168E6852BD9B028E34
S12368CA65FC9F148E40109F168E6854BD9B028E65FC9F14CC00443440A3E11F985FCA10C5
S12368EADD168E6856BD9B028E65FC9F141F30584940508200C300481F985FCA10DD168ED1
S123690A6858BD9B02BDBA5DE6E4C1021022FF65C606BD9034E6E4335CC1071026FF6ABD8E
S123692AB8CCF61419F00EF134048E685AAFE3BDAA0E8E4D899F148E40089F168E0C56BDD5
S123694A9B028E6868AFE3BDAA0E8E65FC9F148E40189F168E0C56BD9B02BDBA5DC678BDD1
S123696A90347E992AC60CBD9034E6E47E688BC61EBD9034E6E47E688B327EF60EEE5CE7F1
S123698AE4F70EEEC101270A8E6A36C63D32627EB05AC606E7E2C6FFE7E2C618BDC55932C4
S12369AA627D0EF027E2E6E4E76120187D0EF226267D0EF4271AC610BDB0186C61E661F1B0
S12369CA0EF022C47D0EF327E3C617BDB01820EBC60EBDB01820E4C613BDB01820DD7C0E8E
S12369EAEDF60EEDC10127088E6A41C63C7EB05AC614F70F85C61FF70F868E0073C604BD99
S1236A0A86CB4F8239C60BBDB018C606E7E2C6FFE7E2C619BDC55932628E6A41C63C7EB0DD
S1236A2A5AC6B4BD90347F0EEF7E8F8DC6F0BD90347F0EEE7E8F8DC678BD90347F0EED7EDA
S1236A4A8F8D7F0EF3C615BDC0B4C6157EC0C87F0EF2C617BDC0B4C6177EC0C87F0EF4C6E8
S1236A6A1EBDC0B4C61E7EC0C87F0EED7F0EEE7F0EEFC601F70EF07F0EF1C602F714197FB9
S1236A8A0EF27F0EF37F0EF4C615BDC0B4C615BDC0C8C617BDC0B4C617BDC0C8C61EBDC02A
S1236AAAB4C61E7EC0C87E6A73C602F714197E6A737E6AB3C601F70EF3C615BDC115C615E5
S1236ACABDC0C8C63CBD9034C615BDC0B4C6157EC153C601F70EF2C617BDC115C617BDC0DF
S1236AEAC8C63CBD9034C617BDC0B4C6177EC153C601F70EF4C61EBDC115C61EBDC0C8C69A
S1236B0A3CBD9034C61EBDC0B4C61E7EC153327F7C0EEFF60EEFC101270A8E6A2BC63E32B6
S1236B2A617EB05A7C0EF1C614F70F85C61FF70F868E0075C604BD86CB4F8239C606E7E293
S1236B4AC6FFE7E2C628BDC559F614193262F10EF122587F0EF1C1312205CB04F71419BD68
S1236B6A4C67BD6A66BD6A59BD6A4CC601E7E47D0EF0261D7E6B247D0EF326287D0EF42705
S1236B8A1CC610BDB0186CE4E6E4F10EF01022FF897D0EF227E1C613BDB01820E9C60EBD30
S1236BAAB01820E2C617BDB01820DBC631BD972CF60EF1C101271AC102270723AE7D0EF3F1
S1236BCA271B7D0EF227117D0EF4269FBD6AFA209A7D0EF2269520F4BD6ADC20EABD6ABE53
S1086BEA20E00204326A
S104141900CE
S1236BEF434F4D5055544552004C49540053484F4F540053554257415900327F6FE48E56DA
S1236C0F20BDB8AABDB8CC8E4B649F148E40089F168E6BEFBD9B028E4B649F148E40189FAF
S1236C2F168E6BF8BD9B02BDBA5D6CE4E6E4C10426CCBDB8CC8E5620BDB8AA8E4B649F14E7
S1236C4F8E40089F168E6BFCBD9B028E4B649F148E40189F168E6C02BD9B02BDBA5DC63C90
S1236C6FBD90347E992A256420434F4D424F5300256420544F20434F4D50555445520043B5
S1236C8F4F4D505554455220524541445900327E6F618E5620BDB8AABDB8CCF60EF5E7E27A
S1236CAF8E6C75AFE3BDAA0E8E4B649F148E40089F168E0C56BD9B02F60EF5E7E28E6C7555
S1236CCFAFE3BDAA0E8E4B649F148E40189F168E0C56BD9B02BDBA5D6C673266E661C1047A
S1236CEF26B0BDB8CC8E5620BDB8AAF6141AE7E4F60EF5E1E4272AE0E45034048E6C7FAFD5
S1236D0FE3BDAA0E32638E4B649F148E40109F168E0C56BD9B02BDBA5DC63CBD90347E9938
S1236D2F2A8E6C8EAFE3BDAA0E326220D9C605BD9370C104224B4F58491F016E996D4E6DFE
S1236D4FFD6D586E276E526DB8C6078E0CE1BDC0CEC6088E0CE1BDC0CEC6098E0CE1BDC0F6
S1236D6F4AC60A8E0CE1BDC04AC60B8E0CE1BDC04AC60C8E0CE1BDC0CEC60D8E0CE1BDC02E
S1236D8F4AC60A8E0CE1BDBFCE5D260139C6038E0CE1BDBFCE5D2609F60EF55CF1141A2690
S1236DAFEBC60A8E0CE17EC04AC6078E0CE1BDC0CEC6088E0CE1BDC04AC6098E0CE1BDC098
S1236DCFCEC60A8E0CE1BDC04AC60B8E0CE1BDC04AC60C8E0CE1BDC04AC60D8E0CE1BDC0CE
S1236DEFCEC60A8E0CE1BDBFCE5D27A0209FC6078E0CE1BDC0CEC6088E0CE1BDC0CEC60944
S1236E0F8E0CE1BDC04AC60A8E0CE1BDC04AC60B8E0CE1BDC0CE20B9C6078E0CE1BDC04A8C
S1236E2FC6088E0CE1BDC04AC6098E0CE1BDC0CEC60A8E0CE1BDC0CEC60B8E0CE1BDC0CE6D
S1236E4F7E6DE0C6078E0CE1BDC04AC6088E0CE1BDC04AC6098E0CE1BDC0CEC60A8E0CE155
S1236E6FBDC0CE7E6D78C6048E0CE1BDC04ABD6D3CBD659B8E6FD7C63F7EB048C6078E0C6C
S1236E8FE1BDC04AC6088E0CE1BDC04AC6098E0CE1BDC04AC60A8E0CE1BDC04AC60B8E0C99
S1236EAFE1BDC04AC60C8E0CE1BDC04AC60D8E0CE1BDC04AC6038E0CE1BDBFCE5D260139A3
S1236ECFBD6377397E6E8BC60AF7141A7F0EF67F0EF5C6038E0CE1BDC04A7E6E8B7E6ED61A
S1236EEF327EF60EF55CE7E4F70EF5F6141AE761E6E4E1612415C632BD972CBD6D3CBD6504
S1236F0F9B8E6FD7C63F32627EB0487D0EF626EBE661CB0AF7141ABD6377C633BD972C20DD
S1236F2FDAC6078E0CE1BDBFCE5D1026008DC6088E0CE1BDBFCE5D10260073C6098E0CE1CF
S1236F4FBDBFCE5D265BC60A8E0CE1BDBFCE5D2644C60B8E0CE1BDBFCE5D262DC60C8E0CE8
S1236F6FE1BDBFCE5D2616C60D8E0CE1BDBFCE5D260139C63CBDC115C63C7EC0C8C626BD9F
S1236F8FC115C626BDC0C820DEC63BBDC115C63BBDC0C820C7C620BDC115C620BDC0C82054
S1236FAFB0C612BDC115C612BDC0C87E6F55C623BDC115C623BDC0C87E6F4AC625BDC115E5
S1236FCFC625BDC0C87E6F3DC60CBD9019BD6F30C605BD9019C6078E0CE1BDC04AC6088E14
S1236FEF0CE1BDC04AC6098E0CE1BDC04AC60A8E0CE1BDC04AC60B8E0CE1BDC04AC60C8E34
S123700F0CE1BDC04AC60D8E0CE1BDC04AC6048E0CE1BDC0CEBD659B7E8F8DC6048E0CE168
S120702FBDC04ABD6D3CBD659B8E6FD7C63F7EB05ABD702A390C050A14190A0F14F0
S104141A00CD
S123704CC601F70EF8397F0EF7C601F70EF8397F0EF7C601F70EF839C601F70EF839C6025C
S123706CF70EF839C6F0BD90347F0EF739524554494E41005343414E00327FBDB8BD8E720B
S123708C4D9F148E40089F168E7079BD9B028E724D9F148E40189F168E7080BD9B02C60546
S12370ACE7E4BDBA39C604BD9034BDB872BDBA39C604BD9034BDBA47C608BD9034BDBA395B
S12370CCC604BD9034BDB8726AE426D67E992A327EF60EF7E7E45CF70EF7E6E4C10127055D
S12370EC32627E7070C628F70F85C61BF70F868E021CC604BD86CB4F82397D0EF82712E678
S123710CE4E761C612BDB0186C61E661F10EF823F2C62EBD972CC637BDC115C637BDC0C870
S123712CC61EBD9034C61EBD9034C61EBD9034C61EBD9034C637BDC0B4C637BDC0C8C6066F
S123714CE7E2C6FFE7E2C61BBDC559C606E7E2C6FFE7E2C61BBDC559C606E7E2C6FFE7E20A
S121716CC61BBDC559C606E7E2C6FFE7E2C61BBDC5593268C60DBDC6A532627E7070DF
S123718A4558504C4F444544003460BDB8CCCE5F2E8E0014EF84108E00168E4008AFA48EDC
S12371AA718ABD9B028E0EFEBDAE048E0014EF848E4018AFA48E0C56BD9B02BDBA5DC678B9
S12371CABD90347E992A4558504C4F4445004900327EBDB8CC8E5F2E9F148E40089F168EAD
S12371EA71D0BD9B028E0F0DBDAEB6CC805AEDE38E0F0DBDAEC5F60EFC8E0F0DBDAFB48E73
S123720A0F0DBDAE048E42B09F148E40109F168E0C56BD9B02F60EFC58FB0EFCC0765032B0
S123722A62C1052332C605E7618E71D8AFE3BDAA0E8E42B09F14E6631F985FCA16DD168EDF
S123724A0C56BD9B266C63F60EFC58FB0EFCC076503262E16122D2BDBA5DC61EBD90347E0D
S123726A71DC327CE762E667E763E662C10823033264394FEDE458491F016E99728872A823
S123728A72B672C472D272E072EE72FC730A729AE663E766C6108E7D2932647E9A5CE663A2
S12372AAE766C6388E76F532647E9A5CE663E766C6348E770B32647E9A5CE663E766C62844
S12372CA8E774032647E9A5CE663E766C61C8E77B432647E9A5CE663E766C60C8E788532F1
S12372EA647E9A5CE663E766C6088E79B232647E9A5CE663E766C60C8E7AF632647E9A5C11
S123730AE663E766C60C8E7BFC32647E9A5C504F5700327F6FE4BDB8BDC605E7E26FE2E6F1
S123732A62BD726C8E5F2E9F148E40089F168E7318BD9B028E0F03BDAE048E4D899F148EC2
S123734A40189F168E0C56BD9B02BDB872C603E7E26FE2E664BD726C8E5F2E9F148E400875
S123736A9F168E7318BD9B028E0F03BDAE048E4D899F148E40189F168E0C56BD9B02BDBA55
S123738A39C606BD90346C643264E6E4C1091026FF847E992A424F4F4D20424F4F4D0032B9
S12373AA7F6FE4BDB8BDC605E7E26FE2E662BD726C8E5F2E9F148E40089F168E739FBD9BA2
S12373CA028E0F03BDAE048E4D899F148E40189F168E0C56BD9B02BDB872C603E7E26FE2C8
S12373EAE664BD726C8E5F2E9F148E40089F168E739FBD9B028E0F03BDAE048E4D899F1421
S123740A8E40189F168E0C56BD9B02BDBA39C606BD90346C643264E6E4C1091026FF847E4B
S123742A992A424F4F4F4F4F59414800327F6FE4BDB8BDC605E7E26FE2E662BD726C8E5FE1
S123744A2E9F148E40089F168E742CBD9B028E0F03BDAE048E4D899F148E40189F168E0CCF
S123746A56BD9B02BDB872C603E7E26FE2E664BD726C8E5F2E9F148E40089F168E742CBD5B
S123748A9B028E0F03BDAE048E4D899F148E40189F168E0C56BD9B02BDBA39C606BD903439
S12374AA6C643264E6E4C1091026FF847E992A424F4F4D204241425900327F6FE4BDB8BD29
S12374CAC605E7E26FE2E662BD726C8E5F2E9F148E40089F168E74B9BD9B028E0F03BDAE5D
S12374EA048E4D899F148E40189F168E0C56BD9B02BDB872C603E7E26FE2E664BD726C8E41
S123750A5F2E9F148E40089F168E74B9BD9B028E0F03BDAE048E4D899F148E40189F168E2E
S123752A0C56BD9B02BDBA39C606BD90346C643264E6E4C1091026FF847E992A7C0EF9F617
S123754A0EF9C403C10127102509C102270FC6397E972CC6367E972CC6377E972CC6387EF8
S123756A972C327FBDB8BD8E5F2E9F148E40109F168E71D0BD9B02C607E7E4BDBA39C606B9
S123758ABD9034BDB872BDBA39C606BD9034BDBA47C60CBD9034BDBA39C606BD9034BDB8F5
S12375AA726AE426D67E992A34207C0EFDC614F70F85C61BF70F868E009BC604BD86CB4FC3
S12375CA82398E0F08BDAEB68E805AAFE38E0F08BDAEC5F60EFC8E0F08BDAFB48E0F03BD2B
S12375EAAEB6108E0F0834208E0F03BDAEC530A4BDB04334208E0EFEBDAEC5326635207E33
S123760A75468E76E37E957A8E76E37E94568E76E3BD941B5D2601398E76E37E956A8E7666
S123762AE37E9477C6028E0CE17EC04A7E762EC6028E0CE1BDC04A7F141B7F0EFD7F0EFB19
S123764A397E7639C6028E0CE1BDC04ABDD9EFBDD691C6278E0CE1BDBFCE5D26037EDE2847
S123766A7EDE4C7E764E327FC6028E0CE1BDC0CE7F0EFDF60EFBE7E45CF70EFBC601E4E494
S123768A273FC628F70F85C61FF70F868E03FDC602BD86CB4F82398E0EFEBDAEB6C61BBDC5
S12376AAB0188E809BAFE38E0EFEBDAEC5BDD9B9BDD7747C141BBD86CB58A13832637EB1EA
S12376CA3AC628F70F85C61FF70F868E03FCC602BD86CB4F823920BF217670766D931B9301
S12376EA193435000C164121020EFC100A5003F406AD0D5A2BF40E442D5809D0044001508B
S123770A051811804B00A05601A04D01D4BA02E8A700582D01D06A02A89501516D00549BB1
S123772A0B50BA00A4A60A50D902C0A60080940280220080440030130030C100000000C0D1
S123774A1E0300000030E764000080F1FF9D010000C367980900607EFE67000080F3CFFD24
S123776A0C0060CFFF9B1D00E06F26F339008E9DFF8FF30060FED9704E0680418E7B3201C4
S123778A98EC76F30D00C31FFF6CBE0320F3219301000C3E3FE60C0010FCF98C010060306E
S12377AADF66000000CFFF0C000048170000000366000300000000001CE603730000000059
S12377CA3063C73F0000000000003C9E310C000000E030F3F9FFC301000000338FE7CF3381
S12377EA000000E6CCFF7F3ECF070060FEFF3CC6FF3F06008099CFFF9FFFFF07009C7F3CB2
S123780ACF7930336300E0F1FFFFE7FF7C1E0080FFFF3C7E3E838101079EF1FFC7F1CF9FC7
S123782A0F607ECEFC63CE3C9E310098F17FFEF1F3790E80F93CE3FF3F3E87010066FC9F39
S123784A99FFCC670E00FEE3FF79FC3F660080F9FF8CFF3FFF1F0000C6CF7F66FC9C67006E
S123786A701E3F33FEFF3C860100B8FFE799F3610700000000CEFF3F031800680D0000000C
S123788A2000A0AA0400000000000000408A849452BB0200000000000014A12A6BFF4A5593
S12378AA014004000052A106585AD5DF08040008008054AF6C53F57F9D2B8920000000EDEE
S12378CA5A5BED2EED7B5520042200A0B2FDD752DBBB56150180000000EDF7BF5F75EA5517
S12378EA652600000024A9BF6B7AC5AA5B4D4805000049F7EFDEC5BF95B4B2051000000079
S123790AB8BD75BBEA6E4B55B540000050ABFB57F6B6D95E572B8B040000AAAEA4E46FB780
S123792A75566592080080585B559BFD7FDBBD9A54510120E454AB6CEFF6B6A2422B0400DB
S123794A0289A5BEDBFEEFEFAE94481501202AAD72AAFB7EDF35051300028050D1EF5AEF41
S123796ADF2AEB3200100000AABE9AD5BCFFDD5D4D4400000050E9BE557BFB33A952000076
S123798A0882D2DAB5D5F6BF6F6B850000005010B76EABFDEBDBDF2A00000000A488AA56DD
S12379AADEDEBE221502000070170000000000200280280500000000000000402A4A912A41
S12379CA45A8000000000000802A80502A90520304000100000010480944A2A64AAA4808ED
S12379EA0000008040A9AA9004248904810000000000AA4A4224D54832591409040000007D
S1237A0A80B41A4B299284A26A420000000814A92250D505298A4A0A00000020A0552A8358
S1237A2A155CA29454204200000028554954AAA1562949050800008042A592A4D49E144638
S1237A4A149010050000145A220429B1F55851012020000250824469EBB6A68202120002B2
S1237A6A21A0845020149AAD492AA84482000000008A8AA26552968004080020000228909E
S1237A8AA824ADD52825A9410400009040028914482A4BA82A040000000400A952E592CA0D
S1237AAA904205011001100050A4241521A5269C5048000000000089CA544A19C921050178
S1237ACA000000004012888012231A2D2900000000801040532F6CB4454202050000000099
S1237AEA00140850414BA894444000006814000000000000480421000000000000002012A5
S1237B0AAA82288200000000000000024000080024040000000000004809A9A04201210011
S1237B2A0000000022000000011410844800000000002024112280242101000000008094D3
S1237B4A0AA4840401088004000022100101011148409028000000804054282291101501B9
S1237B6A0150000000808802042121241200000020001221A050464A810051020101040073
S1237B8A4A04089010204A0400080040208048A104220510100800000804001285484428F8
S1237BAA254100000000801441109100804010400000800041044502902A0882000000007B
S1237BCA000010089002A01200020000000004202101540520020000000004A00208AA021E
S1237BEA40820000000000800008820044090000000068170000000000C00003000000001C
S1237C0A0000000000000000001C0000000000000000000EE001000000000000000000004B
S1237C2AC001070000000000000000800300001C1C000000000000071C00000000000E0082
S1237C4A00000000000000E0010000000E000000000000000000000000C001000000000066
S1237C6A0E0000F000000000000000070000C03900000E00380000000000C00100001C00D5
S1237C8A0000000000E0700000E0000000000000000000030007000000C801E000000000F3
S1237CAA00780000031C0E0007000000000000003800000000000000E020700038801C008E
S1237CCA000000000700E200C001E08003C001001C0000030000C001008001000400000063
S1237CEA00001C00000000008006001000000070020001880200000038007000000E070703
S1237D0A8C8100000000000000000000E0004001000000000000000038000000000F006080
S1237D2A0F00000000001002004004000000000000000008000000000000000001010000C6
S1237D4A0000000000000008000000000000000002000010000200000000000000000000F9
S1237D6A0000000000100000100000000020000000000100000000000000000000010000B3
S1237D8A0200000000000000000000000000000000000000000000000001000000000000D2
S1237DAA0000000010800000000000000000000080000100000000000000000000000000A4
S1187DCA0000000000000000000000020000000000000080001E
S104141B00CC
S1237DDF39494700494C47004D4C535700534F4C005348540042414C4C00BDB8CC0D1D1025
S1237DFF2600BA8E42B09F148E08059F168E0C56BD9B020D1D27060D1F102700B98E42B0C0
S1237E1F9F148E19059F168E0C56BD9B028E7DE7AFE3BDAA0E8E42B09F148E32059F168EAD
S1237E3F0C56BD9B028E7DECAFE3BDAA0E8E42B09F148E50059F168E0C56BD9B028E7DF055
S1237E5FAFE3BDAA0E8E42B09F148E6E059F168E0C56BD9B028E42B09F148E080B9F168EAE
S1237E7F0C56BD9B028E42B09F148E190B9F168E0C56BD9B02C6008E0CE9BDBFCE32665DB7
S1237E9F26288E42B09F148E320B9F168E0C56BD9B02BDBA5DC6F0BD90347E992A8E7DE03D
S1237EBFAFE3BDAA0E32627E7E028E7DF4AFE3BDAA0E326220CC8E7DE3AFE3BDAA0E3262F7
S1237EDF7E7E1C504C554E47452042414C4C00C60BBD93704F58491F01AE897F92C628F793
S1237EFF0F85C61FF70F86C602BD86CB4F8239BDB8CC8E7EE2AFE3BDAA0E8E5F2E9F148EE8
S1237F1F40089F168E0C56BD9B02BDBA5DC678BD90347E992A42414C4C205341564500C6F3
S1237F3F06BD93704F58491F01AE897F85C628F70F85C61FF70F86C602BD86CB4F8239BD86
S1237F5FB8CC8E7F34AFE3BDAA0E8E5F2E9F148E40089F168E0C56BD9B02BDBA5DC678BDC0
S1237F7F90347E992A06043C043D032C0144027104210B031003230327032E033A041A024A
S10C7F9FB202C302C402C7037B51
S9030000FC
