S123400036327F8E0DDAAFE38E80C3BDAE1D6F623262C1012705E6E4326139E7E4E6E432A5
S12340206139327F8E80C3AFE38E0DDABDAE1D6F623262C1012705E6E4326139E7E4E6E453
S12340403261397D0DE42605C63C7E9034C6067E9034F60DE4C10127068E563E7EB8AA8E3F
S123406056487EB8AA7F0DE4200F7D0DE42605C601F70DE4C60CBD9034C64BBDCD0E5D2658
S1234080E9C649BDCD0E5D27EB20DF424F4E555300434152204352415348004341522043F7
S12340A04841534500434150545552452053494D4F4E00425245414B4F55540041434D41B2
S12340C047004558504C4F44450053555045524A455453004652454E5A5900C601D71EC65F
S12340E006BD9034C614F70F85C61CF70F868E00B9C608BD86CB4F82398E0DDABDAEB6BDE2
S1234100B8CC8E48C89F148E40109F168E408BBD9B028E563EBDB8AABDBA5DC63CBD9034E8
S12341208E4065C638BDB0487D0EF11026015F7D1417102601D57D1411102602727D1413DF
S1234140102603347D1418102603D17D0EFD1026046E7D1400102604EF7D14081026008EF4
S1234160C628F70F85C620F70F868E00BAC604BD86CB4F82398E0DDABDB043BDB8CCBD867D
S1234180CB4BFC398E5620BDB8AABDBA5DC638BD8F4BC63CBD9034BD40015D2720C602BD9A
S12341A093705D10270541C10110270553C678BD90340F1EBD86CB4D1C3B7E992ABD4022CF
S12341C05D27EAC603BD93705D1027054BC1011027055DC10226D6C614F70F85C620F70F95
S12341E0868E028AC604BD86CB4F823920BFC614F70F85C61CF70F868E00B9C604BD86CB68
S12342004F8239BDB8CC8E0DDFBDAEB68E803CAFE38E0DDFBDAEC5F614098E0DDFBDAFB481
S12342208E0DDFAFE38E0DDABDAEC58E0DDFBDAEB6CC805AEDE38E0DDFBDAEC5F614088E6E
S12342400DDFBDAFB48E0DDFAFE38E0DDABDAEC532688E0DDFBDAE048E48C89F148E4010EB
S12342609F168E0C56BD9B028E40D4AFE3BDAA0E8E42B09F148E40049F168E0C56BD9B028E
S1234280BD4052BDBA5DBD404332627E4160C614F70F85C61CF70F868E00B9C604BD86CB12
S12342A04F8239BDB8CC8E0DDFBDAEB68E803CAFE38E0DDFBDAEC5F60EF18E0DDFBDAFB4FF
S12342C08E0DDFAFE38E0DDABDAEC58E0DDFBDAE048E48C89F148E40109F168E0C56BD9B14
S12342E0028E4091AFE3BDAA0E8E42B09F148E40049F168E0C56BD9B02BD4052BDBA5DBD6E
S1234300404332667D14171027FE2BC614F70F85C61CF70F868E00B9C604BD86CB4F82397A
S1234320BDB8CC8E0DDFBDAEB68E803CAFE38E0DDFBDAEC5F60E438E0DDFBDAFB48E0DDFBC
S1234340AFE38E0DDABDAEC58E0DDFBDAEB6CC805AEDE38E0DDFBDAEC5F614178E0DDFBD0F
S1234360AFB48E0DDFAFE38E0DDABDAEC532688E0DDFBDAE048E48C89F148E40109F168E30
S12343800C56BD9B028E409BAFE3BDAA0E8E42B09F148E40049F168E0C56BD9B02BD40529A
S12343A0BDBA5DBD404332627D14111027FD8EC614F70F85C61CF70F868E00B9C604BD86C6
S12343C0CB4F8239BDB8CC8E0DDFBDAEB68E803CAFE38E0DDFBDAEC5F60DE68E0DDFBDAFD3
S12343E0B48E0DDFAFE38E0DDABDAEC58E0DDFBDAEB6CC805AEDE38E0DDFBDAEC5F614117E
S12344008E0DDFBDAFB48E0DDFAFE38E0DDABDAEC532688E0DDFBDAEB6CC806EEDE38E0DF3
S1234420DFBDAEC5F614128E0DDFBDAFB48E0DDFAFE38E0DDABDAEC58E0DDFBDAE048E4843
S1234440C89F148E40109F168E0C56BD9B028E40A5AFE3BDAA0E8E42B09F148E40049F16CC
S12344608E0C56BD9B02BD4052BDBA5DBD404332667D14131027FCCCC614F70F85C61CF712
S12344800F868E00B9C604BD86CB4F8239BDB8CC8E0DDFBDAEB68E803CAFE38E0DDFBDAEBD
S12344A0C5F60DFD8E0DDFBDAFB48E0DDFAFE38E0DDABDAEC58E0DDFBDAEB6CC805AEDE3D7
S12344C08E0DDFBDAEC5F614138E0DDFBDAFB48E0DDFAFE38E0DDABDAEC532688E0DDFBDF5
S12344E0AE048E48C89F148E40109F168E0C56BD9B028E40B3AFE3BDAA0E8E42B09F148E8F
S123450040049F168E0C56BD9B02BD4052BDBA5DBD404332627D14181027FC2FC614F70F72
S123452085C61CF70F868E00B9C604BD86CB4F8239BDB8CC8E0DDFBDAEB68E803CAFE38E15
S12345400DDFBDAEC5F60E558E0DDFBDAFB48E0DDFAFE38E0DDABDAEC58E0DDFBDAEB6CC30
S1234560805AEDE38E0DDFBDAEC5F614188E0DDFBDAFB48E0DDFAFE38E0DDABDAEC53268DC
S12345808E0DDFBDAE048E48C89F148E40109F168E0C56BD9B028E40BCAFE3BDAA0E8E429F
S12345A0B09F148E40049F168E0C56BD9B02BD4052BDBA5DBD404332627D0EFD1027FB9280
S12345C0C614F70F85C61CF70F868E00B9C604BD86CB4F8239BDB8CC8E0DDFBDAEB68E80F1
S12345E03CAFE38E0DDFBDAEC5F60EFD8E0DDFBDAFB4CC805AEDE38E0DDFBDAEC58E0DDF0A
S1234600AFE38E0DDABDAEC58E0DDFBDAE048E48C89F148E40109F168E0C56BD9B028E407A
S1234620C2AFE3BDAA0E8E42B09F148E40049F1632688E0C56BD9B02BD4052BDBA5DBD40EF
S1234640437D14001027FB11C614F70F85C61CF70F868E00B9C604BD86CB4F8239BDB8CC02
S12346608E0DDFBDAEB68E803CAFE38E0DDFBDAEC5F60D9A8E0DDFBDAFB48E0DDFAFE38E44
S12346800DDABDAEC58E0DDFBDAEB6CC805AEDE38E0DDFBDAEC5F614008E0DDFBDAFB48E12
S12346A00DDFAFE38E0DDABDAEC532688E0DDFBDAE048E48C89F148E40109F168E0C56BDBF
S12346C09B028E40CAAFE3BDAA0E8E42B09F148E40049F168E0C56BD9B02BD4052BDBA5D73
S12346E0BD404332627E4159C614F70F85C620F70F868E0264C604BD86CB4F82397E41ADB1
S1234700C614F70F85C620F70F868E0165C604BD86CB4F82397E41ADC614F70F85C620F73A
S12347200F868E0155C604BD86CB4F82397E41ADC614F70F85C620F70F868E0289C604BD37
S110474086CB4F82397E41ADC6477E972C53
S123474DC605BD9370C1042301394F58491F016E99476047A247CC4804483C476AC60E8EFE
S123476D0CE1BDC0CEC60F8E0CE1BDC04AC6108E0CE1BDC04AC6118E0CE1BDC04AC6128E42
S123478D0CE1BDC0CEC6138E0CE1BDC0CEC6148E0CE17EC04AC60E8E0CE1BDC0CEC60F8E57
S12347AD0CE1BDC0CEC6108E0CE1BDC04AC6118E0CE1BDC04AC6128E0CE1BDC04A20C6C6B9
S12347CD0E8E0CE1BDC0CEC60F8E0CE1BDC0CEC6108E0CE1BDC04AC6118E0CE1BDC04AC662
S12347ED128E0CE1BDC04AC6138E0CE1BDC04AC6148E0CE17EC0CEC60E8E0CE1BDC04AC6FC
S123480D0F8E0CE1BDC04AC6108E0CE1BDC0CEC6118E0CE1BDC0CEC6128E0CE1BDC0CEC699
S123482D138E0CE1BDC04AC6148E0CE17EC04AC60E8E0CE1BDC04AC60F8E0CE1BDC04AC642
S123484D108E0CE1BDC0CEC6118E0CE1BDC0CE7E47ECC60E8E0CE1BDC04AC60F8E0CE1BD00
S123486DC04AC6108E0CE1BDC04AC6118E0CE1BDC04AC6128E0CE1BDC04AC6138E0CE1BDC1
S123488DC04AC6148E0CE17EC04A7E485F53494D4F4E004341554748542121003460BDB86E
S12348ADCCCE6AB18E0014EF84108E00168E4008AFA48E489ABD9B028E48A0AFE3BDAA0EF9
S12348CD8E0014EF848E4018AFA48E0C56BD9B02BDBA5DC678BD90347E992A4341505455DE
S12348ED5245003460BDB8CCCE6AB18E0014EF84108E00168E4008AFA48E48E8BD9B028EBA
S123490D0014EF848E4018AFA48E489ABD9B02BDBA5DC678BD90347E992A256420534543A4
S123492D204C4546542C202025642048495400327EBDB8CC6F61C601E7E4F60DE6E7E2F626
S123494D0DE8E7E28E4927AFE3BDAA0E8E42B09F148E40169F168E0C56BD9B028E0DF3BD22
S123496DAE048E42B09F148E401C9F168E0C56BD9B02BDBA5DC60CBD9034BDB8CC6C64CC54
S123498D0005EDE3E6664F1F01BDE38A1F1032665D26A76D6127158E6AB19F148E40089F80
S12349AD168E489ABD9B026F617E49478E6AB19F148E40089F168E48E8BD9B02C601E7611A
S12349CD7E4947434155474854003440327CBDB8CCF60DE65CE762F70DE6CC0003EDE3E69C
S12349ED644F1F01BDE38A32621F105D1027022EF60DE64FEDE4CC0003EDE3AE62BDE38A40
S1234A0D326233841F10C10210270235F60DE64FEDE4CC0003EDE3AE62BDE38A32621F1035
S1234A2DC101102701AE8E6AB19F148E58089F168E49D0BD9B028E0DEEBDAE048E6AB19F7D
S1234A4D148E58189F168E0C56BD9B02BDBA5DC678BD9034F60DE64FEDE4CC0003EDE3AE4B
S1234A6D62BDE38A32621F10E7635D2706C102102600B1BDB8DBC612E7E2C6688E5068BD36
S1234A8D9A5CBDBA5DC60AF70F85C61FF70F868E01F8C608BD86CB4F8239C60CBD9034C6E9
S1234AAD06E7E2C64C8E5082BD9A5CC60AF70F85C61FF70F868E01F9C608BD86CB4F8239B7
S1234ACDBDBA5DC60CBD9034C612E7E2C6308E5068BD9A5CBDBA5DC60AF70F85C61FF70FF4
S1234AED868E01F8C608BD86CB4F8239C60CBD9034C606E7E2C6148E5082BD9A5CC60AF716
S1234B0D0F85C61FF70F868E01F9C608BD86CB4F8239C60CBD9034BDBA5DC63CBD90343235
S1234B2D647E992ABDB8DBC612E7E25F8E509CBD9A5CBDBA5DC60AF70F85C61FF70F868E14
S1234B4D01F8C608BD86CB4F8239C60CBD9034C606E7E2C61C8E50B6BD9A5CC60AF70F85F9
S1234B6DC61FF70F868E01F9C608BD86CB4F8239BDBA5DC60CBD9034C612E7E2C6388E50A1
S1234B8D9CBD9A5CBDBA5DC60AF70F85C61FF70F868E01F8C608BD86CB4F8239C60CBD9089
S1234BAD34C606E7E2C6548E50B6BD9A5CC60AF70F85C61FF70F868E01F9C608BD86CB4F3B
S1234BCD8239BDBA5DC60CBD9034C63CBD903432647E4B2EC628F70F85C61FF70F868E0258
S1234BEDE9C602BD86CB4F82396FE2C6508E4FB8BD9A5C8E6AB19F148E28089F168E49D0B6
S1234C0DBD9B028E0DEEBDAE048E6AB19F148E28189F168E0C56BD9B0232617E4A59C62866
S1234C2DF70F85C61FF70F868E02E7C602BD86CB4F82396FE25F8E4E9ABD9A5C32617E49DD
S1234C4DFDC628F70F85C61FF70F868E02E81F30BD86CB4F8239C60AE7E25F8E4F50BD9A01
S1234C6D5C32617E4A19BD485F7F14117F14127F0DE6C603F70DE78E0DF8BDAEB67F0DE55B
S1234C8D397E4C738E4E887E957A8E4E887E94568E4E88BD941B5D2601398E4E887E956A62
S1234CAD8E4E887E9477C60E8E0CE1BDC04AC60F8E0CE1BDC04AC6108E0CE1BDC04AC611DA
S1234CCD8E0CE1BDC04AC6128E0CE1BDC04AC6138E0CE1BDC04AC6148E0CE1BDC04ABD86ED
S1234CEDCB659B37C6278E0CE1BDBFCE5D2607BDDE287C0DE739BDDE4C7C0DE7397E4CB3EC
S1234D0D7C0DE68E0DEEBDAEB6F61411C10210270080C10310270065C101273FC61BBDB0FE
S1234D2D18CC809BEDE38E0DEEBDAEC532628E0DEEAFE38E0DE9BDAEC58E0DEEAFE38E0DC1
S1234D4DF8BDAEC53264F60DE6F10DE72521C61DBDB018C64BBD972C7E4CB3C612BDB0189D
S1234D6D8E806EAFE38E0DEEBDAEC5326220BFBD474DBD86CB659B37C64A7E972CC61BBD63
S1234D8DB0188E809BAFE38E0DEEBDAEC532627E4D3BC617BDB018CC8087EDE38E0DEEBD61
S1234DADAEC532627E4D3BBDB3A1C6268E0CE1BDC04ABDBC1BC61EF70F85C61BF70F868E98
S1234DCD02AFC602BD86CB4F82397F0DE67C1411C628BDC115C628BDC0C8C61EBD9034C63F
S1234DED28BDC0B4C628BDC1538E0DE9BDAEB68E0DEEBDAEB68E0DF3BDAEB6F61411C102AE
S1234E0D10270063C1032750C101273DCC80A5EDE38E0DF3BDAEC53262C61EBD9034C61E2A
S1234E2DBD9034C61EBD9034C628F70F85C61BF70F868E0188C602BD86CB4F8239BD474D4D
S1234E4DBD86CB659B377EB13A8E809BAFE38E0DF3BDAEC5326220C18E80A5AFE38E0DF352
S1234E6DBDAEC5326220B2CC80A0EDE38E0DF3BDAEC5326220A3030405010A4DB44D0A93B8
S1234E8D1B931948490023153A17020DE8301E0000002A00000000003F00000000803F00B3
S1234EAD00F01FC0170000F83FC0000000FC7FE00100003EE0E00000001FF0F10100000E9B
S1234ECDE0E000000007C07100C0010F80F30080010780F100C0010780E30080010780E179
S1234EED01C0010380E300800307C0C117C0010FC0C32FE00107F081FFFF010EF003FFFF7E
S1234F0D001FFC07FF7F00FCFE83FF0F00FCFF81FF0500F8FF00FE0100F07F01F4010080FA
S1234F2D3E02880000007C4504000000982008000000105505000000000A0200000000108D
S1234F4D0000003011C0030000FF00E00F0080E301703C00C0C101183800E0800118700083
S1234F6D74800108E0077E80000CF0077F800106F0BB7F800107F057FFC10103F86BFAE13A
S1234F8D0001C07C807F00030000003C000300000000000702000000000E0300000000FC6C
S1234FAD0100000000FC0100000000301D0000400700000000200300000000100700000014
S1234FCD00200A00000000F07100000000A8F0010000E0D1FD030000F0A3FE0300F0FFF771
S1234FEDFF0700F8FFAFFF0F00FCFF9FFF1F000EF89FFF3F000FF01FFF7F0007E01FBEF8F3
S123500D0007E01F1CF00103E0030EC00107C00106C00303E00007800307C00007C0030721
S123502DE00007800307F00007C0030A78000F80037C7D001FC001F83F001EE000F01F0003
S123504D7C7400E00700F83F00000000F01F00000000C0030000000000010018083E000000
S123506DFF8707FFCF0FFFDF0FFF8F0FFF8F07FF0700FC03001808FC0300FF0700FF8F07D7
S123508DFFCF0FFFDF0FFFDF0FFF87073E0000180800C0071EFE0F3FFF0FBFFF0F1FFF0F24
S12350AD1EFF0F00FE0F00FC03180800FC0300FE0F1EFF0F3FFF0FBFFF0FBFFF0F1EFE0F3D
S10650CD00C00715
S10514110000D5
S12350D042524F4B45204F5554003460BDB8BDCE56DE8E0014EF84108E00168E4008AFA477
S12350F08E50D0BD9B028E0DFFBDAE048E0014EF848E4018AFA48E0C56BD9B02BDBA5DC659
S123511078BD90347E992A425245414B4F555400256420534543204C4546542C2020256420
S12351302048495400BDB8BD8E5117AFE3BDAA0EF60DFD585C4F1F016F890C568E56DE9F49
S1235150148E40089F168E0C56BD9B02F60DFDE7E2F60DFEE7E28E5120AFE3BDAA0E8E42E9
S1235170B09F148E40109F168E0C56BD9B028E0DFFBDAE048E42B09F148E40169F168E0C6C
S123519056BD9B02BDBA5DC61EBD903432667E51353460BDB869BDB8DBC614F70F85C61F6A
S12351B0F70F868E009BC604BD86CB4F8239CE00148E56DEAFC4108E00168E4008AFA48EC2
S12351D05117BD9B028E0E04BDAE048E4D89AFC48E4018AFA48E0C56BD9B02BDB946BDBA5D
S12351F05D8E3800BDB88AC606E7E2C60ABDBA73BDBA5DC678BD90347E992A3440CE0C57B1
S1235210BDB8CC8E5117AFE3BDAA0E6FC08E56DE9F148E40109F168E0C56BD9B02BDBA5DE7
S1235230C612BD9034326211830C5F26D3C63CBD90347E992A34207C0DFD108E0E043420D3
S12352508E0DFFBDAEC534208E0E0EBDAEC530A4BDB0433264C64E35207E972C8E53757EAA
S1235270957A8E53757E94568E5375BD941B5D2601398E53757E956A8E53757E9477C6292D
S12352908E0CE17EC04A7E528EC6298E0CE17EC04A7E5299BD52997F14137F0DFD8E0E0EBD
S12352B07EAEB67E52A4BDB3A1C6268E0CE1BDC04ABDBC1B7F0DFD7C1413C628F70F85C646
S12352D01FF70F868E0340C602BD86CB4F8239C62ABDC115C62ABDC0C8C61EBD9034C62A51
S12352F0BDC0B4C62ABDC1538E0DFFBDAEB68E0E04BDAEB68E8050AFE38E0E04BDAEC58EDE
S12353100E09BDAEB63262F61413C101271EC1022734C61DBDB018CC80A5EDE38E0DFFBDEB
S1235330AEC53262C6298E0CE17EC0CEC61BBDB018CC809BEDE38E0DFFBDAEC53262C62972
S12353508E0CE17EC0CEC61CBDB0188E80A0AFE38E0DFFBDAEC53262C6298E0CE17EC0CE37
S11A5370030405010A52B65296931B93194C4D0025174517020DFE83
S104141300D4
S1235387464F525452455353002564204A41434B504F545300BDB8CC8E52079F148E4008D1
S12353A79F168E5387BD9B02F60E18E7E28E5390AFE3BDAA0E8E42B09F148E40169F168EB4
S12353C70C56BD9B02BDBA5DC60CBD9034326320C44A41434B504F5400BDB869BDB8DB8E9E
S12353E752079F148E40109F168E53D8BD9B02BDB946BDBA5D8E3800BDB88AC606E7E2C640
S123540719BDBA73C61EBD90347E992A3440CE0C57BDB8CC8E53D8AFE3BDAA0E326211830A
S12354270C5D27226FC08E52079F148E40109F168E0C56BD9B02BDBA5DC612BD9034118348
S12354470C5E26CD20188E52079F148E40109F168E0C56BD9B02BDBA5DC612BD9034C61E24
S1235467BD90347E992A327F6FE48E5620BDB8AABDB8CC8E52079F148E40089F168E53D819
S1235487BD9B028E52079F148E40189F168E53D8BD9B02BDBA5D6CE4E6E4C10826CCC61ED2
S12354A7BD90347E992A327F6FE48E5620BDB8AABDB8CC8E52079F148E40109F168E53D8D1
S12354C7BD9B02BDBA5D6CE4E6E4C10826DCC61EBD90347E992A327FF60E195CE7E4F70E0E
S12354E719CC0003EDE3E6624F1F01BDE38A32621F10C101271F2508C1022712C103270722
S1235507C65132617E972CC65432617E972CC65332617E972CC65232617E972C4D554C548C
S12355274942414C4C00327FBDB8BD8E52079F148E40089F168E5387BD9B028E52079F1498
S12355478E40189F168E5523BD9B02C607E7E4BDBA39C606BD9034BDB872BDBA39C606BD90
S12355679034BDBA47C60CBD9034BDBA39C606BD9034BDB8726AE426D67E992A327F8E801D
S12355879BAFE38E0E13BDAEC5C602BD9370E7627C0E18F60E18C40132625D26236DE426EF
S12355A742C628F70F85C61FF70F868E02D4C602BD86CB4F8239C61BBDB01832617E54DDC8
S12355C76DE4273EC628F70F85C61FF70F868E036EC602BD86CB4F8239C61BBDB018326148
S12355E77E54DDC628F70F85C61FF70F868E0374C602BD86CB4F8239C61BBDB01832617EAB
S123560754DDC628F70F85C61FF70F868E02B3C602BD86CB4F8239C61BBDB01832617E5476
S1235627DDC601F70E1AC6258E0CE1BDC0CEBD6981C601BDC115C601BDC0C8C678BD90341F
S1235647C601BDC0B4C601BDC153C60FBDC0B4C60FBDC0C8C60EBDC0B4C60EBDC0C8C60D9E
S1235667BDC0B4C60DBDC0C8C60BBDC0B4C60BBDC0C8C602BD93705D2732C628F70F85C641
S12356871FF70F868E0275C602BD86CB4F8239C6B4BD90347F0E1A8E5761BD92EABD86CB40
S12356A763EE37C602BD86CB58893839C628F70F85C61FF70F868E029EC602BD86CB4F8270
S12356C73920CC327FC625E7E48E0CE1BDBFCE5D26033261398E5761BD9251BD86CB64AA1A
S12356E737E6E48E0CE132617EC04A327FC625E7E48E0CE1BDBFCE5D26033261398E576144
S1235707BD9251BD86CB64AA37E6E48E0CE132617EC04A8E57617E91D97D0E1A260CC6253B
S12357278E0CE1BDBFCE5D260D39C6228E0088BD86CB4F6B3939C6218E0005BD86CB4F6B56
S12357473939C6258E0CE1BDC04A8E0E13BDAEB67F0E187F0E1A397E574900000050550087
S10B576726929C00001E0000C4
S123576F4D555345554D002564204A41434B504F545300BDB8CC8E52079F148E40089F16CC
S123578F8E576FBD9B02F60E20E7E28E5776AFE3BDAA0E8E42B09F148E40169F168E0C563D
S12357AFBD9B02BDBA5DC60CBD9034326320C44A41434B504F5400BDB869BDB8DB8E5207BB
S12357CF9F148E40109F168E57BEBD9B02BDB946BDBA5D8E3800BDB88AC606E7E2C619BDED
S12357EFBA73C61EBD90347E992A3440CE0C57BDB8CC8E57BEAFE3BDAA0E326211830C5DA2
S123580F27226FC08E52079F148E40109F168E0C56BD9B02BDBA5DC612BD903411830C5E5B
S123582F26CD20188E52079F148E40109F168E0C56BD9B02BDBA5DC612BD9034C61EBD9055
S123584F347E992A327F6FE48E5620BDB8AABDB8CC8E52079F148E40089F168E57BEBD9B38
S123586F028E52079F148E40189F168E57BEBD9B02BDBA5D6CE4E6E4C10826CCC61EBD9007
S123588F347E992A327F6FE48E5620BDB8AABDB8CC8E52079F148E40109F168E57BEBD9BF0
S12358AF02BDBA5D6CE4E6E4C10826DCC61EBD90347E992A327FF60E215CE7E4F70E21CC85
S12358CF0003EDE3E6624F1F01BDE38A32621F10C101271F2508C1022712C1032707C657FE
S12358EF32617E972CC65A32617E972CC65932617E972CC65832617E972C4D554C5449421B
S123590F414C4C00327FBDB8BD8E52079F148E40089F168E576FBD9B028E52079F148E407D
S123592F189F168E5909BD9B02C607E7E4BDBA39C606BD9034BDB872BDBA39C606BD9034C4
S123594FBDBA47C60CBD9034BDBA39C606BD9034BDB8726AE426D67E992A327F8E809BAFAB
S123596FE38E0E1BBDAEC5C602BD9370E7627C0E20F60E20C40132625D26236DE42642C62D
S123598F28F70F85C61FF70F868E02D4C602BD86CB4F8239C61BBDB01832617E58C36DE4A9
S12359AF273EC628F70F85C61FF70F868E036EC602BD86CB4F8239C61BBDB01832617E58D7
S12359CFC3C628F70F85C61FF70F868E0374C602BD86CB4F8239C61BBDB01832617E58C390
S12359EFC628F70F85C61FF70F868E02B3C602BD86CB4F8239C61BBDB01832617E58C3C62F
S1235A0F01F70E22C602BDC115C602BDC0C8C678BD9034C602BDC0B4C602BDC153C60FBD00
S1235A2FC0B4C60FBDC0C8C60EBDC0B4C60EBDC0C8C60DBDC0B4C60DBDC0C8C60BBDC0B489
S1235A4FC60BBDC0C8C602BD93705D273DC628F70F85C61FF70F868E0275C602BD86CB4FC0
S1235A6F8239C6B4BD90347F0E22C62A8E0CE1BDC0CE8E5B17BD92EABD86CB63EE37C60261
S1235A8FBD86CB588938BD698139C628F70F85C61FF70F868E029EC602BD86CB4F823920D4
S1235AAFC1C62A8E0CE1BDBFCE5D2601398E5B17BD9251BD86CB64AA3739C62A8E0CE1BD4C
S1235ACFBFCE5D2601398E5B17BD9251BD86CB64AA37398E5B177E91D97D0E2226068E5B93
S1235AEF177E91F3C6228E0088BD86CB4F6B3939C62A8E0CE1BDC04A8E0E1BBDAEB67F0EAB
S1195B0F207F0E22397E5AFF000005565B0026929C00001E000075
S1235B254352594F505249534F4E002564204A41434B504F545300BDB8CC8E52079F148ED3
S1235B4540089F168E5B25BD9B02F60E28E7E28E5B30AFE3BDAA0E8E42B09F148E40169F0C
S1235B65168E0C56BD9B02BDBA5DC60CBD9034326320C44A41434B504F5400BDB869BDB8BD
S1235B85DB8E52079F148E40109F168E5B78BD9B02BDB946BDBA5D8E3800BDB88AC606E731
S1235BA5E2C619BDBA73C61EBD90347E992A3440CE0C57BDB8CC8E5B78AFE3BDAA0E3262A9
S1235BC511830C5D27226FC08E52079F148E40109F168E0C56BD9B02BDBA5DC612BD9034A3
S1235BE511830C5E26CD20188E52079F148E40109F168E0C56BD9B02BDBA5DC612BD9034CF
S1235C05C61EBD90347E992A327F6FE48E5620BDB8AABDB8CC8E52079F148E40089F168EBA
S1235C255B78BD9B028E52079F148E40189F168E5B78BD9B02BDBA5D6CE4E6E4C10826CC95
S1235C45C61EBD90347E992A327F6FE48E5620BDB8AABDB8CC8E52079F148E40109F168E72
S1235C655B78BD9B02BDBA5D6CE4E6E4C10826DCC61EBD90347E992A327FF60E295CE7E48A
S1235C85F70E29CC0003EDE3E6624F1F01BDE38A32621F10C101271F2508C1022712C10395
S1235CA52707C65D32617E972CC66032617E972CC65F32617E972CC65E32617E972C4D5529
S1235CC54C544942414C4C00327FBDB8BD8E52079F148E40089F168E5B25BD9B028E520760
S1235CE59F148E40189F168E5CC3BD9B02C607E7E4BDBA39C606BD9034BDB872BDBA39C654
S1235D0506BD9034BDBA47C60CBD9034BDBA39C606BD9034BDB8726AE426D67E992A327FC2
S1235D258E809BAFE38E0E23BDAEC5C602BD9370E7627C0E28F60E28C40132625D26236D15
S1235D45E42642C628F70F85C61FF70F868E02D4C602BD86CB4F8239C61BBDB01832617E49
S1235D655C7D6DE4273EC628F70F85C61FF70F868E036EC602BD86CB4F8239C61BBDB0185C
S1235D8532617E5C7DC628F70F85C61FF70F868E0374C602BD86CB4F8239C61BBDB01832A9
S1235DA5617E5C7DC628F70F85C61FF70F868E02B3C602BD86CB4F8239C61BBDB01832611C
S1235DC57E5C7DC601F70E2AC603BDC115C603BDC0C8C678BD9034C603BDC0B4C603BDC103
S1235DE553C60FBDC0B4C60FBDC0C8C60EBDC0B4C60EBDC0C8C60DBDC0B4C60DBDC0C8C627
S1235E050BBDC0B4C60BBDC0C8C602BD93705D273DC628F70F85C61FF70F868E0275C60227
S1235E25BD86CB4F8239C6B4BD90347F0E2AC62B8E0CE1BDC0CE8E5ED1BD92EABD86CB6371
S1235E45EE37C602BD86CB588938BD698139C628F70F85C61FF70F868E029EC602BD86CB57
S1235E654F823920C1C62B8E0CE1BDBFCE5D2601398E5ED1BD9251BD86CB64AA3739C62BE1
S1235E858E0CE1BDBFCE5D2601398E5ED1BD9251BD86CB64AA37398E5ED17E91D97D0E2A34
S1235EA526068E5ED17E91F3C6228E0088BD86CB4F6B3939C62B8E0CE1BDC04A8E0E23BD07
S11D5EC5AEB67F0E287F0E2A397E5EB90000055C610026929C00001E0000ED
S1235EDF57415354454C414E44002564204A41434B504F545300BDB8CC8E52079F148E404B
S1235EFF089F168E5EDFBD9B02F60E30E7E28E5EE9AFE3BDAA0E8E42B09F148E40169F16F8
S1235F1F8E0C56BD9B02BDBA5DC60CBD9034326320C44A41434B504F5400BDB869BDB8DB3A
S1235F3F8E52079F148E40109F168E5F31BD9B02BDB946BDBA5D8E3800BDB88AC606E7E2AF
S1235F5FC619BDBA73C61EBD90347E992A3440CE0C57BDB8CC8E5F31AFE3BDAA0E326211FF
S1235F7F830C5D27226FC08E52079F148E40109F168E0C56BD9B02BDBA5DC612BD903411E5
S1235F9F830C5E26CD20188E52079F148E40109F168E0C56BD9B02BDBA5DC612BD9034C65C
S1235FBF1EBD90347E992A327F6FE48E5620BDB8AABDB8CC8E52079F148E40089F168E5F64
S1235FDF31BD9B028E52079F148E40189F168E5F31BD9B02BDBA5D6CE4E6E4C10826CCC6F7
S1235FFF1EBD90347E992A327F6FE48E5620BDB8AABDB8CC8E52079F148E40109F168E5F1C
S123601F31BD9B02BDBA5D6CE4E6E4C10826DCC61EBD90347E992A327FF60E315CE7E4F76F
S123603F0E31CC0003EDE3E6624F1F01BDE38A32621F10C101271F2508C1022712C103279F
S123605F07C66332617E972CC66632617E972CC66532617E972CC66432617E972C4D554C2E
S123607F544942414C4C00327FBDB8BD8E52079F148E40089F168E5EDFBD9B028E52079F92
S123609F148E40189F168E607CBD9B02C607E7E4BDBA39C606BD9034BDB872BDBA39C60672
S12360BFBD9034BDBA47C60CBD9034BDBA39C606BD9034BDB8726AE426D67E992A327F8E7D
S12360DF809BAFE38E0E2BBDAEC5C602BD9370E7627C0E30F60E30C40132625D26236DE4EA
S12360FF2642C628F70F85C61FF70F868E02D4C602BD86CB4F8239C61BBDB01832617E6010
S123611F366DE4273EC628F70F85C61FF70F868E036EC602BD86CB4F8239C61BBDB018320F
S123613F617E6036C628F70F85C61FF70F868E0374C602BD86CB4F8239C61BBDB0183261FF
S123615F7E6036C628F70F85C61FF70F868E02B3C602BD86CB4F8239C61BBDB01832617E84
S123617F6036C601F70E32C604BDC115C604BDC0C8C678BD9034C604BDC0B4C604BDC153A7
S123619FC60FBDC0B4C60FBDC0C8C60EBDC0B4C60EBDC0C8C60DBDC0B4C60DBDC0C8C60BB1
S12361BFBDC0B4C60BBDC0C8C602BD93705D273DC628F70F85C61FF70F868E0275C602BDB8
S12361DF86CB4F8239C6B4BD90347F0E32C62C8E0CE1BDC0CE8E628ABD92EABD86CB63EEBD
S12361FF37C602BD86CB588938BD698139C628F70F85C61FF70F868E029EC602BD86CB4F39
S123621F823920C1C62C8E0CE1BDBFCE5D2601398E628ABD9251BD86CB64AA3739C62C8E25
S123623F0CE1BDBFCE5D2601398E628ABD9251BD86CB64AA37398E628A7E91D97D0E32265C
S123625F068E628A7E91F3C6228E0088BD86CB4F6B3939C62C8E0CE1BDC04A8E0E2BBDAEFB
S11C627FB67F0E307F0E32397E627200000562670026929C00001E000005
S123629844454D4F54494D45002564204A41434B504F545300BDB8CC8E52079F148E4008D5
S12362B89F168E6298BD9B02F60E38E7E28E62A1AFE3BDAA0E8E42B09F148E40169F168E34
S12362D80C56BD9B02BDBA5DC60CBD9034326320C44A41434B504F5400BDB869BDB8DB8E7E
S12362F852079F148E40109F168E62E9BD9B02BDB946BDBA5D8E3800BDB88AC606E7E2C600
S123631819BDBA73C61EBD90347E992A3440CE0C57BDB8CC8E62E9AFE3BDAA0E32621183CA
S12363380C5D27226FC08E52079F148E40109F168E0C56BD9B02BDBA5DC612BD9034118328
S12363580C5E26CD20188E52079F148E40109F168E0C56BD9B02BDBA5DC612BD9034C61E04
S1236378BD90347E992A327F6FE48E5620BDB8AABDB8CC8E52079F148E40089F168E62E9D9
S1236398BD9B028E52079F148E40189F168E62E9BD9B02BDBA5D6CE4E6E4C10826CCC61E92
S12363B8BD90347E992A327F6FE48E5620BDB8AABDB8CC8E52079F148E40109F168E62E991
S12363D8BD9B02BDBA5D6CE4E6E4C10826DCC61EBD90347E992A327FF60E395CE7E4F70ECE
S12363F839CC0003EDE3E6624F1F01BDE38A32621F10C101271F2508C1022712C1032707E2
S1236418C66932617E972CC66C32617E972CC66B32617E972CC66A32617E972C4D554C540C
S12364384942414C4C00327FBDB8BD8E52079F148E40089F168E6298BD9B028E52079F1458
S12364588E40189F168E6434BD9B02C607E7E4BDBA39C606BD9034BDB872BDBA39C606BD50
S12364789034BDBA47C60CBD9034BDBA39C606BD9034BDB8726AE426D67E992A327F8E80FD
S12364989BAFE38E0E33BDAEC5C602BD9370E7627C0E38F60E38C40132625D26236DE4266F
S12364B842C628F70F85C61FF70F868E02D4C602BD86CB4F8239C61BBDB01832617E63EE88
S12364D86DE4273EC628F70F85C61FF70F868E036EC602BD86CB4F8239C61BBDB018326128
S12364F87E63EEC628F70F85C61FF70F868E0374C602BD86CB4F8239C61BBDB01832617E6B
S123651863EEC628F70F85C61FF70F868E02B3C602BD86CB4F8239C61BBDB01832617E6327
S1236538EEC601F70E3AC678BD9034C60FBDC0B4C60FBDC0C8C60EBDC0B4C60EBDC0C8C688
S12365580DBDC0B4C60DBDC0C8C60BBDC0B4C60BBDC0C8C602BD93705D273DC628F70F85EF
S1236578C61FF70F868E0275C602BD86CB4F8239C6B4BD90347F0E3AC62D8E0CE1BDC0CE2E
S12365988E662EBD92EABD86CB63EE37C602BD86CB588938BD698139C628F70F85C61FF7CA
S12365B80F868E029EC602BD86CB4F823920C1C62D8E0CE1BDBFCE5D2601398E662EBD9255
S12365D851BD86CB64AA3739C62D8E0CE1BDBFCE5D2601398E662EBD9251BD86CB64AA3738
S12365F8398E662E7E91D97D0E3A26068E662E7E91F3C6228E0088BD86CB4F6B3939C62DFC
S12366188E0CE1BDC04A8E0E33BDAEB67F0E387F0E3A397E6616000005686D0026929C003F
S1076638001E00003C
S123663C460052004545005A00450025642046524F5A454E004D554C544942414C4C2052E4
S123665C45414459002564204D4F524520464F52204D42003440327ECE0004BDB8BD8E4867
S123667CC89F141F30CB60581F985FCA08DD168E663CBD9B028E48C89F141F301F985FCAC8
S123669C08DD168E663EBD9B028E48C89F148E40089F168E6640BD9B028E48C89F14CC00CC
S12366BC803440A3E11F985FCA08DD168E6643BD9B028E48C89F141F30584940508200C3C0
S12366DC00C01F985FCA08DD168E6645BD9B02BDBA5DC606BD90343345118300311026FFD9
S12366FC7AC61EBD9034BDB8BD8E56CCBDB8AAF61414E7E28E6647AFE3BDAA0E8E4D899F6E
S123671C148E40089F168E0C56BD9B02F61414E763F61416E7643263E6E4E16125258E66BE
S123673C51AFE3BDAA0E32628E4D899F148E40189F168E0C56BD9B02BDBA5DC678BD9034BE
S123675C7E992AE661E0E434048E6661AFE3BDAA0E326320D3F61415C403270CC101270CA3
S123677CC102270CBD618139BD562839BD5A0E39BD5DC839327FF61415C403F11414250366
S123679C326139BDD717C6248E0CE1BDC0CEF60E3BE7E45CF70E3BC601E4E42718C628F759
S12367BC0F85C61FF70F868E0438C602BD86CB4F8239326139C628F70F85C61FF70F868EC6
S12367DC0437C602BD86CB4F8239326139F61414C10227412309C103274FC104270F39C10E
S12367FC0126FBC60FBDC0B4C60F7EC153C60FBDC0B4C60FBDC153C60EBDC0B4C60EBDC1E7
S123681C53C60DBDC0B4C60DBDC153C60BBDC0B4C60B7EC153C60FBDC0B4C60FBDC153C686
S123683C0EBDC0B4C60E7EC153C60FBDC0B4C60FBDC153C60EBDC0B4C60EBDC153C60DBDAD
S123685CC0B4C60D7EC1537E67E9C60AF70F85C61BF70F868E0201C608BD86CB4F8239F63C
S123687C1414C10322145CF71414C102273C231BC10310270093C1042755C66EBD972CBDB7
S123689CDD74BD86CB6755377E6790C10126EBC60FBDC115C60FBDC0C8C61EBD9034C60F82
S12368BCBDC0B4C60FBDC15320D0C60EBDC115C60EBDC0C8C61EBD9034C60FBDC0B4C60F31
S12368DCBDC153C60EBDC0B4C60EBDC15320ABC60BBDC115C60BBDC0C8C61EBD9034C60F9E
S12368FCBDC0B4C60FBDC153C60EBDC0B4C60EBDC153C60DBDC0B4C60DBDC153C60BBDC001
S123691CB4C60BBDC1537E6896C60DBDC115C60DBDC0C8C61EBD9034C60FBDC0B4C60FBD0A
S123693CC153C60EBDC0B4C60EBDC153C60DBDC0B4C60DBDC1537E6896C603F71414BD6848
S123695C66390D1D27040D1F270139C6248E0CE1BDBFCE5D27F4C6128E0006BD86CB4F6B3B
S123697C39397ED6AB7C1415F61416C10322045CF71416C6248E0CE1BDC04A7ED6ABBDD69C
S116699CAB7F14147F0E3B7F1415C601F71416397E699A80
S10514140000D2
S104141600D1
S12369AF25642020202020202020202020202020202020202020202020202020256400432F
S12369CF52594F20434C415700BDB8CCF60E3C340434048E69AFAFE3BDAA0E8E42B09F1492
S12369EF8E40049F168E0C56BD9B028E5AB99F148E40089F168E69CEBD9B028E42B09F1482
S1236A0F8E40169F168E0C56BD9B02BDBA5DC61EBD9034326420B2C6268E0CE1BDC04AC6EB
S1236A2F238E0CE17EC04AC6268E0CE1BDC04A7EB3A1C6268E0CE1BDC04ABDB3A1C63CBD1F
S1236A4F9034BDB266C678BD90347EB281C6268E0CE1BDBFCE5D2601397EB3A1C6268E0C54
S1236A6FE1BDBFCE5D2601397EB2DBC6268E0CE1BDBFCE5D2601397EB3098E6B58BD941BAB
S1236A8F5D2601398E6B587E956A8E6B58BD941B5D2601398E6B587E956A7D0C46260139E1
S1236AAF8E6B58BD941B5D26F68E6B587E957A8E6B587E94568E6B587E9477C6238E0CE1B8
S1236ACFBDC04ABDBC1BBDB3A1C6268E0CE1BDC04AC63CBD9034BDB281BD86CB6CA5383906
S1236AEF7E6ACABD86CB6CA038C6238E0CE1BDC0CEC628F70F85C61FF70F868E0418C60274
S1236B0FBD86CB4F8239BDBC20C678BD9034BDB398BDB1D5C606BD9034BDB1A9C61EBD9012
S1236B2F34BDB37EC63CBD9034C628F70F85C61FF70F868E0417C602BD86CB4F8239C6263E
S11E6B4F8E0CE1BDC0CE7EDE286AF26AEF931B9319006F000E12400E000E3CA7
S9030000FC
