S1234000347F0D97397F0D99C619F70D987F0D97397F0D99C619F70D987F0D97397F0D97F1
S123402039F60D99C1052302C605BD86CB425B357E992A31204A4554002564204A455453BD
S123404000256420464F5220424F4E5553003440327C6FE4C606BD9370E762C604BD937051
S1234060E763BDB8CCF60D97C1011027006534048E4039AFE3BDAA0E3263C603E4E4273FE7
S1234080C10110270067C10227588E4B649F14C640E0621F985F1F01E663CB084F3410AAB3
S12340A0E0EAE0DD168E0C56BD9B02BDBA5DC604BD9034E6E4C108274E5CE7E47E40548E27
S12340C04B649F14E662CB401F985F1F01C608E06320C934048E4033AFE3BDAA0E32637EA4
S12340E0407A8E4B649F14CB3EE06220DB8E4B649F14E662CB401F985F1F03E663CB084FE6
S12341001F011F307E409D8E56D6BDB8AABDB8CCF60D97C101274434048E4039AFE3BDAAB8
S12341200E32638E4B649F148E40089F168E0C56BD9B02F60D98E7E28E4041AFE3BDAA0E99
S12341408E4B649F148E40189F168E0C56BD9B02BDBA5DC63CBD90347E992A34048E4033B5
S1234160AFE3BDAA0E326320BA7F0D977C0D99F60D99C104232CC612BDB018C614F70F850E
S1234180C61FF70F868E009BC604BD86CB4F8239C62ABD972CF60D98C1952205CB0FF70D39
S12341A098394F58491F016E9941AB417B41BC41C341CA41B5C611BDB01820BFC60EBDB0ED
S12341C01820B8C60FBDB01820B1C610BDB01820AAC6298E0CE1BDBFCE5D261BC6068E0CE3
S12341E0E1BDBFCE5D2718C606E7E2C6FFE7E2C614BDC559326239BD86CB52453620E87CF0
S12342000D97C60BBDB018F60D97F10D982407C629BD972C20D1BD416920CC192D410F9666
S123422053555045524A45545300434F4D504C455445003460BDB8CC108E00148E4D89AFC2
S1234240A4CE00168E4008AFC48E4220BD9B028E5207AFA48E4018AFC48E422ABD9B02BD9B
S1234260BA5DC63CBD9034BDB8CC8E0D9CBDAE048E5207AFA48E4010AFC48E0C56BD9B02E4
S1234280BDBA5DC678BD90347E992A2564005355504552004A45545300256420544F204745
S12342A04F414C0053484F4F540042554D5045525300327CBDB8CC6F6320516D631026013A
S12342C043C601E763F60D9AE7E28E428BAFE3BDAA0E8E42B09F148E541C9F168E0C56BD2B
S12342E09B028E75499F148E54049F168E428EBD9B028E75499F148E54109F168E4294BD04
S12343009B023263BDBA5DC612BD9034BDB8DBF60DAC5CE762F70DACCC0005EDE3E6644FAC
S12343201F01BDE38A32621F10C101102700E7F60DAC4FEDE4CC0005EDE3AE62BDE38A32B0
S1234340621F10C102102700E9F60DAC4FEDE4CC0005EDE3AE62BDE38A32621F10C10310A4
S12343602700C1F60DAC4FEDE4CC0005EDE3AE62BDE38A32621F10C1041027008BF60DACAE
S12343804FEDE4CC0005EDE3AE62BDE38A32621F105D10270061F60DAC4FEDE4CC000AEDD4
S12343A0E3AE62BDE38A32621F105D1027FF0C6D631026FF10F60DABE7E28E4299AFE3BD36
S12343C0AA0E8E42B09F148E541C9F168E0C56BD9B028E75499F148E54049F168E42A4BD26
S12343E09B028E75499F148E54109F168E42AABD9B0232637E43046FE28E48DBBD9A5C3261
S1234400617E43966F6320AD6FE25F8E496EBD9A5C32617E437D6FE25F8E48DBBD9A5C3282
S1234420617E432F6FE25F8E4A24BD9A5C32617E43636FE25F8E496EBD9A5C32617E4349CC
S1234440BDB8BDF60DACC4011027019DC614F70F85C61FF70F868E00B6C60CBD86CB4F8212
S123446039C61AE7E25F8E4BA7BD9A5CBDBA5DC604BD9034BDB8DBC615E7E25F8E4BB5BD07
S12344809A5CBDBA5DC604BD9034BDB8DBC60FE7E25F8E4BE3BD9A5CBDBA5DC604BD903428
S12344A0BDB8DBC60FE7E25F8E4C4BBD9A5CBDBA5DC604BD9034BDB8DBC60CE7E25F8E4C90
S12344C0D5BD9A5CBDBA5DC604BD9034BDB8DB6FE25F8E4D9FBD9A5CBDBA5DC604BD9034E5
S12344E0BDB8DB6FE25F8E4F21BD9A5CBDBA5DC604BD9034BDB8DB6FE25F8E50E3BD9A5C74
S12345003268BDBA5DC604BD9034BDB8DB6FE25F8E5297BD9A5CBDBA5DC604BD9034BDB820
S1234520DB6FE25F8E5459BD9A5CBDBA5DC604BD9034BDB8DB6FE25F8E561BBD9A5CBDBAB6
S12345405DC604BD9034BDB8DB6FE25F8E57DDBD9A5CBDBA5DC604BD9034BDB8DB6FE2C6B4
S1234560108E599FBD9A5CBDBA5DC604BD9034BDB8DBC608E7E2C6208E5B21BD9A5CBDBACE
S12345805DC604BD9034BDB8DBC609E7E2C6308E5C13BD9A5CBDBA5DC604BD9034BDB8DB72
S12345A0C60BE7E2CB358E5CD5BD9A5C3268BDBA5DC604BD9034BDB8DBC614E7E2CB3C8EAA
S12345C05D55BD9A5CBDBA5DC604BD9034BDB8DBC614E7E2C6608E5D87BD9A5CBDBA5DC67B
S12345E004BD903432627EB8DBC614F70F85C61FF70F868E00B4C60CBD86CB4F82397E44C9
S1234600613440327AF60D9A4FEDE4CC000AEDE3AE62BDE38A32621F105D2606BD44407E6D
S1234620992A7F0DACC603BD93705D102700B6C101102700C8C614F70F85C61FF70F868E83
S1234640042BC602BD86CB4F82396F6220368E52079F14E664CB5E1F985F1F03E665CB10B5
S12346604F1F011F303410AAE0EAE0DD168E0C56BD9B02BDBA5DC606BD9034E662C108274A
S12346805E5CE762C606BD9370E764C604BD9370E7657C0DACBDB8CCF60DACC1012333C168
S12346A005222F6FE25F8E4B45BD9A5C32618E0DA1BDAE04C601E4621027FF928E52079F86
S12346C014C65EE0641F985F1F01C610E0654F7E46656FE25F8E4AADBD9A5C326120CF7FA8
S12346E00DAC7E461FC614F70F85C61FF70F868E0429C602BD86CB4F82397E464AC614F7CA
S12347000F85C61FF70F868E042AC602BD86CB4F82397E464AC628F70F85C61FF70F868E6E
S12347200412C602BD86CB4F8239C62DBD972CC61BBDB0188E809BAFE38E0D9CBDAEC5F60E
S12347400DAB3262C1632205CB0AF70DAB8E48C97E956A8E48C9BD941B5D27197C0D9AF65D
S12347601400C101272B2411F60D9AF10DAB2406C62C7E972C397E4715C1022728C610BD7D
S1234780B0188E8064AFE38E0D9CBDAEC5326220D7C60EBDB0188E805AAFE38E0D9CBDAE62
S12347A0C5326220C3C60FBDB018CC805FEDE38E0D9CBDAEC5326220AF8E48C9BD941B5DB2
S12347C02601398E48C97E956A8E48C97E957A8E48C97E94568E48C97E9477C6068E0CE1B7
S12347E07EC04A7E47DBC6068E0CE17EC04A7E47E6BDB3A1C6268E0CE1BDC04ABDBC1B7FC1
S12348000D9AC6068E0CE1BDC0CE7C1400C628F70F85C61FF70F868E0414C602BD86CB4F16
S12348208239C629BDC115C629BDC0C8C61EBD9034C629BDC0B4C629BDC1538E0D9CBDAE1C
S1234840B68E0DA1BDAEB6F61400C1012721C102273A8E8064AFE38E0DA1BDAEC5CC80A5A8
S1234860EDE38E0D9CBDAEC53264C61D7EB0188E805AAFE38E0DA1BDAEC5CC809BEDE38E93
S12348800D9CBDAEC53264C61B7EB0188E805FAFE38E0DA1BDAEC5CC80A0EDE38E0D9CBD63
S12348A0AEC53264C61C7EB018BD47E67F0D9A7F14007F14018E0DA6BDAEB6C614F70DABA1
S12348C0397E48A9141E280A6447F147E3931B9319002B2D10144A3F020D9B281D00C001F3
S12348E0000000C003000000F003000000F801000000FC010000007E000000007F0000000B
S123490000FF01000000DFCF0700000FCC0F00001FF81F00003EF8FF01007CFCFF3F00F0E2
S1234920FEFF1F00E0FFFF1F00F9FFFF1FF0FFFFFF07F8FFFFFF03F0FFFFFF0300FEFFFF6C
S12349400000FEFF3F00C0FFFF1F00F0FFFF0300F8FFFF0000FCFF070000FE7F000000FFD5
S12349600F000000FE030000003F00000000301E00003C00000000007C00000000C0FF001F
S1234980000000E01F00000000F01F00000000F80300000000FC0300000000FC0700000008
S12349A000FC1F000000003C7C0C0000007CE07C000000F8C0FF000000F0C1FF010000E0F4
S12349C0F3FF030000C0FBFF0300E083FFFF3F00F8FFFFFFFF03F8FFFFFFFF03B0FFFFFFE6
S12349E0FF0300FCFFFFFF0300FCFFFFFF01E0FFFFFF7F00F8FFFFFF3F00FCFFFFFF0F0023
S1234A00FFFFFFFF0300FFFFFFFF0000FFFFFF030000FFFF01000000FF0300000000020094
S1234A2000000000281B00000C000000001F000000001F000000801F000000E00F00000057
S1234A40F00F000000F003000000F807000000F80F000000F87F0000007840000000784073
S1234A6001000078E00F0000E0F01F0078E0FC1F00F8FFFD3F00F0FFFF7F0080FFFFFF014A
S1234A8000FFFFFF07F8FFFFFF1FFEFFFFFF1FFFFFFFFF1FFFFFFFFF07FFFFFFFF03FFFFC5
S1234AA0FFFF00FFFFFF1F007001700000281E0006000000000F000000000F000000800FFE
S1234AC0000000C00F000000E003000000E003FE0000F0FFFEC001F0FEFFFF00F080FFFF37
S1234AE000F0C0FFFF00F0C3FFFF00E0CFFF7F0000FFFF3F0000FCFF1F0000FFFF0F00E0E2
S1234B00FFFF0F00FCFFFF0300FEFFFF0100BEFF7F000000FF3F0000E0FF070000F0FF003B
S1234B200000F8FF000000FC1F000000FC0F000000FE03000000FF010000003E0000000015
S1234B401F000000001820800100C00300C00100E00300E00000F00000F00100F0010070F0
S1234B60036070FF7D70FE7F70F87F70FC3F60FE3F60FE3FE0FF1FE0FF0FE0FF0FC0FF0789
S1234B80F0FF03FCFF00FE7F00EF3F00E20F00F80700F80300FC0100FC00007E00003E00D9
S1234BA0001E0000060000100607000F00301C7C06FF007F00200B1F000000730000000197
S1234BC00F00000000000000C00000FFFE0700FEFE0F003878301C7F017C06FFFFFF00C038
S1234BE0FF7F0030110300000000000F0000000000E70300000000BC3F000000007C7E0001
S1234C00000000FEFC000000001FF81F00000003F07300000000C0010F0000030000000027
S1234C2000EF0300C00000FFE0FFFE07001FF8FEFE0F0000383878301C78FF7F017C06FF0D
S1234C40E7FFFFFF00FF01C0FF7F004011C101030000000000E3870F0000000000FF8FE72A
S1234C600300000000FE3FBC3F00000000FC1F7C7E00000000FE08FEFC0000000078801FC9
S1234C80F81F000000C38003F073000000FF0700C0010F0000FFFF030000000000FFFFEF8C
S1234CA00300C00000FFFFFFE0FFFE0700FFFF1FF8FEFE0F00080000383878301C784078C0
S1234CC0FF7F017C06E4E1FFE7FFFFFF00E3FBFF01C0FF7F0050143E000000000000000069
S1234CE000FF010000000000000000FF3F0000000000000000FFE3C101030000000000FFCC
S1234D00E0E3870F0000000000FFF0FF8FE703000000000000FE3FBC3F000000000000FC9B
S1234D201F7C7E000000000000FE08FEFC000000007F3078801FF81F000000FFFFC3800335
S1234D40F073000000E0FFFF0700C0010F0000C0FFFFFF03000000000080FFFFFFEF030008
S1234D60C0000000FFFFFFFFE0FFFE070080FFFFFF1FF8FEFE0F003F000800003838783091
S1234D801CFF7C784078FF7F017C06FFC3E4E1FFE7FFFFFF00FF0FE3FBFF01C0FF7F006053
S1234DA02001000000000000000000000001000000000000000000000000000000000000CD
S1234DC00000000000070000000000000000000000020000000000000000000000060000C0
S1234DE00000000000000000000000000000000000000000000100000000000000000000AE
S1234E0000000000000000000000000000010000000000000000000000000000000000008D
S1234E20000000000000000000000000000000000038003E0000000000000000007000FF89
S1234E400100000000000000002000FF3F00000000000000000000FFE3C101030000000048
S1234E60008F07FFE0E3870F00000000008F1FFFF0FF8FE703000000000F000000FE3FBC23
S1234E803F000000001F000000FC1F7C7E0000000000000000FE08FEFC0000000000007F1C
S1234EA03078801FF81F0000000000FFFFC38003F0730000000061E0FFFF0700C0010F00D3
S1234EC0008043C0FFFFFF030000000000C02180FFFFFFEF0300C000000E0000FFFFFFFF31
S1234EE0E0FFFE07001F0080FFFFFF1FF8FEFE0F00FFFF3F00080000383878301CFFFFFF96
S1234F007C784078FF7F017C06FFFFFFC3E4E1FFE7FFFFFF00FFFFFF0FE3FBFF01C0FF7F50
S1234F2000702000EF01000000000000000000000080FF010000000000000000000000C0AD
S1234F401F000000000000000000000000F0FF070000000000000000000000F00302000043
S1234F60000000000000000000F001060000000000000000000000FC4100000000000000F9
S1234F800000000000FEFF0100000000000000000000009EF300000000000000000000007E
S1234FA0000EE00100000000000000000000000F000000000000000000000000000E0000E1
S1234FC000000000000000000000000F0038003E0000000000000000000F007000FF0100C9
S1234FE0000000000000001F1E2000FF3F0000000000000000FFFF0000FFE3C1010300006D
S1235000000000FFFF8F07FFE0E3870F0000000000FFFF8F1FFFF0FF8FE70300000000FF8E
S1235020FF0F000000FE3FBC3F00000000FFFF1F000000FC1F7C7E00000000FF7F00000076
S123504000FE08FEFC00000000FF3F00007F3078801FF81F000000FF7F0000FFFFC380036F
S1235060F073000000FF1F0061E0FFFF0700C0010F0000FF078043C0FFFFFF03000000000C
S123508000FF07C02180FFFFFFEF0300C00000FC070E0000FFFFFFFFE0FFFE0700F9FF1FEE
S12350A00080FFFFFF1FF8FEFE0F0000F0FFFF3F00080000383878301C00F8FFFFFF7C78FB
S12350C04078FF7F017C06E3FFFFFFFFC3E4E1FFE7FFFFFF00E1FFFFFFFF0FE3FBFF01C03F
S12350E0FF7F00701F000000EF01000000000000000000000080FF0100000000000000002F
S1235100000000C01F000000000000000000000000F0FF070000000000000000000000F0C6
S123512003020000000000000000000000F001060000000000000000000000FC4100000032
S1235140000000000000000000FEFF0100000000000000000000009EF300000000000000BC
S123516000000000000EE00100000000000000000000000F0000000000000000000000002D
S1235180000E000000000000000000000000000F0038003E000000000000003F800F00703A
S12351A000FF01000000000000FFC11F1E2000FF3F00000000000000C0FFFF0000FFE3C12F
S12351C0010300000000C0FFFF8F07FFE0E3870F00000001DCFFFF0F000000FE3FBC3F00F9
S12351E0003F90FFFF1F000000FC1F7C7E00007CE0FF7F00000000FE08FEFC00007EE0FF73
S12352003F00007F3078801FF81F0078E0FF7F0000FFFFC38003F073000380FF1F0061E00F
S1235220FFFF0700C0010F8783FF078043C0FFFFFF030000008C8FFF07C02180FFFFFFEF94
S12352400300C0FE3FFC070E0000FFFFFFFFE0FFFE7EF0F9FF1F0080FFFFFF1FF8FEFE3F0C
S12352600000F0FFFF3F00080000383878002C00F8FFFFFF7C784078FF7F01F0EFE3FFFF01
S1235280FFFFC3E4E1FFE7FFFFE7CFE1FFFFFFFF0FE3FBFF01C0FF70200000000000EF01E1
S12352A0000000000000000000000080FF010000000000000000000000C01F00000000008B
S12352C000000000000000F0FF070000000000000000000000F003020000000000000000DF
S12352E0000000F001060000000000000000000000FC41000000000000000000000000FE78
S1235300FF0100000000000000000000009EF30000000000000000000000000EE001000009
S12353200000000000000000000F000000000000000000000000000E00000000000000004C
S123534000000000000F0038003E00000000000FF03F800F007000FF01000000000300FF85
S1235360C11F1E2000FF3F00000000CF0D00C0FFFF0000FFE3C1010300FF0700C0FFFF8F39
S123538007FFE0E3870F00FF07C0C3FFFF8F1FFFF0FF8FE703FEFF01DCFFFF0F000000FE29
S12353A03FBC3FFCFF3F90FFFF1F000000FC1F7C7EF8FF7CE0FF7F00000000FE08FEFCF0F2
S12353C07F7EE0FF3F00007F3078801FF8F01F78E0FF7F0000FFFFC38003F000F80380FF5D
S12353E01F0061E0FFFF0700C080FF8783FF078043C0FFFFFF0300801F8C8FFF07C0218051
S1235400FFFFFFEF030000FE3FFC070E0000FFFFFFFFE000007EF0F9FF1F0080FFFFFF1F4E
S1235420F83F7C3F0000F0FFFF3F00080000387000002C00F8FFFFFF7C784078FF0000F0DD
S1235440EFE3FFFFFFFFC3E4E1FFE7FF83E7CFE1FFFFFFFF0FE3FBFF01702000000000007A
S12354600000EF01000000000000000000000080FF010000000000000000000000C01F00D9
S12354800000000000000000000000F0FF070000000000000000000000F00302000000001D
S12354A000000000000000F001060000000000000000000000FC41000000000000000000B4
S12354C0000000FEFF0100000000000000000000009EF30000000000000000000000000E2B
S12354E0E00100000000000000000000000F000000000000000000000000000E00000000AA
S12355000000004000000000000F0038003E00000000C00FF03F800F007000FF01000000C5
S1235520800300FFC11F1E2000FF3F000000C0CF0D00C0FFFF0000FFE3C10100C0FF0700C5
S1235540C0FFFF8F07FFE0E3870080FF07C0C3FFFF8F1FFFF0FF8F0000FEFF01DCFFFF0F91
S1235560000000FE3F1F00FCFF3F90FFFF1F000000FC1F3C00F8FF7CE0FF7F00000000FEBE
S1235580080000F07F7EE0FF3F00007F3078804000F01F78E0FF7F0000FFFFC380400000A7
S12355A0F80380FF1F0061E0FFFF07000080FF8783FF078043C0FFFFFF0000801F8C8FFF40
S12355C007C02180FFFFFF00000000FE3FFC070E0000FFFFFF000000007EF0F9FF1F008012
S12355E0FFFFFF00A03F7C3F0000F0FFFF3F00080000007000002C00F8FFFFFF7C7840B95D
S1235600030000F0EFE3FFFFFFFFC3E4E1AFFFFF83E7CFE1FFFFFFFF0FE3FB7020000000FD
S1235620000000000000EF01000000000000000000000080FF0100000000000000000000F6
S123564000C01F000000000000000000000000F0FF070000000000000000000000F003027C
S12356600000000000000000000000F001060000000000000000000000FC410000000000F2
S123568000000000000000FEFF0100000000000000000000009EF300000000000000000077
S12356A00000000EE00100000000000000000000000F000000000000000000000000000EDA
S12356C0000000000000004000000000000F0038003E00000000C00FF03F800F007000FF05
S12356E001030000800300FFC11F1E2000FF3F030000C0CF0D00C0FFFF0000FFE307070077
S1235700C0FF0700C0FFFF8F07FFE0963F0080FF07C0C3FFFF8F1FFFF0E03F0000FEFF01F6
S1235720DCFFFF0F00000060801F00FCFF3F90FFFF1F00000000003C00F8FF7CE0FF7F0089
S123574000000000000000F07F7EE0FF3F00007F3000004000F01F78E0FF7F0000FFFF0068
S123576000400000F80380FF1F0061E0FF0000000080FF8783FF078043C0FF00000000807B
S12357801F8C8FFF07C02180FF000000000000FE3FFC070E0000FF0000000000007EF0F9B1
S12357A0FF1F0080FF000000A03F7C3F0000F0FFFF3F001F7E00007000002C00F8FFFFFF53
S12357C07CFFFFB9030000F0EFE3FFFFFFFFC3FFFFAFFFFF83E7CFE1FFFFFFFF0F702000AE
S12357E000000000000000000000EF01000000000000000000000080FF0100000000000035
S1235800000000000000000000000000000000000000000000000000000000000000000084
S1235820000000000000000000000000000000000000000000000000000000000000000064
S1235840000000000000000000000000000000000000000000000300000000000000000041
S1235860000000C007000000000000000000000000FC3F00000000000000000000007CFCAA
S1235880FF1E000000000000000000E0FFFFFF7F000040000000000000F0FFFFFFFF00005F
S12358A000C00F00000000F0FFFFFFFF030000800300000000F8FFFFFFFF030000C0CF001D
S12358C0000000FEFFFF83C7070700C0FF00000000FEFF1F0000963F0080FF00000000FE43
S12358E0FF0F0000E03F0000FE00000000FC3F00000060801F00FC00700000FC0F000000C8
S123590000003C00F800F80300FC0100000000000000F0E0FF0700F8000000000000400049
S1235920F0E0070F00F00000000000004000007002EF00C00003000000000000801F00800A
S12359400100800F000000000000801F00801F00E03F000000000000000000003C00F07FAB
S123596000380000000000000000F02FF0FFE1FF000000A03F000000407CE0FFFFFF1F7EE8
S123598000007000E0F10000C0FFFFFFFFFFB9030000C2EFCF0080FFEFEFFFFFAFFFFF6063
S12359A0200000000000000000000000EF0000000000000000000080FF0000000000000055
S12359C00000000000000000000000000000000000000000000000000000000000000000C3
S12359E00000000000000000000000000000000000000000000000000000000000000000A3
S1235A0000000000000000000300000000000000000000C00700000000000000000000FCBC
S1235A203F0000000000000000007CFCFF1E00000000000000E0FFFFFF7F000040000000F2
S1235A4000F0FFFFFFFF00000000000000F0FFFFFFFF03000000000000F8FFFFFFFF030070
S1235A600000000000FEFFFF83C707070000000000FEFF1F0000963F0000000000FEFF0FD1
S1235A800000E03F0000000000FC3F00000060801F00700000FC0F00000000003C00F803F7
S1235AA000FC01000000000000E0FF0700F800000000000040E0070F00F0000000000000E1
S1235AC0407002EF00C0000300000000001F00800100800F00000000001F00801F00E03F52
S1235AE000000000000000003C00F07F0038000000000000F02FF0FFE1FF000000000000D1
S1235B00407CE0FFFFFF1F7E0000E0F10000C0FFFFFFFFFFB900C2EFCF0080FFEFEFFFFF2B
S1235B20AF501800000000000000030000000000000000C0070000000000000000FC3F0045
S1235B400000000000007CFCFF1E0000000000E0FFFFFF7F0000000000F0FFFFFFFF000064
S1235B60000000F0FFFFFFFF0300000000F8FFFFFFFF0300000000FEFFFF83C707000000EE
S1235B8000FEFF1F00009600000000FEFF0F0000E000000000FC3F0000006000700000FC5C
S1235BA00F0000000000F80300FC0100000000E0FF0700F80000000000E0070F00F0000016
S1235BC00000007002EF00C000030000001F00800100800F0000001F00801F00E03F000091
S1235BE0000000003C00F07F003800000000F02FF0FFE1FF00000000407CE0FFFFFF1F0018
S1235C00E0F10000C0FFFFFFFF00C2EFCF0080FFEFEFFF40170000000000000003000000BD
S1235C20000000C007000000000000FC3F00000000007CFCFF00000000E0FFFFFF0000000A
S1235C4000F0FFFFFF00000000F0FFFFFF00000000F8FFFFFF00000000FEFFFF83000000F2
S1235C6000FEFF1F0000000000FEFF0F0000000000FC3F000000700000FC0F000000F80347
S1235C8000FC010000E0FF0700F8000000E0070F00F00000007002EF00C00003001F00807C
S1235CA00100800F001F00801F00E03F000000003C00F07F00000000F02FF0FFE1000000D9
S1235CC0407CE0FFFF00E0F10000C0FFFF00C2EFCF0080FFEF301500000000007C000000E8
S1235CE000E0FF00000000F0FF00000000F0FF00000000F8FF00000000FEFF00000000FEF1
S1235D00FF00000000FEFF00000000FC3F00700000FC0F00F80300FC01E0FF0700F800E017
S1235D20070F00F0007002EF00C0001F00800100801F00801F00E00000003C00F00000004E
S1235D40F02FF0000000407CE000E0F10000C000C2EFCF0080200C0070000000F80300E08C
S1235D60FF0700E0070F007002EF001F0080011F00801F0000003C000000F00000004000F8
S1235D80E0F10000C2EFCF100C007000F8E0FFE00770021F001F0000000000000000E000D4
S1045DA0C23C
S10514000000E6
S1235DA17F14027F0DAEC602F71403C605F71404397F0DAE397F14027F0DAEC602F714030E
S1235DC1C605F71404397F0DAE394558504C4F44450041540025642048495453003460BD60
S1235DE1B8BD8E5620BDB8AACE00148E42B0AFC4108E00168E2704AFA48E5DCBBD9B028ED3
S1235E0142B0AFC48E270AAFA48E5DD3BD9B02F61403F00DAE34048E5DD6AFE3BDAA0E8EA8
S1235E215F2EAFC48E2718AFA48E0C56BD9B02C602E7E2C6568E60D9BD9A5CBDBA5DC63CF6
S1235E41BD9034C61EBD90347E992A45585452412042414C4C003460BDB8CC8E5620BDB809
S1235E61AACE00148E42B0AFC4108E00168E2204AFA48E5E4CBD9B028E42B0AFC48E220AA4
S1235E81AFA48E5DD3BD9B02F61404F00DAF34048E5DD6AFE3BDAA0E8E5F2EAFC48E221882
S1235EA1AFA48E0C56BD9B02C602E7E2C6508E613FBD9A5CBDBA5DC63CBD9034C61EBD9030
S1235EC1347E992A4A45545300494E43524541534500524554494E41205343414E0034602C
S1235EE1BDB8CC8E5620BDB8AA108E00148E42B0AFA4CE00168E5404AFC48E5EC5BD9B026C
S1235F018E42B0AFA48E540AAFC48E5ECABD9B028E5F2EAFA48E4018AFC48E5ED3BD9B025A
S1235F21C602E7E2C60F8E61F5BD9A5CBDBA5DC63CBD9034C61EBD90347E992A4F4F4F482D
S1235F414848004D5920455945003460BDB8CC8E5620BDB8AA8E5F3DAFE3BDAA0ECE5F2E7F
S1235F618E0014EF84108E00168E5908AFA48E0C56BD9B028E5F44AFE3BDAA0E8E0014EFFE
S1235F81848E5918AFA48E0C56BD9B02C602E7E28E60D9BD9A5CBDBA5DC63CBD9034C61E96
S1235FA1BD90347E992A7C0DADF60DADC403C10127152509C1022714C103270639C61D7EB8
S1235FC1972CC6207E972CC61E7E972CC61F7E972CBDD7217F0DAFC614F70F85C61FF70F47
S1235FE1868E0364C602BD86CB4F8239F61404C1312205CB05F71404397F0DAEC614F70FE8
S123600185C61FF70F868E0364C602BD86CB4F8239BD86CB760C37F61403C1312205CB03F5
S1236021F7140339327E7C0DAEC614F70F85C61BF70F868E00CCC604BD86CB4F8239C60653
S1236041E7E2C6FFE7E2C62ABDC5593262F60DAFF114042768F60DAEF1140310270069F6EC
S12360610DAF4FEDE4C3FFFF1F894F5959C401F11404272FC612BDB0187D0D972603326276
S1236081398E0DB0BDAEB68E803CAFE38E0DB0BDAEC5F60D978E0DB0BDAFB48E0DB0326419
S12360A17EB043F60DAE4FEDE4C3FFFF1F894F5959C401F1140326BCBD5FA720B7BD5FD2F8
S12360C1F60DAEF114032697BD5FFA7E6060020305033205080C05322814000000008000A6
S12360E1410000C000011010E000210808F080B107067880FFFF073E80FFFFFF0FC0FFFFB5
S1236101FF07E0CFFEFF03F0FE847F00F8FE840F00DCFCE41F00CC78E67F008681F3E001EC
S123612102FFF98103027EFC0300E1B31F0C00F0FF1F180004FE03000000F0000000301E35
S123614100000080110300000002330300000064270300000944260300000862B603000047
S123616111EFF6130004F9FFFF1F0088FFFFFF1F00C83F8CFF2700F87F08FE0F00787B1803
S1236181F011201E7B08C00720337F18E007C0303E08F000E0301C04F80124600004FC07C6
S12361A11C6000029E070CC000830F0E0680E3C1030C02003E7006080300003E0C00FF27E1
S12361C1AA331800DFFFFF23100000FE7F610000008C30C20000000001810000000C2100AA
S12361E10000000021000000000401000000000001000000200E4004001040401018400207
S1236201001CE0FF0F0FE0FFFF03F0FDFF01B82F3E00BC2F0E0036B73F0062D8E10080E7C6
S11162210700717A0800F87F1000000E0000DC
S1061402000000E3
S9030000FC
